{
  "contractName": "Arts",
  "abi": [
    {
      "inputs": [],
      "stateMutability": "nonpayable",
      "type": "constructor"
    },
    {
      "anonymous": false,
      "inputs": [
        {
          "indexed": true,
          "internalType": "address",
          "name": "owner",
          "type": "address"
        },
        {
          "indexed": true,
          "internalType": "address",
          "name": "approved",
          "type": "address"
        },
        {
          "indexed": true,
          "internalType": "uint256",
          "name": "tokenId",
          "type": "uint256"
        }
      ],
      "name": "Approval",
      "type": "event"
    },
    {
      "anonymous": false,
      "inputs": [
        {
          "indexed": true,
          "internalType": "address",
          "name": "owner",
          "type": "address"
        },
        {
          "indexed": true,
          "internalType": "address",
          "name": "operator",
          "type": "address"
        },
        {
          "indexed": false,
          "internalType": "bool",
          "name": "approved",
          "type": "bool"
        }
      ],
      "name": "ApprovalForAll",
      "type": "event"
    },
    {
      "anonymous": false,
      "inputs": [
        {
          "indexed": true,
          "internalType": "address",
          "name": "from",
          "type": "address"
        },
        {
          "indexed": true,
          "internalType": "address",
          "name": "to",
          "type": "address"
        },
        {
          "indexed": true,
          "internalType": "uint256",
          "name": "tokenId",
          "type": "uint256"
        }
      ],
      "name": "Transfer",
      "type": "event"
    },
    {
      "inputs": [
        {
          "internalType": "uint256",
          "name": "",
          "type": "uint256"
        }
      ],
      "name": "allArts",
      "outputs": [
        {
          "internalType": "uint256",
          "name": "tokenId",
          "type": "uint256"
        },
        {
          "internalType": "string",
          "name": "tokenName",
          "type": "string"
        },
        {
          "internalType": "string",
          "name": "tokenURI",
          "type": "string"
        },
        {
          "internalType": "string",
          "name": "unrevealedTokenURI",
          "type": "string"
        },
        {
          "internalType": "address payable",
          "name": "mintedBy",
          "type": "address"
        },
        {
          "internalType": "address payable",
          "name": "currentOwner",
          "type": "address"
        },
        {
          "internalType": "address payable",
          "name": "previousOwner",
          "type": "address"
        },
        {
          "internalType": "uint256",
          "name": "price",
          "type": "uint256"
        },
        {
          "internalType": "bool",
          "name": "forSale",
          "type": "bool"
        }
      ],
      "stateMutability": "view",
      "type": "function"
    },
    {
      "inputs": [
        {
          "internalType": "address",
          "name": "to",
          "type": "address"
        },
        {
          "internalType": "uint256",
          "name": "tokenId",
          "type": "uint256"
        }
      ],
      "name": "approve",
      "outputs": [],
      "stateMutability": "nonpayable",
      "type": "function"
    },
    {
      "inputs": [],
      "name": "artCounter",
      "outputs": [
        {
          "internalType": "uint256",
          "name": "",
          "type": "uint256"
        }
      ],
      "stateMutability": "view",
      "type": "function"
    },
    {
      "inputs": [
        {
          "internalType": "address",
          "name": "owner",
          "type": "address"
        }
      ],
      "name": "balanceOf",
      "outputs": [
        {
          "internalType": "uint256",
          "name": "",
          "type": "uint256"
        }
      ],
      "stateMutability": "view",
      "type": "function"
    },
    {
      "inputs": [],
      "name": "baseURI",
      "outputs": [
        {
          "internalType": "string",
          "name": "",
          "type": "string"
        }
      ],
      "stateMutability": "view",
      "type": "function"
    },
    {
      "inputs": [
        {
          "internalType": "uint256",
          "name": "tokenId",
          "type": "uint256"
        }
      ],
      "name": "getApproved",
      "outputs": [
        {
          "internalType": "address",
          "name": "",
          "type": "address"
        }
      ],
      "stateMutability": "view",
      "type": "function"
    },
    {
      "inputs": [
        {
          "internalType": "address",
          "name": "owner",
          "type": "address"
        },
        {
          "internalType": "address",
          "name": "operator",
          "type": "address"
        }
      ],
      "name": "isApprovedForAll",
      "outputs": [
        {
          "internalType": "bool",
          "name": "",
          "type": "bool"
        }
      ],
      "stateMutability": "view",
      "type": "function"
    },
    {
      "inputs": [],
      "name": "name",
      "outputs": [
        {
          "internalType": "string",
          "name": "",
          "type": "string"
        }
      ],
      "stateMutability": "view",
      "type": "function"
    },
    {
      "inputs": [],
      "name": "notRevealedUri",
      "outputs": [
        {
          "internalType": "string",
          "name": "",
          "type": "string"
        }
      ],
      "stateMutability": "view",
      "type": "function"
    },
    {
      "inputs": [
        {
          "internalType": "uint256",
          "name": "tokenId",
          "type": "uint256"
        }
      ],
      "name": "ownerOf",
      "outputs": [
        {
          "internalType": "address",
          "name": "",
          "type": "address"
        }
      ],
      "stateMutability": "view",
      "type": "function"
    },
    {
      "inputs": [],
      "name": "revealed",
      "outputs": [
        {
          "internalType": "bool",
          "name": "",
          "type": "bool"
        }
      ],
      "stateMutability": "view",
      "type": "function"
    },
    {
      "inputs": [
        {
          "internalType": "address",
          "name": "from",
          "type": "address"
        },
        {
          "internalType": "address",
          "name": "to",
          "type": "address"
        },
        {
          "internalType": "uint256",
          "name": "tokenId",
          "type": "uint256"
        }
      ],
      "name": "safeTransferFrom",
      "outputs": [],
      "stateMutability": "nonpayable",
      "type": "function"
    },
    {
      "inputs": [
        {
          "internalType": "address",
          "name": "from",
          "type": "address"
        },
        {
          "internalType": "address",
          "name": "to",
          "type": "address"
        },
        {
          "internalType": "uint256",
          "name": "tokenId",
          "type": "uint256"
        },
        {
          "internalType": "bytes",
          "name": "_data",
          "type": "bytes"
        }
      ],
      "name": "safeTransferFrom",
      "outputs": [],
      "stateMutability": "nonpayable",
      "type": "function"
    },
    {
      "inputs": [
        {
          "internalType": "address",
          "name": "operator",
          "type": "address"
        },
        {
          "internalType": "bool",
          "name": "approved",
          "type": "bool"
        }
      ],
      "name": "setApprovalForAll",
      "outputs": [],
      "stateMutability": "nonpayable",
      "type": "function"
    },
    {
      "inputs": [
        {
          "internalType": "bytes4",
          "name": "interfaceId",
          "type": "bytes4"
        }
      ],
      "name": "supportsInterface",
      "outputs": [
        {
          "internalType": "bool",
          "name": "",
          "type": "bool"
        }
      ],
      "stateMutability": "view",
      "type": "function"
    },
    {
      "inputs": [],
      "name": "symbol",
      "outputs": [
        {
          "internalType": "string",
          "name": "",
          "type": "string"
        }
      ],
      "stateMutability": "view",
      "type": "function"
    },
    {
      "inputs": [
        {
          "internalType": "uint256",
          "name": "index",
          "type": "uint256"
        }
      ],
      "name": "tokenByIndex",
      "outputs": [
        {
          "internalType": "uint256",
          "name": "",
          "type": "uint256"
        }
      ],
      "stateMutability": "view",
      "type": "function"
    },
    {
      "inputs": [
        {
          "internalType": "string",
          "name": "",
          "type": "string"
        }
      ],
      "name": "tokenNameExists",
      "outputs": [
        {
          "internalType": "bool",
          "name": "",
          "type": "bool"
        }
      ],
      "stateMutability": "view",
      "type": "function"
    },
    {
      "inputs": [
        {
          "internalType": "address",
          "name": "owner",
          "type": "address"
        },
        {
          "internalType": "uint256",
          "name": "index",
          "type": "uint256"
        }
      ],
      "name": "tokenOfOwnerByIndex",
      "outputs": [
        {
          "internalType": "uint256",
          "name": "",
          "type": "uint256"
        }
      ],
      "stateMutability": "view",
      "type": "function"
    },
    {
      "inputs": [
        {
          "internalType": "uint256",
          "name": "tokenId",
          "type": "uint256"
        }
      ],
      "name": "tokenURI",
      "outputs": [
        {
          "internalType": "string",
          "name": "",
          "type": "string"
        }
      ],
      "stateMutability": "view",
      "type": "function"
    },
    {
      "inputs": [
        {
          "internalType": "string",
          "name": "",
          "type": "string"
        }
      ],
      "name": "tokenURIExists",
      "outputs": [
        {
          "internalType": "bool",
          "name": "",
          "type": "bool"
        }
      ],
      "stateMutability": "view",
      "type": "function"
    },
    {
      "inputs": [],
      "name": "totalSupply",
      "outputs": [
        {
          "internalType": "uint256",
          "name": "",
          "type": "uint256"
        }
      ],
      "stateMutability": "view",
      "type": "function"
    },
    {
      "inputs": [
        {
          "internalType": "address",
          "name": "from",
          "type": "address"
        },
        {
          "internalType": "address",
          "name": "to",
          "type": "address"
        },
        {
          "internalType": "uint256",
          "name": "tokenId",
          "type": "uint256"
        }
      ],
      "name": "transferFrom",
      "outputs": [],
      "stateMutability": "nonpayable",
      "type": "function"
    },
    {
      "inputs": [
        {
          "internalType": "string",
          "name": "_name",
          "type": "string"
        },
        {
          "internalType": "string",
          "name": "_tokenURI",
          "type": "string"
        },
        {
          "internalType": "string",
          "name": "_unrevealedTokenURI",
          "type": "string"
        },
        {
          "internalType": "uint256",
          "name": "_price",
          "type": "uint256"
        }
      ],
      "name": "mintArt",
      "outputs": [],
      "stateMutability": "payable",
      "type": "function"
    },
    {
      "inputs": [],
      "name": "reveal",
      "outputs": [],
      "stateMutability": "nonpayable",
      "type": "function"
    },
    {
      "inputs": [
        {
          "internalType": "string",
          "name": "_notRevealedURI",
          "type": "string"
        }
      ],
      "name": "setNotRevealedURI",
      "outputs": [],
      "stateMutability": "nonpayable",
      "type": "function"
    },
    {
      "inputs": [
        {
          "internalType": "uint256",
          "name": "_tokenId",
          "type": "uint256"
        }
      ],
      "name": "getTokenOwner",
      "outputs": [
        {
          "internalType": "address",
          "name": "",
          "type": "address"
        }
      ],
      "stateMutability": "view",
      "type": "function"
    },
    {
      "inputs": [
        {
          "internalType": "uint256",
          "name": "_tokenId",
          "type": "uint256"
        }
      ],
      "name": "getTokenMetaData",
      "outputs": [
        {
          "internalType": "string",
          "name": "",
          "type": "string"
        }
      ],
      "stateMutability": "view",
      "type": "function"
    },
    {
      "inputs": [],
      "name": "getNumberOfTokensMinted",
      "outputs": [
        {
          "internalType": "uint256",
          "name": "",
          "type": "uint256"
        }
      ],
      "stateMutability": "view",
      "type": "function"
    },
    {
      "inputs": [
        {
          "internalType": "address",
          "name": "_owner",
          "type": "address"
        }
      ],
      "name": "getTotalNumberOfTokensOwnedByAnAddress",
      "outputs": [
        {
          "internalType": "uint256",
          "name": "",
          "type": "uint256"
        }
      ],
      "stateMutability": "view",
      "type": "function"
    },
    {
      "inputs": [
        {
          "internalType": "uint256",
          "name": "_tokenId",
          "type": "uint256"
        }
      ],
      "name": "getTokenExists",
      "outputs": [
        {
          "internalType": "bool",
          "name": "",
          "type": "bool"
        }
      ],
      "stateMutability": "view",
      "type": "function"
    }
  ],
  "bytecode": "0x60806040526000600c60006101000a81548160ff0219169083151502179055503480156200002c57600080fd5b506040518060400160405280600c81526020017f41727420576f726b204e465400000000000000000000000000000000000000008152506040518060400160405280600381526020017f4152540000000000000000000000000000000000000000000000000000000000815250620000b16301ffc9a760e01b6200013360201b60201c565b8160069080519060200190620000c99291906200020b565b508060079080519060200190620000e29291906200020b565b50620000fb6380ac58cd60e01b6200013360201b60201c565b62000113635b5e139f60e01b6200013360201b60201c565b6200012b63780e9d6360e01b6200013360201b60201c565b5050620003a3565b63ffffffff60e01b817bffffffffffffffffffffffffffffffffffffffffffffffffffffffff191614156200019f576040517f08c379a00000000000000000000000000000000000000000000000000000000081526004016200019690620002e2565b60405180910390fd5b6001600080837bffffffffffffffffffffffffffffffffffffffffffffffffffffffff19167bffffffffffffffffffffffffffffffffffffffffffffffffffffffff1916815260200190815260200160002060006101000a81548160ff02191690831515021790555050565b828054620002199062000315565b90600052602060002090601f0160209004810192826200023d576000855562000289565b82601f106200025857805160ff191683800117855562000289565b8280016001018555821562000289579182015b82811115620002885782518255916020019190600101906200026b565b5b5090506200029891906200029c565b5090565b5b80821115620002b75760008160009055506001016200029d565b5090565b6000620002ca601c8362000304565b9150620002d7826200037a565b602082019050919050565b60006020820190508181036000830152620002fd81620002bb565b9050919050565b600082825260208201905092915050565b600060028204905060018216806200032e57607f821691505b602082108114156200034557620003446200034b565b5b50919050565b7f4e487b7100000000000000000000000000000000000000000000000000000000600052602260045260246000fd5b7f4552433136353a20696e76616c696420696e7465726661636520696400000000600082015250565b61433b80620003b36000396000f3fe6080604052600436106101d85760003560e01c806367c623cf11610102578063a520aabb11610095578063c87b56dd11610064578063c87b56dd1461072b578063cc151f3a14610768578063e985e9c514610793578063f2c4ce1e146107d0576101d8565b8063a520aabb14610655578063a5cd761f1461069a578063a9ff3822146106d7578063b88d4fde14610702576101d8565b806395d89b41116100d157806395d89b41146105ad578063a22cb465146105d8578063a46b1fac14610601578063a475b5dd1461063e576101d8565b806367c623cf146104ec5780636c0360eb1461052957806370a08231146105545780637dece7af14610591576101d8565b806323b872dd1161017a57806343d32ae71161014957806343d32ae71461040a5780634f6ccce71461044757806351830227146104845780636352211e146104af576101d8565b806323b872dd1461033e5780632f745c591461036757806342842e0e146103a457806343902850146103cd576101d8565b8063081c8c44116101b6578063081c8c4414610282578063095ea7b3146102ad578063142687f3146102d657806318160ddd14610313576101d8565b806301ffc9a7146101dd57806306fdde031461021a578063081812fc14610245575b600080fd5b3480156101e957600080fd5b5061020460048036038101906101ff919061304c565b6107f9565b60405161021191906135f2565b60405180910390f35b34801561022657600080fd5b5061022f610860565b60405161023c919061360d565b60405180910390f35b34801561025157600080fd5b5061026c6004803603810190610267919061318a565b6108f2565b604051610279919061358b565b60405180910390f35b34801561028e57600080fd5b50610297610977565b6040516102a4919061360d565b60405180910390f35b3480156102b957600080fd5b506102d460048036038101906102cf9190613010565b610a05565b005b3480156102e257600080fd5b506102fd60048036038101906102f8919061318a565b610b1d565b60405161030a91906135f2565b60405180910390f35b34801561031f57600080fd5b50610328610b34565b604051610335919061386f565b60405180910390f35b34801561034a57600080fd5b5061036560048036038101906103609190612f0a565b610b45565b005b34801561037357600080fd5b5061038e60048036038101906103899190613010565b610ba5565b60405161039b919061386f565b60405180910390f35b3480156103b057600080fd5b506103cb60048036038101906103c69190612f0a565b610c00565b005b3480156103d957600080fd5b506103f460048036038101906103ef9190612ea5565b610c20565b604051610401919061386f565b60405180910390f35b34801561041657600080fd5b50610431600480360381019061042c919061309e565b610c37565b60405161043e91906135f2565b60405180910390f35b34801561045357600080fd5b5061046e6004803603810190610469919061318a565b610c6d565b60405161047b919061386f565b60405180910390f35b34801561049057600080fd5b50610499610c90565b6040516104a691906135f2565b60405180910390f35b3480156104bb57600080fd5b506104d660048036038101906104d1919061318a565b610ca3565b6040516104e3919061358b565b60405180910390f35b3480156104f857600080fd5b50610513600480360381019061050e919061318a565b610cda565b604051610520919061360d565b60405180910390f35b34801561053557600080fd5b5061053e610cf2565b60405161054b919061360d565b60405180910390f35b34801561056057600080fd5b5061057b60048036038101906105769190612ea5565b610d84565b604051610588919061386f565b60405180910390f35b6105ab60048036038101906105a691906130df565b610e43565b005b3480156105b957600080fd5b506105c26111be565b6040516105cf919061360d565b60405180910390f35b3480156105e457600080fd5b506105ff60048036038101906105fa9190612fd4565b611250565b005b34801561060d57600080fd5b506106286004803603810190610623919061309e565b6113d1565b60405161063591906135f2565b60405180910390f35b34801561064a57600080fd5b50610653611407565b005b34801561066157600080fd5b5061067c6004803603810190610677919061318a565b611526565b6040516106919998979695949392919061388a565b60405180910390f35b3480156106a657600080fd5b506106c160048036038101906106bc919061318a565b611779565b6040516106ce919061358b565b60405180910390f35b3480156106e357600080fd5b506106ec611790565b6040516106f9919061386f565b60405180910390f35b34801561070e57600080fd5b5061072960048036038101906107249190612f59565b611796565b005b34801561073757600080fd5b50610752600480360381019061074d919061318a565b6117f8565b60405161075f919061360d565b60405180910390f35b34801561077457600080fd5b5061077d61196b565b60405161078a919061386f565b60405180910390f35b34801561079f57600080fd5b506107ba60048036038101906107b59190612ece565b61197f565b6040516107c791906135f2565b60405180910390f35b3480156107dc57600080fd5b506107f760048036038101906107f2919061309e565b611a13565b005b6000806000837bffffffffffffffffffffffffffffffffffffffffffffffffffffffff19167bffffffffffffffffffffffffffffffffffffffffffffffffffffffff1916815260200190815260200160002060009054906101000a900460ff169050919050565b60606006805461086f90613bae565b80601f016020809104026020016040519081016040528092919081815260200182805461089b90613bae565b80156108e85780601f106108bd576101008083540402835291602001916108e8565b820191906000526020600020905b8154815290600101906020018083116108cb57829003601f168201915b5050505050905090565b60006108fd82611a2d565b61093c576040517f08c379a00000000000000000000000000000000000000000000000000000000081526004016109339061378f565b60405180910390fd5b6004600083815260200190815260200160002060009054906101000a900473ffffffffffffffffffffffffffffffffffffffff169050919050565b600b805461098490613bae565b80601f01602080910402602001604051908101604052809291908181526020018280546109b090613bae565b80156109fd5780601f106109d2576101008083540402835291602001916109fd565b820191906000526020600020905b8154815290600101906020018083116109e057829003601f168201915b505050505081565b6000610a1082610ca3565b90508073ffffffffffffffffffffffffffffffffffffffff168373ffffffffffffffffffffffffffffffffffffffff161415610a81576040517f08c379a0000000000000000000000000000000000000000000000000000000008152600401610a789061380f565b60405180910390fd5b8073ffffffffffffffffffffffffffffffffffffffff16610aa0611a4a565b73ffffffffffffffffffffffffffffffffffffffff161480610acf5750610ace81610ac9611a4a565b61197f565b5b610b0e576040517f08c379a0000000000000000000000000000000000000000000000000000000008152600401610b059061370f565b60405180910390fd5b610b188383611a52565b505050565b600080610b2983611a2d565b905080915050919050565b6000610b406002611b0b565b905090565b610b56610b50611a4a565b82611b20565b610b95576040517f08c379a0000000000000000000000000000000000000000000000000000000008152600401610b8c9061382f565b60405180910390fd5b610ba0838383611bfe565b505050565b6000610bf882600160008673ffffffffffffffffffffffffffffffffffffffff1673ffffffffffffffffffffffffffffffffffffffff168152602001908152602001600020611e1590919063ffffffff16565b905092915050565b610c1b83838360405180602001604052806000815250611796565b505050565b600080610c2c83610d84565b905080915050919050565b600f818051602081018201805184825260208301602085012081835280955050505050506000915054906101000a900460ff1681565b600080610c84836002611e2f90919063ffffffff16565b50905080915050919050565b600c60009054906101000a900460ff1681565b6000610cd3826040518060600160405280602981526020016142dd602991396002611e5b9092919063ffffffff16565b9050919050565b60606000610ce7836117f8565b905080915050919050565b606060098054610d0190613bae565b80601f0160208091040260200160405190810160405280929190818152602001828054610d2d90613bae565b8015610d7a5780601f10610d4f57610100808354040283529160200191610d7a565b820191906000526020600020905b815481529060010190602001808311610d5d57829003601f168201915b5050505050905090565b60008073ffffffffffffffffffffffffffffffffffffffff168273ffffffffffffffffffffffffffffffffffffffff161415610df5576040517f08c379a0000000000000000000000000000000000000000000000000000000008152600401610dec9061372f565b60405180910390fd5b610e3c600160008473ffffffffffffffffffffffffffffffffffffffff1673ffffffffffffffffffffffffffffffffffffffff168152602001908152602001600020611e7a565b9050919050565b600073ffffffffffffffffffffffffffffffffffffffff163373ffffffffffffffffffffffffffffffffffffffff161415610e7d57600080fd5b600a6000815480929190610e9090613c11565b9190505550610ea0600a54611a2d565b15610eaa57600080fd5b600f83604051610eba9190613550565b908152602001604051809103902060009054906101000a900460ff1615610ee057600080fd5b600e84604051610ef09190613550565b908152602001604051809103902060009054906101000a900460ff1615610f1657600080fd5b610f21600a54611a2d565b15610f2b57600080fd5b610f3733600a54611e8f565b610f43600a5484611ead565b6001600f84604051610f559190613550565b908152602001604051809103902060006101000a81548160ff0219169083151502179055506001600e85604051610f8c9190613550565b908152602001604051809103902060006101000a81548160ff0219169083151502179055506000604051806101200160405280600a5481526020018681526020018581526020018481526020013373ffffffffffffffffffffffffffffffffffffffff1681526020013373ffffffffffffffffffffffffffffffffffffffff168152602001600073ffffffffffffffffffffffffffffffffffffffff16815260200183815260200160011515815250905080600d6000600a548152602001908152602001600020600082015181600001556020820151816001019080519060200190611079929190612c3c565b506040820151816002019080519060200190611096929190612c3c565b5060608201518160030190805190602001906110b3929190612c3c565b5060808201518160040160006101000a81548173ffffffffffffffffffffffffffffffffffffffff021916908373ffffffffffffffffffffffffffffffffffffffff16021790555060a08201518160050160006101000a81548173ffffffffffffffffffffffffffffffffffffffff021916908373ffffffffffffffffffffffffffffffffffffffff16021790555060c08201518160060160006101000a81548173ffffffffffffffffffffffffffffffffffffffff021916908373ffffffffffffffffffffffffffffffffffffffff16021790555060e082015181600701556101008201518160080160006101000a81548160ff0219169083151502179055509050505050505050565b6060600780546111cd90613bae565b80601f01602080910402602001604051908101604052809291908181526020018280546111f990613bae565b80156112465780601f1061121b57610100808354040283529160200191611246565b820191906000526020600020905b81548152906001019060200180831161122957829003601f168201915b5050505050905090565b611258611a4a565b73ffffffffffffffffffffffffffffffffffffffff168273ffffffffffffffffffffffffffffffffffffffff1614156112c6576040517f08c379a00000000000000000000000000000000000000000000000000000000081526004016112bd906136af565b60405180910390fd5b80600560006112d3611a4a565b73ffffffffffffffffffffffffffffffffffffffff1673ffffffffffffffffffffffffffffffffffffffff16815260200190815260200160002060008473ffffffffffffffffffffffffffffffffffffffff1673ffffffffffffffffffffffffffffffffffffffff16815260200190815260200160002060006101000a81548160ff0219169083151502179055508173ffffffffffffffffffffffffffffffffffffffff16611380611a4a565b73ffffffffffffffffffffffffffffffffffffffff167f17307eab39ab6107e8899845ad3d59bd9653f200f220920489ca2b5937696c31836040516113c591906135f2565b60405180910390a35050565b600e818051602081018201805184825260208301602085012081835280955050505050506000915054906101000a900460ff1681565b6000600190505b6001600a5461141d9190613a01565b81101561152357600d6000828152602001908152602001600020600301600d600083815260200190815260200160002060020190805461145c90613bae565b611467929190612cc2565b5061151081600d6000848152602001908152602001600020600301805461148d90613bae565b80601f01602080910402602001604051908101604052809291908181526020018280546114b990613bae565b80156115065780601f106114db57610100808354040283529160200191611506565b820191906000526020600020905b8154815290600101906020018083116114e957829003601f168201915b5050505050611ead565b808061151b90613c11565b91505061140e565b50565b600d60205280600052604060002060009150905080600001549080600101805461154f90613bae565b80601f016020809104026020016040519081016040528092919081815260200182805461157b90613bae565b80156115c85780601f1061159d576101008083540402835291602001916115c8565b820191906000526020600020905b8154815290600101906020018083116115ab57829003601f168201915b5050505050908060020180546115dd90613bae565b80601f016020809104026020016040519081016040528092919081815260200182805461160990613bae565b80156116565780601f1061162b57610100808354040283529160200191611656565b820191906000526020600020905b81548152906001019060200180831161163957829003601f168201915b50505050509080600301805461166b90613bae565b80601f016020809104026020016040519081016040528092919081815260200182805461169790613bae565b80156116e45780601f106116b9576101008083540402835291602001916116e4565b820191906000526020600020905b8154815290600101906020018083116116c757829003601f168201915b5050505050908060040160009054906101000a900473ffffffffffffffffffffffffffffffffffffffff16908060050160009054906101000a900473ffffffffffffffffffffffffffffffffffffffff16908060060160009054906101000a900473ffffffffffffffffffffffffffffffffffffffff16908060070154908060080160009054906101000a900460ff16905089565b60008061178583610ca3565b905080915050919050565b600a5481565b6117a76117a1611a4a565b83611b20565b6117e6576040517f08c379a00000000000000000000000000000000000000000000000000000000081526004016117dd9061382f565b60405180910390fd5b6117f284848484611f21565b50505050565b606061180382611a2d565b611842576040517f08c379a0000000000000000000000000000000000000000000000000000000008152600401611839906137ef565b60405180910390fd5b600060086000848152602001908152602001600020805461186290613bae565b80601f016020809104026020016040519081016040528092919081815260200182805461188e90613bae565b80156118db5780601f106118b0576101008083540402835291602001916118db565b820191906000526020600020905b8154815290600101906020018083116118be57829003601f168201915b5050505050905060006118ec610cf2565b9050600081511415611902578192505050611966565b60008251111561193757808260405160200161191f929190613567565b60405160208183030381529060405292505050611966565b8061194185611f7d565b604051602001611952929190613567565b604051602081830303815290604052925050505b919050565b600080611976610b34565b90508091505090565b6000600560008473ffffffffffffffffffffffffffffffffffffffff1673ffffffffffffffffffffffffffffffffffffffff16815260200190815260200160002060008373ffffffffffffffffffffffffffffffffffffffff1673ffffffffffffffffffffffffffffffffffffffff16815260200190815260200160002060009054906101000a900460ff16905092915050565b80600b9080519060200190611a29929190612c3c565b5050565b6000611a4382600261213c90919063ffffffff16565b9050919050565b600033905090565b816004600083815260200190815260200160002060006101000a81548173ffffffffffffffffffffffffffffffffffffffff021916908373ffffffffffffffffffffffffffffffffffffffff160217905550808273ffffffffffffffffffffffffffffffffffffffff16611ac583610ca3565b73ffffffffffffffffffffffffffffffffffffffff167f8c5be1e5ebec7d5bd14f71427d1e84f3dd0314c0f7b2291e5b200ac8c7c3b92560405160405180910390a45050565b6000611b1982600001612156565b9050919050565b6000611b2b82611a2d565b611b6a576040517f08c379a0000000000000000000000000000000000000000000000000000000008152600401611b61906136ef565b60405180910390fd5b6000611b7583610ca3565b90508073ffffffffffffffffffffffffffffffffffffffff168473ffffffffffffffffffffffffffffffffffffffff161480611be457508373ffffffffffffffffffffffffffffffffffffffff16611bcc846108f2565b73ffffffffffffffffffffffffffffffffffffffff16145b80611bf55750611bf4818561197f565b5b91505092915050565b8273ffffffffffffffffffffffffffffffffffffffff16611c1e82610ca3565b73ffffffffffffffffffffffffffffffffffffffff1614611c74576040517f08c379a0000000000000000000000000000000000000000000000000000000008152600401611c6b906137cf565b60405180910390fd5b600073ffffffffffffffffffffffffffffffffffffffff168273ffffffffffffffffffffffffffffffffffffffff161415611ce4576040517f08c379a0000000000000000000000000000000000000000000000000000000008152600401611cdb9061368f565b60405180910390fd5b611cef838383612167565b611cfa600082611a52565b611d4b81600160008673ffffffffffffffffffffffffffffffffffffffff1673ffffffffffffffffffffffffffffffffffffffff16815260200190815260200160002061216c90919063ffffffff16565b50611d9d81600160008573ffffffffffffffffffffffffffffffffffffffff1673ffffffffffffffffffffffffffffffffffffffff16815260200190815260200160002061218690919063ffffffff16565b50611db4818360026121a09092919063ffffffff16565b50808273ffffffffffffffffffffffffffffffffffffffff168473ffffffffffffffffffffffffffffffffffffffff167fddf252ad1be2c89b69c2b068fc378daa952ba7f163c4a11628f55a4df523b3ef60405160405180910390a4505050565b6000611e2483600001836121d5565b60001c905092915050565b600080600080611e42866000018661226f565b915091508160001c8160001c9350935050509250929050565b6000611e6e846000018460001b8461231f565b60001c90509392505050565b6000611e88826000016123e6565b9050919050565b611ea98282604051806020016040528060008152506123f7565b5050565b611eb682611a2d565b611ef5576040517f08c379a0000000000000000000000000000000000000000000000000000000008152600401611eec906137af565b60405180910390fd5b80600860008481526020019081526020016000209080519060200190611f1c929190612c3c565b505050565b611f2c848484611bfe565b611f3884848484612452565b611f77576040517f08c379a0000000000000000000000000000000000000000000000000000000008152600401611f6e9061364f565b60405180910390fd5b50505050565b60606000821415611fc5576040518060400160405280600181526020017f30000000000000000000000000000000000000000000000000000000000000008152509050612137565b600082905060005b60008214611ff7578080611fe090613c11565b915050600a82611ff09190613a57565b9150611fcd565b60008167ffffffffffffffff811115612039577f4e487b7100000000000000000000000000000000000000000000000000000000600052604160045260246000fd5b6040519080825280601f01601f19166020018201604052801561206b5781602001600182028036833780820191505090505b509050600060018361207d9190613a88565b90508593505b6000841461212f57600a846120989190613c5a565b60306120a49190613a01565b60f81b8282806120b390613b84565b9350815181106120ec577f4e487b7100000000000000000000000000000000000000000000000000000000600052603260045260246000fd5b60200101907effffffffffffffffffffffffffffffffffffffffffffffffffffffffffffff1916908160001a905350600a846121289190613a57565b9350612083565b819450505050505b919050565b600061214e836000018360001b6125b6565b905092915050565b600081600001805490509050919050565b505050565b600061217e836000018360001b6125d9565b905092915050565b6000612198836000018360001b612763565b905092915050565b60006121cc846000018460001b8473ffffffffffffffffffffffffffffffffffffffff1660001b6127d3565b90509392505050565b600081836000018054905011612220576040517f08c379a00000000000000000000000000000000000000000000000000000000081526004016122179061362f565b60405180910390fd5b82600001828154811061225c577f4e487b7100000000000000000000000000000000000000000000000000000000600052603260045260246000fd5b9060005260206000200154905092915050565b600080828460000180549050116122bb576040517f08c379a00000000000000000000000000000000000000000000000000000000081526004016122b29061374f565b60405180910390fd5b60008460000184815481106122f9577f4e487b7100000000000000000000000000000000000000000000000000000000600052603260045260246000fd5b906000526020600020906002020190508060000154816001015492509250509250929050565b60008084600101600085815260200190815260200160002054905060008114158390612381576040517f08c379a0000000000000000000000000000000000000000000000000000000008152600401612378919061360d565b60405180910390fd5b50846000016001826123939190613a88565b815481106123ca577f4e487b7100000000000000000000000000000000000000000000000000000000600052603260045260246000fd5b9060005260206000209060020201600101549150509392505050565b600081600001805490509050919050565b61240183836128e5565b61240e6000848484612452565b61244d576040517f08c379a00000000000000000000000000000000000000000000000000000000081526004016124449061364f565b60405180910390fd5b505050565b60006124738473ffffffffffffffffffffffffffffffffffffffff16612a73565b61248057600190506125ae565b600061254763150b7a0260e01b612495611a4a565b8887876040516024016124ab94939291906135a6565b604051602081830303815290604052907bffffffffffffffffffffffffffffffffffffffffffffffffffffffff19166020820180517bffffffffffffffffffffffffffffffffffffffffffffffffffffffff83818316178352505050506040518060600160405280603281526020016142ab603291398773ffffffffffffffffffffffffffffffffffffffff16612a869092919063ffffffff16565b905060008180602001905181019061255f9190613075565b905063150b7a0260e01b7bffffffffffffffffffffffffffffffffffffffffffffffffffffffff1916817bffffffffffffffffffffffffffffffffffffffffffffffffffffffff191614925050505b949350505050565b600080836001016000848152602001908152602001600020541415905092915050565b6000808360010160008481526020019081526020016000205490506000811461275757600060018261260b9190613a88565b90506000600186600001805490506126239190613a88565b90506000866000018281548110612663577f4e487b7100000000000000000000000000000000000000000000000000000000600052603260045260246000fd5b90600052602060002001549050808760000184815481106126ad577f4e487b7100000000000000000000000000000000000000000000000000000000600052603260045260246000fd5b90600052602060002001819055506001836126c89190613a01565b876001016000838152602001908152602001600020819055508660000180548061271b577f4e487b7100000000000000000000000000000000000000000000000000000000600052603160045260246000fd5b6001900381819060005260206000200160009055905586600101600087815260200190815260200160002060009055600194505050505061275d565b60009150505b92915050565b600061276f8383612a9e565b6127c85782600001829080600181540180825580915050600190039060005260206000200160009091909190915055826000018054905083600101600084815260200190815260200160002081905550600190506127cd565b600090505b92915050565b600080846001016000858152602001908152602001600020549050600081141561287a578460000160405180604001604052808681526020018581525090806001815401808255809150506001900390600052602060002090600202016000909190919091506000820151816000015560208201518160010155505084600001805490508560010160008681526020019081526020016000208190555060019150506128de565b828560000160018361288c9190613a88565b815481106128c3577f4e487b7100000000000000000000000000000000000000000000000000000000600052603260045260246000fd5b90600052602060002090600202016001018190555060009150505b9392505050565b600073ffffffffffffffffffffffffffffffffffffffff168273ffffffffffffffffffffffffffffffffffffffff161415612955576040517f08c379a000000000000000000000000000000000000000000000000000000000815260040161294c9061376f565b60405180910390fd5b61295e81611a2d565b1561299e576040517f08c379a00000000000000000000000000000000000000000000000000000000081526004016129959061366f565b60405180910390fd5b6129aa60008383612167565b6129fb81600160008573ffffffffffffffffffffffffffffffffffffffff1673ffffffffffffffffffffffffffffffffffffffff16815260200190815260200160002061218690919063ffffffff16565b50612a12818360026121a09092919063ffffffff16565b50808273ffffffffffffffffffffffffffffffffffffffff16600073ffffffffffffffffffffffffffffffffffffffff167fddf252ad1be2c89b69c2b068fc378daa952ba7f163c4a11628f55a4df523b3ef60405160405180910390a45050565b600080823b905060008111915050919050565b6060612a958484600085612ac1565b90509392505050565b600080836001016000848152602001908152602001600020541415905092915050565b606082471015612b06576040517f08c379a0000000000000000000000000000000000000000000000000000000008152600401612afd906136cf565b60405180910390fd5b612b0f85612a73565b612b4e576040517f08c379a0000000000000000000000000000000000000000000000000000000008152600401612b459061384f565b60405180910390fd5b6000808673ffffffffffffffffffffffffffffffffffffffff168587604051612b779190613539565b60006040518083038185875af1925050503d8060008114612bb4576040519150601f19603f3d011682016040523d82523d6000602084013e612bb9565b606091505b5091509150612bc9828286612bd5565b92505050949350505050565b60608315612be557829050612c35565b600083511115612bf85782518084602001fd5b816040517f08c379a0000000000000000000000000000000000000000000000000000000008152600401612c2c919061360d565b60405180910390fd5b9392505050565b828054612c4890613bae565b90600052602060002090601f016020900481019282612c6a5760008555612cb1565b82601f10612c8357805160ff1916838001178555612cb1565b82800160010185558215612cb1579182015b82811115612cb0578251825591602001919060010190612c95565b5b509050612cbe9190612d4f565b5090565b828054612cce90613bae565b90600052602060002090601f016020900481019282612cf05760008555612d3e565b82601f10612d015780548555612d3e565b82800160010185558215612d3e57600052602060002091601f016020900482015b82811115612d3d578254825591600101919060010190612d22565b5b509050612d4b9190612d4f565b5090565b5b80821115612d68576000816000905550600101612d50565b5090565b6000612d7f612d7a84613951565b61392c565b905082815260208101848484011115612d9757600080fd5b612da2848285613b42565b509392505050565b6000612dbd612db884613982565b61392c565b905082815260208101848484011115612dd557600080fd5b612de0848285613b42565b509392505050565b600081359050612df78161424e565b92915050565b600081359050612e0c81614265565b92915050565b600081359050612e218161427c565b92915050565b600081519050612e368161427c565b92915050565b600082601f830112612e4d57600080fd5b8135612e5d848260208601612d6c565b91505092915050565b600082601f830112612e7757600080fd5b8135612e87848260208601612daa565b91505092915050565b600081359050612e9f81614293565b92915050565b600060208284031215612eb757600080fd5b6000612ec584828501612de8565b91505092915050565b60008060408385031215612ee157600080fd5b6000612eef85828601612de8565b9250506020612f0085828601612de8565b9150509250929050565b600080600060608486031215612f1f57600080fd5b6000612f2d86828701612de8565b9350506020612f3e86828701612de8565b9250506040612f4f86828701612e90565b9150509250925092565b60008060008060808587031215612f6f57600080fd5b6000612f7d87828801612de8565b9450506020612f8e87828801612de8565b9350506040612f9f87828801612e90565b925050606085013567ffffffffffffffff811115612fbc57600080fd5b612fc887828801612e3c565b91505092959194509250565b60008060408385031215612fe757600080fd5b6000612ff585828601612de8565b925050602061300685828601612dfd565b9150509250929050565b6000806040838503121561302357600080fd5b600061303185828601612de8565b925050602061304285828601612e90565b9150509250929050565b60006020828403121561305e57600080fd5b600061306c84828501612e12565b91505092915050565b60006020828403121561308757600080fd5b600061309584828501612e27565b91505092915050565b6000602082840312156130b057600080fd5b600082013567ffffffffffffffff8111156130ca57600080fd5b6130d684828501612e66565b91505092915050565b600080600080608085870312156130f557600080fd5b600085013567ffffffffffffffff81111561310f57600080fd5b61311b87828801612e66565b945050602085013567ffffffffffffffff81111561313857600080fd5b61314487828801612e66565b935050604085013567ffffffffffffffff81111561316157600080fd5b61316d87828801612e66565b925050606061317e87828801612e90565b91505092959194509250565b60006020828403121561319c57600080fd5b60006131aa84828501612e90565b91505092915050565b6131bc81613ace565b82525050565b6131cb81613abc565b82525050565b6131da81613ae0565b82525050565b60006131eb826139b3565b6131f581856139c9565b9350613205818560208601613b51565b61320e81613d47565b840191505092915050565b6000613224826139b3565b61322e81856139da565b935061323e818560208601613b51565b80840191505092915050565b6000613255826139be565b61325f81856139e5565b935061326f818560208601613b51565b61327881613d47565b840191505092915050565b600061328e826139be565b61329881856139f6565b93506132a8818560208601613b51565b80840191505092915050565b60006132c16022836139e5565b91506132cc82613d58565b604082019050919050565b60006132e46032836139e5565b91506132ef82613da7565b604082019050919050565b6000613307601c836139e5565b915061331282613df6565b602082019050919050565b600061332a6024836139e5565b915061333582613e1f565b604082019050919050565b600061334d6019836139e5565b915061335882613e6e565b602082019050919050565b60006133706026836139e5565b915061337b82613e97565b604082019050919050565b6000613393602c836139e5565b915061339e82613ee6565b604082019050919050565b60006133b66038836139e5565b91506133c182613f35565b604082019050919050565b60006133d9602a836139e5565b91506133e482613f84565b604082019050919050565b60006133fc6022836139e5565b915061340782613fd3565b604082019050919050565b600061341f6020836139e5565b915061342a82614022565b602082019050919050565b6000613442602c836139e5565b915061344d8261404b565b604082019050919050565b6000613465602c836139e5565b91506134708261409a565b604082019050919050565b60006134886029836139e5565b9150613493826140e9565b604082019050919050565b60006134ab602f836139e5565b91506134b682614138565b604082019050919050565b60006134ce6021836139e5565b91506134d982614187565b604082019050919050565b60006134f16031836139e5565b91506134fc826141d6565b604082019050919050565b6000613514601d836139e5565b915061351f82614225565b602082019050919050565b61353381613b38565b82525050565b60006135458284613219565b915081905092915050565b600061355c8284613283565b915081905092915050565b60006135738285613283565b915061357f8284613283565b91508190509392505050565b60006020820190506135a060008301846131c2565b92915050565b60006080820190506135bb60008301876131b3565b6135c860208301866131c2565b6135d5604083018561352a565b81810360608301526135e781846131e0565b905095945050505050565b600060208201905061360760008301846131d1565b92915050565b60006020820190508181036000830152613627818461324a565b905092915050565b60006020820190508181036000830152613648816132b4565b9050919050565b60006020820190508181036000830152613668816132d7565b9050919050565b60006020820190508181036000830152613688816132fa565b9050919050565b600060208201905081810360008301526136a88161331d565b9050919050565b600060208201905081810360008301526136c881613340565b9050919050565b600060208201905081810360008301526136e881613363565b9050919050565b6000602082019050818103600083015261370881613386565b9050919050565b60006020820190508181036000830152613728816133a9565b9050919050565b60006020820190508181036000830152613748816133cc565b9050919050565b60006020820190508181036000830152613768816133ef565b9050919050565b6000602082019050818103600083015261378881613412565b9050919050565b600060208201905081810360008301526137a881613435565b9050919050565b600060208201905081810360008301526137c881613458565b9050919050565b600060208201905081810360008301526137e88161347b565b9050919050565b600060208201905081810360008301526138088161349e565b9050919050565b60006020820190508181036000830152613828816134c1565b9050919050565b60006020820190508181036000830152613848816134e4565b9050919050565b6000602082019050818103600083015261386881613507565b9050919050565b6000602082019050613884600083018461352a565b92915050565b6000610120820190506138a0600083018c61352a565b81810360208301526138b2818b61324a565b905081810360408301526138c6818a61324a565b905081810360608301526138da818961324a565b90506138e960808301886131b3565b6138f660a08301876131b3565b61390360c08301866131b3565b61391060e083018561352a565b61391e6101008301846131d1565b9a9950505050505050505050565b6000613936613947565b90506139428282613be0565b919050565b6000604051905090565b600067ffffffffffffffff82111561396c5761396b613d18565b5b61397582613d47565b9050602081019050919050565b600067ffffffffffffffff82111561399d5761399c613d18565b5b6139a682613d47565b9050602081019050919050565b600081519050919050565b600081519050919050565b600082825260208201905092915050565b600081905092915050565b600082825260208201905092915050565b600081905092915050565b6000613a0c82613b38565b9150613a1783613b38565b9250827fffffffffffffffffffffffffffffffffffffffffffffffffffffffffffffffff03821115613a4c57613a4b613c8b565b5b828201905092915050565b6000613a6282613b38565b9150613a6d83613b38565b925082613a7d57613a7c613cba565b5b828204905092915050565b6000613a9382613b38565b9150613a9e83613b38565b925082821015613ab157613ab0613c8b565b5b828203905092915050565b6000613ac782613b18565b9050919050565b6000613ad982613b18565b9050919050565b60008115159050919050565b60007fffffffff0000000000000000000000000000000000000000000000000000000082169050919050565b600073ffffffffffffffffffffffffffffffffffffffff82169050919050565b6000819050919050565b82818337600083830152505050565b60005b83811015613b6f578082015181840152602081019050613b54565b83811115613b7e576000848401525b50505050565b6000613b8f82613b38565b91506000821415613ba357613ba2613c8b565b5b600182039050919050565b60006002820490506001821680613bc657607f821691505b60208210811415613bda57613bd9613ce9565b5b50919050565b613be982613d47565b810181811067ffffffffffffffff82111715613c0857613c07613d18565b5b80604052505050565b6000613c1c82613b38565b91507fffffffffffffffffffffffffffffffffffffffffffffffffffffffffffffffff821415613c4f57613c4e613c8b565b5b600182019050919050565b6000613c6582613b38565b9150613c7083613b38565b925082613c8057613c7f613cba565b5b828206905092915050565b7f4e487b7100000000000000000000000000000000000000000000000000000000600052601160045260246000fd5b7f4e487b7100000000000000000000000000000000000000000000000000000000600052601260045260246000fd5b7f4e487b7100000000000000000000000000000000000000000000000000000000600052602260045260246000fd5b7f4e487b7100000000000000000000000000000000000000000000000000000000600052604160045260246000fd5b6000601f19601f8301169050919050565b7f456e756d657261626c655365743a20696e646578206f7574206f6620626f756e60008201527f6473000000000000000000000000000000000000000000000000000000000000602082015250565b7f4552433732313a207472616e7366657220746f206e6f6e20455243373231526560008201527f63656976657220696d706c656d656e7465720000000000000000000000000000602082015250565b7f4552433732313a20746f6b656e20616c7265616479206d696e74656400000000600082015250565b7f4552433732313a207472616e7366657220746f20746865207a65726f2061646460008201527f7265737300000000000000000000000000000000000000000000000000000000602082015250565b7f4552433732313a20617070726f766520746f2063616c6c657200000000000000600082015250565b7f416464726573733a20696e73756666696369656e742062616c616e636520666f60008201527f722063616c6c0000000000000000000000000000000000000000000000000000602082015250565b7f4552433732313a206f70657261746f7220717565727920666f72206e6f6e657860008201527f697374656e7420746f6b656e0000000000000000000000000000000000000000602082015250565b7f4552433732313a20617070726f76652063616c6c6572206973206e6f74206f7760008201527f6e6572206e6f7220617070726f76656420666f7220616c6c0000000000000000602082015250565b7f4552433732313a2062616c616e636520717565727920666f7220746865207a6560008201527f726f206164647265737300000000000000000000000000000000000000000000602082015250565b7f456e756d657261626c654d61703a20696e646578206f7574206f6620626f756e60008201527f6473000000000000000000000000000000000000000000000000000000000000602082015250565b7f4552433732313a206d696e7420746f20746865207a65726f2061646472657373600082015250565b7f4552433732313a20617070726f76656420717565727920666f72206e6f6e657860008201527f697374656e7420746f6b656e0000000000000000000000000000000000000000602082015250565b7f4552433732314d657461646174613a2055524920736574206f66206e6f6e657860008201527f697374656e7420746f6b656e0000000000000000000000000000000000000000602082015250565b7f4552433732313a207472616e73666572206f6620746f6b656e2074686174206960008201527f73206e6f74206f776e0000000000000000000000000000000000000000000000602082015250565b7f4552433732314d657461646174613a2055524920717565727920666f72206e6f60008201527f6e6578697374656e7420746f6b656e0000000000000000000000000000000000602082015250565b7f4552433732313a20617070726f76616c20746f2063757272656e74206f776e6560008201527f7200000000000000000000000000000000000000000000000000000000000000602082015250565b7f4552433732313a207472616e736665722063616c6c6572206973206e6f74206f60008201527f776e6572206e6f7220617070726f766564000000000000000000000000000000602082015250565b7f416464726573733a2063616c6c20746f206e6f6e2d636f6e7472616374000000600082015250565b61425781613abc565b811461426257600080fd5b50565b61426e81613ae0565b811461427957600080fd5b50565b61428581613aec565b811461429057600080fd5b50565b61429c81613b38565b81146142a757600080fd5b5056fe4552433732313a207472616e7366657220746f206e6f6e20455243373231526563656976657220696d706c656d656e7465724552433732313a206f776e657220717565727920666f72206e6f6e6578697374656e7420746f6b656ea264697066735822122068c50ebf97cdb1a3745216eb4293070898b836c11fa900709294bd6ad2a0f09b64736f6c63430008030033",
  "immutableReferences": {},
  "source": "// SPDX-License-Identifier: MIT\r\npragma solidity >=0.4.22 <0.9.0;\r\n\r\n// import ERC721 interface\r\nimport \"./ERC721.sol\";\r\n// import \"@openzeppelin/contracts/access/Ownable.sol\";\r\n// import \"@openzeppelin/contracts/token/ERC721/ERC721.sol\";\r\n// import \"@openzeppelin/contracts/token/ERC721/extensions/ERC721Enumerable.sol\";\r\n\r\n// Arts smart contract inherits ERC721 Interface\r\ncontract Arts is ERC721 {\r\n    // string public collectionName;\r\n    // string public collectionSymbol;\r\n    uint256 public artCounter;\r\n    // string public baseURI;\r\n    // string public baseExtension = \".json\";\r\n    string public notRevealedUri;\r\n    bool public revealed = false;\r\n\r\n    // Defining Art struct\r\n    struct Art {\r\n        uint256 tokenId;\r\n        string tokenName;\r\n        string tokenURI;\r\n        string unrevealedTokenURI;\r\n        address payable mintedBy;\r\n        address payable currentOwner;\r\n        address payable previousOwner;\r\n        uint256 price;\r\n        bool forSale;\r\n    }\r\n\r\n    // map arts's token id to artwork\r\n    mapping(uint256 => Art) public allArts;\r\n    // check if token name exists\r\n    mapping(string => bool) public tokenNameExists;\r\n    // check if token URI exists\r\n    mapping(string => bool) public tokenURIExists;\r\n\r\n    // initialize contract while deployment with contract's collection name and token\r\n    constructor() ERC721(\"Art Work NFT\", \"ART\") {\r\n        // collectionName = name();\r\n        // collectionSymbol = symbol();\r\n    }\r\n\r\n    // internal\r\n    // function _baseURI() internal view virtual override returns (string memory) {\r\n    //     return baseURI;\r\n    // }\r\n\r\n    // Minting a new art function\r\n    function mintArt(\r\n        string memory _name,\r\n        string memory _tokenURI,\r\n        string memory _unrevealedTokenURI,\r\n        uint256 _price\r\n    ) public payable {\r\n        require(msg.sender != address(0));\r\n\r\n        artCounter++;\r\n\r\n        // Checking for requirements\r\n        require(!_exists(artCounter));\r\n        require(!tokenURIExists[_tokenURI]);\r\n        require(!tokenNameExists[_name]);\r\n        require(!_exists(artCounter));\r\n\r\n        // Mint the token here\r\n        _safeMint(msg.sender, artCounter);\r\n\r\n        // set token URI (bind token id with the passed in token URI)\r\n        _setTokenURI(artCounter, _tokenURI);\r\n        // make passed token URI as exists\r\n        tokenURIExists[_tokenURI] = true;\r\n        // make token name passed as exists\r\n        tokenNameExists[_name] = true;\r\n\r\n        // Create a new art and pass new values\r\n        Art memory newArt = Art(\r\n            artCounter,\r\n            _name,\r\n            _tokenURI,\r\n            _unrevealedTokenURI,\r\n            payable(msg.sender),\r\n            payable(msg.sender),\r\n            payable(address(0)),\r\n            _price,\r\n            true\r\n        );\r\n        allArts[artCounter] = newArt;\r\n    }\r\n\r\n    // Function for Custom token URI based on revealed concept. Overrided!!\r\n    // function tokenURI(uint256 tokenId)\r\n    //     public\r\n    //     view\r\n    //     virtual\r\n    //     override\r\n    //     returns (string memory)\r\n    // {\r\n    //     require(\r\n    //         _exists(tokenId),\r\n    //         \"ERC721Metadata: URI query for nonexistent token\"\r\n    //     );\r\n\r\n    //     if (revealed == false) {\r\n    //         return notRevealedUri;\r\n    //     }\r\n\r\n    //     string memory currentBaseURI = _baseURI();\r\n    //     return\r\n    //         bytes(currentBaseURI).length > 0\r\n    //             ? string(\r\n    //                 abi.encodePacked(\r\n    //                     currentBaseURI,\r\n    //                     // tokenId.toString()\r\n    //                     tokenId,\r\n    //                     // baseExtension\r\n    //                 )\r\n    //             )\r\n    //             : \"\";\r\n    // }\r\n\r\n    //ONLY OWNER FUNCTIONS BELOW\r\n\r\n    // reveal function\r\n    function reveal() public {\r\n        // revealed = true;\r\n        for(uint i=1; i<artCounter+1; i++){\r\n            // delete allArts[i].tokenURI;\r\n            allArts[i].tokenURI = allArts[i].unrevealedTokenURI;\r\n            _setTokenURI(i, allArts[i].unrevealedTokenURI);\r\n        }\r\n    }\r\n\r\n    // Set  not revealed URI\r\n    function setNotRevealedURI(string memory _notRevealedURI) public {\r\n        notRevealedUri = _notRevealedURI;\r\n    }\r\n\r\n    // function setBaseURI(string memory _newBaseURI) public onlyOwner {\r\n    //     baseURI = _newBaseURI;\r\n    // }\r\n\r\n    // Get owner of the token\r\n    function getTokenOwner(uint256 _tokenId) public view returns (address) {\r\n        address _tokenOwner = ownerOf(_tokenId);\r\n        return _tokenOwner;\r\n    }\r\n\r\n    // Get Metadata of the token\r\n    function getTokenMetaData(uint256 _tokenId)\r\n        public\r\n        view\r\n        returns (string memory)\r\n    {\r\n        string memory tokenMetaData = tokenURI(_tokenId);\r\n        return tokenMetaData;\r\n    }\r\n\r\n    // Get total number of tokens minted\r\n    function getNumberOfTokensMinted() public view returns (uint256) {\r\n        uint256 totalNumberOfTokensMinted = totalSupply();\r\n        return totalNumberOfTokensMinted;\r\n    }\r\n\r\n    // get total number of tokens owned by an address\r\n    function getTotalNumberOfTokensOwnedByAnAddress(address _owner)\r\n        public\r\n        view\r\n        returns (uint256)\r\n    {\r\n        uint256 totalNumberOfTokensOwned = balanceOf(_owner);\r\n        return totalNumberOfTokensOwned;\r\n    }\r\n\r\n    // check if the token already exists\r\n    function getTokenExists(uint256 _tokenId) public view returns (bool) {\r\n        bool tokenExists = _exists(_tokenId);\r\n        return tokenExists;\r\n    }\r\n\r\n    // Buy Art\r\n    // function buyArt(uint256 _tokenId) external payable {\r\n    //     require(\r\n    //         msg.value >= 50000000000000000,\r\n    //         \"Not enough ETH sent; check price!\"\r\n    //     );\r\n    //     transferFrom(ownerOf(_tokenId), msg.sender, _tokenId);\r\n    // }\r\n}\r\n",
  "sourcePath": "D:\\Shah Faisal\\Projects\\nft-marketplace-p2\\contracts\\Arts.sol",
  "compiler": {
    "name": "solc",
    "version": "0.8.3+commit.8d00100c.Emscripten.clang"
  },
  "schemaVersion": "3.4.3",
  "updatedAt": "2022-01-10T11:11:59.234Z",
  "devdoc": {
    "kind": "dev",
    "methods": {
      "approve(address,uint256)": {
        "details": "See {IERC721-approve}."
      },
      "balanceOf(address)": {
        "details": "See {IERC721-balanceOf}."
      },
      "baseURI()": {
        "details": "Returns the base URI set via {_setBaseURI}. This will be automatically added as a prefix in {tokenURI} to each token's URI, or to the token ID if no specific URI is set for that token ID."
      },
      "getApproved(uint256)": {
        "details": "See {IERC721-getApproved}."
      },
      "isApprovedForAll(address,address)": {
        "details": "See {IERC721-isApprovedForAll}."
      },
      "name()": {
        "details": "See {IERC721Metadata-name}."
      },
      "ownerOf(uint256)": {
        "details": "See {IERC721-ownerOf}."
      },
      "safeTransferFrom(address,address,uint256)": {
        "details": "See {IERC721-safeTransferFrom}."
      },
      "safeTransferFrom(address,address,uint256,bytes)": {
        "details": "See {IERC721-safeTransferFrom}."
      },
      "setApprovalForAll(address,bool)": {
        "details": "See {IERC721-setApprovalForAll}."
      },
      "supportsInterface(bytes4)": {
        "details": "See {IERC165-supportsInterface}. Time complexity O(1), guaranteed to always use less than 30 000 gas."
      },
      "symbol()": {
        "details": "See {IERC721Metadata-symbol}."
      },
      "tokenByIndex(uint256)": {
        "details": "See {IERC721Enumerable-tokenByIndex}."
      },
      "tokenOfOwnerByIndex(address,uint256)": {
        "details": "See {IERC721Enumerable-tokenOfOwnerByIndex}."
      },
      "tokenURI(uint256)": {
        "details": "See {IERC721Metadata-tokenURI}."
      },
      "totalSupply()": {
        "details": "See {IERC721Enumerable-totalSupply}."
      },
      "transferFrom(address,address,uint256)": {
        "details": "See {IERC721-transferFrom}."
      }
    },
    "version": 1
  },
  "userdoc": {
    "kind": "user",
    "methods": {},
    "version": 1
  }
}