{
  "contractName": "Arts",
  "abi": [
    {
      "inputs": [],
      "stateMutability": "nonpayable",
      "type": "constructor"
    },
    {
      "anonymous": false,
      "inputs": [
        {
          "indexed": true,
          "internalType": "address",
          "name": "owner",
          "type": "address"
        },
        {
          "indexed": true,
          "internalType": "address",
          "name": "approved",
          "type": "address"
        },
        {
          "indexed": true,
          "internalType": "uint256",
          "name": "tokenId",
          "type": "uint256"
        }
      ],
      "name": "Approval",
      "type": "event"
    },
    {
      "anonymous": false,
      "inputs": [
        {
          "indexed": true,
          "internalType": "address",
          "name": "owner",
          "type": "address"
        },
        {
          "indexed": true,
          "internalType": "address",
          "name": "operator",
          "type": "address"
        },
        {
          "indexed": false,
          "internalType": "bool",
          "name": "approved",
          "type": "bool"
        }
      ],
      "name": "ApprovalForAll",
      "type": "event"
    },
    {
      "anonymous": false,
      "inputs": [
        {
          "indexed": true,
          "internalType": "address",
          "name": "previousOwner",
          "type": "address"
        },
        {
          "indexed": true,
          "internalType": "address",
          "name": "newOwner",
          "type": "address"
        }
      ],
      "name": "OwnershipTransferred",
      "type": "event"
    },
    {
      "anonymous": false,
      "inputs": [
        {
          "indexed": true,
          "internalType": "address",
          "name": "from",
          "type": "address"
        },
        {
          "indexed": true,
          "internalType": "address",
          "name": "to",
          "type": "address"
        },
        {
          "indexed": true,
          "internalType": "uint256",
          "name": "tokenId",
          "type": "uint256"
        }
      ],
      "name": "Transfer",
      "type": "event"
    },
    {
      "inputs": [
        {
          "internalType": "uint256",
          "name": "",
          "type": "uint256"
        }
      ],
      "name": "allArts",
      "outputs": [
        {
          "internalType": "uint256",
          "name": "tokenId",
          "type": "uint256"
        },
        {
          "internalType": "string",
          "name": "tokenURI",
          "type": "string"
        },
        {
          "internalType": "string",
          "name": "unrevealedTokenURI",
          "type": "string"
        },
        {
          "internalType": "address",
          "name": "mintedBy",
          "type": "address"
        },
        {
          "internalType": "address",
          "name": "currentOwner",
          "type": "address"
        },
        {
          "internalType": "address",
          "name": "previousOwner",
          "type": "address"
        }
      ],
      "stateMutability": "view",
      "type": "function",
      "constant": true
    },
    {
      "inputs": [
        {
          "internalType": "address",
          "name": "to",
          "type": "address"
        },
        {
          "internalType": "uint256",
          "name": "tokenId",
          "type": "uint256"
        }
      ],
      "name": "approve",
      "outputs": [],
      "stateMutability": "nonpayable",
      "type": "function"
    },
    {
      "inputs": [],
      "name": "artCounter",
      "outputs": [
        {
          "internalType": "uint256",
          "name": "",
          "type": "uint256"
        }
      ],
      "stateMutability": "view",
      "type": "function",
      "constant": true
    },
    {
      "inputs": [
        {
          "internalType": "address",
          "name": "owner",
          "type": "address"
        }
      ],
      "name": "balanceOf",
      "outputs": [
        {
          "internalType": "uint256",
          "name": "",
          "type": "uint256"
        }
      ],
      "stateMutability": "view",
      "type": "function",
      "constant": true
    },
    {
      "inputs": [
        {
          "internalType": "uint256",
          "name": "tokenId",
          "type": "uint256"
        }
      ],
      "name": "getApproved",
      "outputs": [
        {
          "internalType": "address",
          "name": "",
          "type": "address"
        }
      ],
      "stateMutability": "view",
      "type": "function",
      "constant": true
    },
    {
      "inputs": [
        {
          "internalType": "address",
          "name": "owner",
          "type": "address"
        },
        {
          "internalType": "address",
          "name": "operator",
          "type": "address"
        }
      ],
      "name": "isApprovedForAll",
      "outputs": [
        {
          "internalType": "bool",
          "name": "",
          "type": "bool"
        }
      ],
      "stateMutability": "view",
      "type": "function",
      "constant": true
    },
    {
      "inputs": [],
      "name": "name",
      "outputs": [
        {
          "internalType": "string",
          "name": "",
          "type": "string"
        }
      ],
      "stateMutability": "view",
      "type": "function",
      "constant": true
    },
    {
      "inputs": [],
      "name": "notRevealedUri",
      "outputs": [
        {
          "internalType": "string",
          "name": "",
          "type": "string"
        }
      ],
      "stateMutability": "view",
      "type": "function",
      "constant": true
    },
    {
      "inputs": [],
      "name": "owner",
      "outputs": [
        {
          "internalType": "address",
          "name": "",
          "type": "address"
        }
      ],
      "stateMutability": "view",
      "type": "function",
      "constant": true
    },
    {
      "inputs": [
        {
          "internalType": "uint256",
          "name": "tokenId",
          "type": "uint256"
        }
      ],
      "name": "ownerOf",
      "outputs": [
        {
          "internalType": "address",
          "name": "",
          "type": "address"
        }
      ],
      "stateMutability": "view",
      "type": "function",
      "constant": true
    },
    {
      "inputs": [],
      "name": "renounceOwnership",
      "outputs": [],
      "stateMutability": "nonpayable",
      "type": "function"
    },
    {
      "inputs": [],
      "name": "revealed",
      "outputs": [
        {
          "internalType": "bool",
          "name": "",
          "type": "bool"
        }
      ],
      "stateMutability": "view",
      "type": "function",
      "constant": true
    },
    {
      "inputs": [
        {
          "internalType": "address",
          "name": "from",
          "type": "address"
        },
        {
          "internalType": "address",
          "name": "to",
          "type": "address"
        },
        {
          "internalType": "uint256",
          "name": "tokenId",
          "type": "uint256"
        }
      ],
      "name": "safeTransferFrom",
      "outputs": [],
      "stateMutability": "nonpayable",
      "type": "function"
    },
    {
      "inputs": [
        {
          "internalType": "address",
          "name": "from",
          "type": "address"
        },
        {
          "internalType": "address",
          "name": "to",
          "type": "address"
        },
        {
          "internalType": "uint256",
          "name": "tokenId",
          "type": "uint256"
        },
        {
          "internalType": "bytes",
          "name": "_data",
          "type": "bytes"
        }
      ],
      "name": "safeTransferFrom",
      "outputs": [],
      "stateMutability": "nonpayable",
      "type": "function"
    },
    {
      "inputs": [
        {
          "internalType": "address",
          "name": "operator",
          "type": "address"
        },
        {
          "internalType": "bool",
          "name": "approved",
          "type": "bool"
        }
      ],
      "name": "setApprovalForAll",
      "outputs": [],
      "stateMutability": "nonpayable",
      "type": "function"
    },
    {
      "inputs": [
        {
          "internalType": "bytes4",
          "name": "interfaceId",
          "type": "bytes4"
        }
      ],
      "name": "supportsInterface",
      "outputs": [
        {
          "internalType": "bool",
          "name": "",
          "type": "bool"
        }
      ],
      "stateMutability": "view",
      "type": "function",
      "constant": true
    },
    {
      "inputs": [],
      "name": "symbol",
      "outputs": [
        {
          "internalType": "string",
          "name": "",
          "type": "string"
        }
      ],
      "stateMutability": "view",
      "type": "function",
      "constant": true
    },
    {
      "inputs": [
        {
          "internalType": "uint256",
          "name": "index",
          "type": "uint256"
        }
      ],
      "name": "tokenByIndex",
      "outputs": [
        {
          "internalType": "uint256",
          "name": "",
          "type": "uint256"
        }
      ],
      "stateMutability": "view",
      "type": "function",
      "constant": true
    },
    {
      "inputs": [
        {
          "internalType": "string",
          "name": "",
          "type": "string"
        }
      ],
      "name": "tokenNameExists",
      "outputs": [
        {
          "internalType": "bool",
          "name": "",
          "type": "bool"
        }
      ],
      "stateMutability": "view",
      "type": "function",
      "constant": true
    },
    {
      "inputs": [
        {
          "internalType": "address",
          "name": "owner",
          "type": "address"
        },
        {
          "internalType": "uint256",
          "name": "index",
          "type": "uint256"
        }
      ],
      "name": "tokenOfOwnerByIndex",
      "outputs": [
        {
          "internalType": "uint256",
          "name": "",
          "type": "uint256"
        }
      ],
      "stateMutability": "view",
      "type": "function",
      "constant": true
    },
    {
      "inputs": [
        {
          "internalType": "string",
          "name": "",
          "type": "string"
        }
      ],
      "name": "tokenURIExists",
      "outputs": [
        {
          "internalType": "bool",
          "name": "",
          "type": "bool"
        }
      ],
      "stateMutability": "view",
      "type": "function",
      "constant": true
    },
    {
      "inputs": [],
      "name": "totalSupply",
      "outputs": [
        {
          "internalType": "uint256",
          "name": "",
          "type": "uint256"
        }
      ],
      "stateMutability": "view",
      "type": "function",
      "constant": true
    },
    {
      "inputs": [
        {
          "internalType": "address",
          "name": "from",
          "type": "address"
        },
        {
          "internalType": "address",
          "name": "to",
          "type": "address"
        },
        {
          "internalType": "uint256",
          "name": "tokenId",
          "type": "uint256"
        }
      ],
      "name": "transferFrom",
      "outputs": [],
      "stateMutability": "nonpayable",
      "type": "function"
    },
    {
      "inputs": [
        {
          "internalType": "address",
          "name": "newOwner",
          "type": "address"
        }
      ],
      "name": "transferOwnership",
      "outputs": [],
      "stateMutability": "nonpayable",
      "type": "function"
    },
    {
      "inputs": [
        {
          "internalType": "string",
          "name": "baseURI_",
          "type": "string"
        }
      ],
      "name": "setBaseURI",
      "outputs": [],
      "stateMutability": "nonpayable",
      "type": "function"
    },
    {
      "inputs": [
        {
          "internalType": "uint256",
          "name": "tokenId",
          "type": "uint256"
        }
      ],
      "name": "tokenURI",
      "outputs": [
        {
          "internalType": "string",
          "name": "",
          "type": "string"
        }
      ],
      "stateMutability": "view",
      "type": "function",
      "constant": true
    },
    {
      "inputs": [
        {
          "internalType": "bool",
          "name": "_state",
          "type": "bool"
        }
      ],
      "name": "reveal",
      "outputs": [],
      "stateMutability": "nonpayable",
      "type": "function"
    },
    {
      "inputs": [
        {
          "internalType": "string",
          "name": "_notRevealedURI",
          "type": "string"
        }
      ],
      "name": "setNotRevealedURI",
      "outputs": [],
      "stateMutability": "nonpayable",
      "type": "function"
    },
    {
      "inputs": [
        {
          "internalType": "string",
          "name": "_tokenURI",
          "type": "string"
        }
      ],
      "name": "mintArt",
      "outputs": [],
      "stateMutability": "payable",
      "type": "function",
      "payable": true
    },
    {
      "inputs": [
        {
          "internalType": "uint256",
          "name": "_tokenId",
          "type": "uint256"
        }
      ],
      "name": "getTokenOwner",
      "outputs": [
        {
          "internalType": "address",
          "name": "",
          "type": "address"
        }
      ],
      "stateMutability": "view",
      "type": "function",
      "constant": true
    },
    {
      "inputs": [
        {
          "internalType": "uint256",
          "name": "_tokenId",
          "type": "uint256"
        }
      ],
      "name": "getTokenMetaData",
      "outputs": [
        {
          "internalType": "string",
          "name": "",
          "type": "string"
        }
      ],
      "stateMutability": "view",
      "type": "function",
      "constant": true
    },
    {
      "inputs": [],
      "name": "getNumberOfTokensMinted",
      "outputs": [
        {
          "internalType": "uint256",
          "name": "",
          "type": "uint256"
        }
      ],
      "stateMutability": "view",
      "type": "function",
      "constant": true
    },
    {
      "inputs": [
        {
          "internalType": "address",
          "name": "_owner",
          "type": "address"
        }
      ],
      "name": "getTotalNumberOfTokensOwnedByAnAddress",
      "outputs": [
        {
          "internalType": "uint256",
          "name": "",
          "type": "uint256"
        }
      ],
      "stateMutability": "view",
      "type": "function",
      "constant": true
    },
    {
      "inputs": [
        {
          "internalType": "uint256",
          "name": "_tokenId",
          "type": "uint256"
        }
      ],
      "name": "getTokenExists",
      "outputs": [
        {
          "internalType": "bool",
          "name": "",
          "type": "bool"
        }
      ],
      "stateMutability": "view",
      "type": "function",
      "constant": true
    }
  ],
  "bytecode": "0x608060405260405180602001604052806000815250600c90805190602001906200002b9291906200022d565b506000600e60006101000a81548160ff0219169083151502179055503480156200005457600080fd5b506040518060400160405280600d81526020017f42656175746966756c20417274000000000000000000000000000000000000008152506040518060400160405280600381526020017f4152540000000000000000000000000000000000000000000000000000000000815250620000e1620000d56200014560201b60201c565b6200014d60201b60201c565b8160019080519060200190620000f99291906200022d565b508060029080519060200190620001129291906200022d565b5050506200013f6040518060800160405280604a8152602001620043e8604a91396200021160201b60201c565b62000342565b600033905090565b60008060009054906101000a900473ffffffffffffffffffffffffffffffffffffffff169050816000806101000a81548173ffffffffffffffffffffffffffffffffffffffff021916908373ffffffffffffffffffffffffffffffffffffffff1602179055508173ffffffffffffffffffffffffffffffffffffffff168173ffffffffffffffffffffffffffffffffffffffff167f8be0079c531659141344cd1fd0a4f28419497f9722a3daafe3b4186f6b6457e060405160405180910390a35050565b80600d9080519060200190620002299291906200022d565b5050565b8280546200023b906200030c565b90600052602060002090601f0160209004810192826200025f5760008555620002ab565b82601f106200027a57805160ff1916838001178555620002ab565b82800160010185558215620002ab579182015b82811115620002aa5782518255916020019190600101906200028d565b5b509050620002ba9190620002be565b5090565b5b80821115620002d9576000816000905550600101620002bf565b5090565b7f4e487b7100000000000000000000000000000000000000000000000000000000600052602260045260246000fd5b600060028204905060018216806200032557607f821691505b602082108114156200033c576200033b620002dd565b5b50919050565b61409680620003526000396000f3fe6080604052600436106101f95760003560e01c806370a082311161010d578063a520aabb116100a0578063c87b56dd1161006f578063c87b56dd1461079b578063cc151f3a146107d8578063e985e9c514610803578063f2c4ce1e14610840578063f2fde38b14610869576101f9565b8063a520aabb146106c8578063a5cd761f1461070a578063a9ff382214610747578063b88d4fde14610772576101f9565b8063940cd05b116100dc578063940cd05b1461060e57806395d89b4114610637578063a22cb46514610662578063a46b1fac1461068b576101f9565b806370a0823114610573578063715018a6146105b0578063818d5836146105c75780638da5cb5b146105e3576101f9565b80632f745c59116101905780634f6ccce71161015f5780634f6ccce71461046857806351830227146104a557806355f804b3146104d05780636352211e146104f957806367c623cf14610536576101f9565b80632f745c591461038857806342842e0e146103c557806343902850146103ee57806343d32ae71461042b576101f9565b8063095ea7b3116101cc578063095ea7b3146102ce578063142687f3146102f757806318160ddd1461033457806323b872dd1461035f576101f9565b806301ffc9a7146101fe57806306fdde031461023b578063081812fc14610266578063081c8c44146102a3575b600080fd5b34801561020a57600080fd5b5061022560048036038101906102209190612c4e565b610892565b6040516102329190612c96565b60405180910390f35b34801561024757600080fd5b5061025061090c565b60405161025d9190612d4a565b60405180910390f35b34801561027257600080fd5b5061028d60048036038101906102889190612da2565b61099e565b60405161029a9190612e10565b60405180910390f35b3480156102af57600080fd5b506102b8610a23565b6040516102c59190612d4a565b60405180910390f35b3480156102da57600080fd5b506102f560048036038101906102f09190612e57565b610ab1565b005b34801561030357600080fd5b5061031e60048036038101906103199190612da2565b610bc9565b60405161032b9190612c96565b60405180910390f35b34801561034057600080fd5b50610349610be0565b6040516103569190612ea6565b60405180910390f35b34801561036b57600080fd5b5061038660048036038101906103819190612ec1565b610bed565b005b34801561039457600080fd5b506103af60048036038101906103aa9190612e57565b610c4d565b6040516103bc9190612ea6565b60405180910390f35b3480156103d157600080fd5b506103ec60048036038101906103e79190612ec1565b610cf2565b005b3480156103fa57600080fd5b5061041560048036038101906104109190612f14565b610d12565b6040516104229190612ea6565b60405180910390f35b34801561043757600080fd5b50610452600480360381019061044d9190613076565b610d29565b60405161045f9190612c96565b60405180910390f35b34801561047457600080fd5b5061048f600480360381019061048a9190612da2565b610d5f565b60405161049c9190612ea6565b60405180910390f35b3480156104b157600080fd5b506104ba610dd0565b6040516104c79190612c96565b60405180910390f35b3480156104dc57600080fd5b506104f760048036038101906104f29190613076565b610de3565b005b34801561050557600080fd5b50610520600480360381019061051b9190612da2565b610dfd565b60405161052d9190612e10565b60405180910390f35b34801561054257600080fd5b5061055d60048036038101906105589190612da2565b610eaf565b60405161056a9190612d4a565b60405180910390f35b34801561057f57600080fd5b5061059a60048036038101906105959190612f14565b610ec7565b6040516105a79190612ea6565b60405180910390f35b3480156105bc57600080fd5b506105c5610f7f565b005b6105e160048036038101906105dc9190613076565b611007565b005b3480156105ef57600080fd5b506105f861133e565b6040516106059190612e10565b60405180910390f35b34801561061a57600080fd5b50610635600480360381019061063091906130eb565b611367565b005b34801561064357600080fd5b5061064c611384565b6040516106599190612d4a565b60405180910390f35b34801561066e57600080fd5b5061068960048036038101906106849190613118565b611416565b005b34801561069757600080fd5b506106b260048036038101906106ad9190613076565b61142c565b6040516106bf9190612c96565b60405180910390f35b3480156106d457600080fd5b506106ef60048036038101906106ea9190612da2565b611462565b60405161070196959493929190613158565b60405180910390f35b34801561071657600080fd5b50610731600480360381019061072c9190612da2565b61160e565b60405161073e9190612e10565b60405180910390f35b34801561075357600080fd5b5061075c611625565b6040516107699190612ea6565b60405180910390f35b34801561077e57600080fd5b5061079960048036038101906107949190613268565b61162b565b005b3480156107a757600080fd5b506107c260048036038101906107bd9190612da2565b61168d565b6040516107cf9190612d4a565b60405180910390f35b3480156107e457600080fd5b506107ed61183e565b6040516107fa9190612ea6565b60405180910390f35b34801561080f57600080fd5b5061082a600480360381019061082591906132eb565b611852565b6040516108379190612c96565b60405180910390f35b34801561084c57600080fd5b5061086760048036038101906108629190613076565b6118e6565b005b34801561087557600080fd5b50610890600480360381019061088b9190612f14565b611900565b005b60007f780e9d63000000000000000000000000000000000000000000000000000000007bffffffffffffffffffffffffffffffffffffffffffffffffffffffff1916827bffffffffffffffffffffffffffffffffffffffffffffffffffffffff191614806109055750610904826119f8565b5b9050919050565b60606001805461091b9061335a565b80601f01602080910402602001604051908101604052809291908181526020018280546109479061335a565b80156109945780601f1061096957610100808354040283529160200191610994565b820191906000526020600020905b81548152906001019060200180831161097757829003601f168201915b5050505050905090565b60006109a982611ada565b6109e8576040517f08c379a00000000000000000000000000000000000000000000000000000000081526004016109df906133fe565b60405180910390fd5b6005600083815260200190815260200160002060009054906101000a900473ffffffffffffffffffffffffffffffffffffffff169050919050565b600d8054610a309061335a565b80601f0160208091040260200160405190810160405280929190818152602001828054610a5c9061335a565b8015610aa95780601f10610a7e57610100808354040283529160200191610aa9565b820191906000526020600020905b815481529060010190602001808311610a8c57829003601f168201915b505050505081565b6000610abc82610dfd565b90508073ffffffffffffffffffffffffffffffffffffffff168373ffffffffffffffffffffffffffffffffffffffff161415610b2d576040517f08c379a0000000000000000000000000000000000000000000000000000000008152600401610b2490613490565b60405180910390fd5b8073ffffffffffffffffffffffffffffffffffffffff16610b4c611b46565b73ffffffffffffffffffffffffffffffffffffffff161480610b7b5750610b7a81610b75611b46565b611852565b5b610bba576040517f08c379a0000000000000000000000000000000000000000000000000000000008152600401610bb190613522565b60405180910390fd5b610bc48383611b4e565b505050565b600080610bd583611ada565b905080915050919050565b6000600980549050905090565b610bfe610bf8611b46565b82611c07565b610c3d576040517f08c379a0000000000000000000000000000000000000000000000000000000008152600401610c34906135b4565b60405180910390fd5b610c48838383611ce5565b505050565b6000610c5883610ec7565b8210610c99576040517f08c379a0000000000000000000000000000000000000000000000000000000008152600401610c9090613646565b60405180910390fd5b600760008473ffffffffffffffffffffffffffffffffffffffff1673ffffffffffffffffffffffffffffffffffffffff168152602001908152602001600020600083815260200190815260200160002054905092915050565b610d0d8383836040518060200160405280600081525061162b565b505050565b600080610d1e83610ec7565b905080915050919050565b6012818051602081018201805184825260208301602085012081835280955050505050506000915054906101000a900460ff1681565b6000610d69610be0565b8210610daa576040517f08c379a0000000000000000000000000000000000000000000000000000000008152600401610da1906136d8565b60405180910390fd5b60098281548110610dbe57610dbd6136f8565b5b90600052602060002001549050919050565b600e60009054906101000a900460ff1681565b80600c9080519060200190610df9929190612b3f565b5050565b6000806003600084815260200190815260200160002060009054906101000a900473ffffffffffffffffffffffffffffffffffffffff169050600073ffffffffffffffffffffffffffffffffffffffff168173ffffffffffffffffffffffffffffffffffffffff161415610ea6576040517f08c379a0000000000000000000000000000000000000000000000000000000008152600401610e9d90613799565b60405180910390fd5b80915050919050565b60606000610ebc8361168d565b905080915050919050565b60008073ffffffffffffffffffffffffffffffffffffffff168273ffffffffffffffffffffffffffffffffffffffff161415610f38576040517f08c379a0000000000000000000000000000000000000000000000000000000008152600401610f2f9061382b565b60405180910390fd5b600460008373ffffffffffffffffffffffffffffffffffffffff1673ffffffffffffffffffffffffffffffffffffffff168152602001908152602001600020549050919050565b610f87611b46565b73ffffffffffffffffffffffffffffffffffffffff16610fa561133e565b73ffffffffffffffffffffffffffffffffffffffff1614610ffb576040517f08c379a0000000000000000000000000000000000000000000000000000000008152600401610ff290613897565b60405180910390fd5b6110056000611f41565b565b600073ffffffffffffffffffffffffffffffffffffffff163373ffffffffffffffffffffffffffffffffffffffff16141561104157600080fd5b600b6000815480929190611054906138e6565b9190505550611064600b54611ada565b1561106e57600080fd5b60128160405161107e919061396b565b908152602001604051809103902060009054906101000a900460ff16156110a457600080fd5b6110af600b54611ada565b156110b957600080fd5b6110c533600b54612005565b6110d1600b5482612023565b60016012826040516110e3919061396b565b908152602001604051809103902060006101000a81548160ff02191690831515021790555060006040518060c00160405280600b548152602001838152602001600d80546111309061335a565b80601f016020809104026020016040519081016040528092919081815260200182805461115c9061335a565b80156111a95780601f1061117e576101008083540402835291602001916111a9565b820191906000526020600020905b81548152906001019060200180831161118c57829003601f168201915b505050505081526020013373ffffffffffffffffffffffffffffffffffffffff1681526020013373ffffffffffffffffffffffffffffffffffffffff168152602001600073ffffffffffffffffffffffffffffffffffffffff1681525090508060106000600b548152602001908152602001600020600082015181600001556020820151816001019080519060200190611244929190612b3f565b506040820151816002019080519060200190611261929190612b3f565b5060608201518160030160006101000a81548173ffffffffffffffffffffffffffffffffffffffff021916908373ffffffffffffffffffffffffffffffffffffffff16021790555060808201518160040160006101000a81548173ffffffffffffffffffffffffffffffffffffffff021916908373ffffffffffffffffffffffffffffffffffffffff16021790555060a08201518160050160006101000a81548173ffffffffffffffffffffffffffffffffffffffff021916908373ffffffffffffffffffffffffffffffffffffffff1602179055509050505050565b60008060009054906101000a900473ffffffffffffffffffffffffffffffffffffffff16905090565b80600e60006101000a81548160ff02191690831515021790555050565b6060600280546113939061335a565b80601f01602080910402602001604051908101604052809291908181526020018280546113bf9061335a565b801561140c5780601f106113e15761010080835404028352916020019161140c565b820191906000526020600020905b8154815290600101906020018083116113ef57829003601f168201915b5050505050905090565b611428611421611b46565b8383612097565b5050565b6011818051602081018201805184825260208301602085012081835280955050505050506000915054906101000a900460ff1681565b601060205280600052604060002060009150905080600001549080600101805461148b9061335a565b80601f01602080910402602001604051908101604052809291908181526020018280546114b79061335a565b80156115045780601f106114d957610100808354040283529160200191611504565b820191906000526020600020905b8154815290600101906020018083116114e757829003601f168201915b5050505050908060020180546115199061335a565b80601f01602080910402602001604051908101604052809291908181526020018280546115459061335a565b80156115925780601f1061156757610100808354040283529160200191611592565b820191906000526020600020905b81548152906001019060200180831161157557829003601f168201915b5050505050908060030160009054906101000a900473ffffffffffffffffffffffffffffffffffffffff16908060040160009054906101000a900473ffffffffffffffffffffffffffffffffffffffff16908060050160009054906101000a900473ffffffffffffffffffffffffffffffffffffffff16905086565b60008061161a83610dfd565b905080915050919050565b600b5481565b61163c611636611b46565b83611c07565b61167b576040517f08c379a0000000000000000000000000000000000000000000000000000000008152600401611672906135b4565b60405180910390fd5b61168784848484612204565b50505050565b606061169882611ada565b6116d7576040517f08c379a00000000000000000000000000000000000000000000000000000000081526004016116ce906139f4565b60405180910390fd5b6000600f600084815260200190815260200160002080546116f79061335a565b80601f01602080910402602001604051908101604052809291908181526020018280546117239061335a565b80156117705780601f1061174557610100808354040283529160200191611770565b820191906000526020600020905b81548152906001019060200180831161175357829003601f168201915b505050505090506000611781612260565b905060001515600e60009054906101000a900460ff161515141561183357600d80546117ac9061335a565b80601f01602080910402602001604051908101604052809291908181526020018280546117d89061335a565b80156118255780601f106117fa57610100808354040283529160200191611825565b820191906000526020600020905b81548152906001019060200180831161180857829003601f168201915b505050505092505050611839565b81925050505b919050565b600080611849610be0565b90508091505090565b6000600660008473ffffffffffffffffffffffffffffffffffffffff1673ffffffffffffffffffffffffffffffffffffffff16815260200190815260200160002060008373ffffffffffffffffffffffffffffffffffffffff1673ffffffffffffffffffffffffffffffffffffffff16815260200190815260200160002060009054906101000a900460ff16905092915050565b80600d90805190602001906118fc929190612b3f565b5050565b611908611b46565b73ffffffffffffffffffffffffffffffffffffffff1661192661133e565b73ffffffffffffffffffffffffffffffffffffffff161461197c576040517f08c379a000000000000000000000000000000000000000000000000000000000815260040161197390613897565b60405180910390fd5b600073ffffffffffffffffffffffffffffffffffffffff168173ffffffffffffffffffffffffffffffffffffffff1614156119ec576040517f08c379a00000000000000000000000000000000000000000000000000000000081526004016119e390613a86565b60405180910390fd5b6119f581611f41565b50565b60007f80ac58cd000000000000000000000000000000000000000000000000000000007bffffffffffffffffffffffffffffffffffffffffffffffffffffffff1916827bffffffffffffffffffffffffffffffffffffffffffffffffffffffff19161480611ac357507f5b5e139f000000000000000000000000000000000000000000000000000000007bffffffffffffffffffffffffffffffffffffffffffffffffffffffff1916827bffffffffffffffffffffffffffffffffffffffffffffffffffffffff1916145b80611ad35750611ad2826122f2565b5b9050919050565b60008073ffffffffffffffffffffffffffffffffffffffff166003600084815260200190815260200160002060009054906101000a900473ffffffffffffffffffffffffffffffffffffffff1673ffffffffffffffffffffffffffffffffffffffff1614159050919050565b600033905090565b816005600083815260200190815260200160002060006101000a81548173ffffffffffffffffffffffffffffffffffffffff021916908373ffffffffffffffffffffffffffffffffffffffff160217905550808273ffffffffffffffffffffffffffffffffffffffff16611bc183610dfd565b73ffffffffffffffffffffffffffffffffffffffff167f8c5be1e5ebec7d5bd14f71427d1e84f3dd0314c0f7b2291e5b200ac8c7c3b92560405160405180910390a45050565b6000611c1282611ada565b611c51576040517f08c379a0000000000000000000000000000000000000000000000000000000008152600401611c4890613b18565b60405180910390fd5b6000611c5c83610dfd565b90508073ffffffffffffffffffffffffffffffffffffffff168473ffffffffffffffffffffffffffffffffffffffff161480611ccb57508373ffffffffffffffffffffffffffffffffffffffff16611cb38461099e565b73ffffffffffffffffffffffffffffffffffffffff16145b80611cdc5750611cdb8185611852565b5b91505092915050565b8273ffffffffffffffffffffffffffffffffffffffff16611d0582610dfd565b73ffffffffffffffffffffffffffffffffffffffff1614611d5b576040517f08c379a0000000000000000000000000000000000000000000000000000000008152600401611d5290613baa565b60405180910390fd5b600073ffffffffffffffffffffffffffffffffffffffff168273ffffffffffffffffffffffffffffffffffffffff161415611dcb576040517f08c379a0000000000000000000000000000000000000000000000000000000008152600401611dc290613c3c565b60405180910390fd5b611dd683838361235c565b611de1600082611b4e565b6001600460008573ffffffffffffffffffffffffffffffffffffffff1673ffffffffffffffffffffffffffffffffffffffff1681526020019081526020016000206000828254611e319190613c5c565b925050819055506001600460008473ffffffffffffffffffffffffffffffffffffffff1673ffffffffffffffffffffffffffffffffffffffff1681526020019081526020016000206000828254611e889190613c90565b92505081905550816003600083815260200190815260200160002060006101000a81548173ffffffffffffffffffffffffffffffffffffffff021916908373ffffffffffffffffffffffffffffffffffffffff160217905550808273ffffffffffffffffffffffffffffffffffffffff168473ffffffffffffffffffffffffffffffffffffffff167fddf252ad1be2c89b69c2b068fc378daa952ba7f163c4a11628f55a4df523b3ef60405160405180910390a4505050565b60008060009054906101000a900473ffffffffffffffffffffffffffffffffffffffff169050816000806101000a81548173ffffffffffffffffffffffffffffffffffffffff021916908373ffffffffffffffffffffffffffffffffffffffff1602179055508173ffffffffffffffffffffffffffffffffffffffff168173ffffffffffffffffffffffffffffffffffffffff167f8be0079c531659141344cd1fd0a4f28419497f9722a3daafe3b4186f6b6457e060405160405180910390a35050565b61201f828260405180602001604052806000815250612470565b5050565b61202c82611ada565b61206b576040517f08c379a000000000000000000000000000000000000000000000000000000000815260040161206290613d58565b60405180910390fd5b80600f60008481526020019081526020016000209080519060200190612092929190612b3f565b505050565b8173ffffffffffffffffffffffffffffffffffffffff168373ffffffffffffffffffffffffffffffffffffffff161415612106576040517f08c379a00000000000000000000000000000000000000000000000000000000081526004016120fd90613dc4565b60405180910390fd5b80600660008573ffffffffffffffffffffffffffffffffffffffff1673ffffffffffffffffffffffffffffffffffffffff16815260200190815260200160002060008473ffffffffffffffffffffffffffffffffffffffff1673ffffffffffffffffffffffffffffffffffffffff16815260200190815260200160002060006101000a81548160ff0219169083151502179055508173ffffffffffffffffffffffffffffffffffffffff168373ffffffffffffffffffffffffffffffffffffffff167f17307eab39ab6107e8899845ad3d59bd9653f200f220920489ca2b5937696c31836040516121f79190612c96565b60405180910390a3505050565b61220f848484611ce5565b61221b848484846124cb565b61225a576040517f08c379a000000000000000000000000000000000000000000000000000000000815260040161225190613e56565b60405180910390fd5b50505050565b6060600c805461226f9061335a565b80601f016020809104026020016040519081016040528092919081815260200182805461229b9061335a565b80156122e85780601f106122bd576101008083540402835291602001916122e8565b820191906000526020600020905b8154815290600101906020018083116122cb57829003601f168201915b5050505050905090565b60007f01ffc9a7000000000000000000000000000000000000000000000000000000007bffffffffffffffffffffffffffffffffffffffffffffffffffffffff1916827bffffffffffffffffffffffffffffffffffffffffffffffffffffffff1916149050919050565b612367838383612653565b600073ffffffffffffffffffffffffffffffffffffffff168373ffffffffffffffffffffffffffffffffffffffff1614156123aa576123a581612658565b6123e9565b8173ffffffffffffffffffffffffffffffffffffffff168373ffffffffffffffffffffffffffffffffffffffff16146123e8576123e783826126a1565b5b5b600073ffffffffffffffffffffffffffffffffffffffff168273ffffffffffffffffffffffffffffffffffffffff16141561242c576124278161280e565b61246b565b8273ffffffffffffffffffffffffffffffffffffffff168273ffffffffffffffffffffffffffffffffffffffff161461246a5761246982826128df565b5b5b505050565b61247a838361295e565b61248760008484846124cb565b6124c6576040517f08c379a00000000000000000000000000000000000000000000000000000000081526004016124bd90613e56565b60405180910390fd5b505050565b60006124ec8473ffffffffffffffffffffffffffffffffffffffff16612b2c565b15612646578373ffffffffffffffffffffffffffffffffffffffff1663150b7a02612515611b46565b8786866040518563ffffffff1660e01b81526004016125379493929190613ecb565b6020604051808303816000875af192505050801561257357506040513d601f19601f820116820180604052508101906125709190613f2c565b60015b6125f6573d80600081146125a3576040519150601f19603f3d011682016040523d82523d6000602084013e6125a8565b606091505b506000815114156125ee576040517f08c379a00000000000000000000000000000000000000000000000000000000081526004016125e590613e56565b60405180910390fd5b805181602001fd5b63150b7a0260e01b7bffffffffffffffffffffffffffffffffffffffffffffffffffffffff1916817bffffffffffffffffffffffffffffffffffffffffffffffffffffffff19161491505061264b565b600190505b949350505050565b505050565b600980549050600a600083815260200190815260200160002081905550600981908060018154018082558091505060019003906000526020600020016000909190919091505550565b600060016126ae84610ec7565b6126b89190613c5c565b905060006008600084815260200190815260200160002054905081811461279d576000600760008673ffffffffffffffffffffffffffffffffffffffff1673ffffffffffffffffffffffffffffffffffffffff168152602001908152602001600020600084815260200190815260200160002054905080600760008773ffffffffffffffffffffffffffffffffffffffff1673ffffffffffffffffffffffffffffffffffffffff168152602001908152602001600020600084815260200190815260200160002081905550816008600083815260200190815260200160002081905550505b6008600084815260200190815260200160002060009055600760008573ffffffffffffffffffffffffffffffffffffffff1673ffffffffffffffffffffffffffffffffffffffff16815260200190815260200160002060008381526020019081526020016000206000905550505050565b600060016009805490506128229190613c5c565b90506000600a6000848152602001908152602001600020549050600060098381548110612852576128516136f8565b5b906000526020600020015490508060098381548110612874576128736136f8565b5b906000526020600020018190555081600a600083815260200190815260200160002081905550600a60008581526020019081526020016000206000905560098054806128c3576128c2613f59565b5b6001900381819060005260206000200160009055905550505050565b60006128ea83610ec7565b905081600760008573ffffffffffffffffffffffffffffffffffffffff1673ffffffffffffffffffffffffffffffffffffffff168152602001908152602001600020600083815260200190815260200160002081905550806008600084815260200190815260200160002081905550505050565b600073ffffffffffffffffffffffffffffffffffffffff168273ffffffffffffffffffffffffffffffffffffffff1614156129ce576040517f08c379a00000000000000000000000000000000000000000000000000000000081526004016129c590613fd4565b60405180910390fd5b6129d781611ada565b15612a17576040517f08c379a0000000000000000000000000000000000000000000000000000000008152600401612a0e90614040565b60405180910390fd5b612a236000838361235c565b6001600460008473ffffffffffffffffffffffffffffffffffffffff1673ffffffffffffffffffffffffffffffffffffffff1681526020019081526020016000206000828254612a739190613c90565b92505081905550816003600083815260200190815260200160002060006101000a81548173ffffffffffffffffffffffffffffffffffffffff021916908373ffffffffffffffffffffffffffffffffffffffff160217905550808273ffffffffffffffffffffffffffffffffffffffff16600073ffffffffffffffffffffffffffffffffffffffff167fddf252ad1be2c89b69c2b068fc378daa952ba7f163c4a11628f55a4df523b3ef60405160405180910390a45050565b600080823b905060008111915050919050565b828054612b4b9061335a565b90600052602060002090601f016020900481019282612b6d5760008555612bb4565b82601f10612b8657805160ff1916838001178555612bb4565b82800160010185558215612bb4579182015b82811115612bb3578251825591602001919060010190612b98565b5b509050612bc19190612bc5565b5090565b5b80821115612bde576000816000905550600101612bc6565b5090565b6000604051905090565b600080fd5b600080fd5b60007fffffffff0000000000000000000000000000000000000000000000000000000082169050919050565b612c2b81612bf6565b8114612c3657600080fd5b50565b600081359050612c4881612c22565b92915050565b600060208284031215612c6457612c63612bec565b5b6000612c7284828501612c39565b91505092915050565b60008115159050919050565b612c9081612c7b565b82525050565b6000602082019050612cab6000830184612c87565b92915050565b600081519050919050565b600082825260208201905092915050565b60005b83811015612ceb578082015181840152602081019050612cd0565b83811115612cfa576000848401525b50505050565b6000601f19601f8301169050919050565b6000612d1c82612cb1565b612d268185612cbc565b9350612d36818560208601612ccd565b612d3f81612d00565b840191505092915050565b60006020820190508181036000830152612d648184612d11565b905092915050565b6000819050919050565b612d7f81612d6c565b8114612d8a57600080fd5b50565b600081359050612d9c81612d76565b92915050565b600060208284031215612db857612db7612bec565b5b6000612dc684828501612d8d565b91505092915050565b600073ffffffffffffffffffffffffffffffffffffffff82169050919050565b6000612dfa82612dcf565b9050919050565b612e0a81612def565b82525050565b6000602082019050612e256000830184612e01565b92915050565b612e3481612def565b8114612e3f57600080fd5b50565b600081359050612e5181612e2b565b92915050565b60008060408385031215612e6e57612e6d612bec565b5b6000612e7c85828601612e42565b9250506020612e8d85828601612d8d565b9150509250929050565b612ea081612d6c565b82525050565b6000602082019050612ebb6000830184612e97565b92915050565b600080600060608486031215612eda57612ed9612bec565b5b6000612ee886828701612e42565b9350506020612ef986828701612e42565b9250506040612f0a86828701612d8d565b9150509250925092565b600060208284031215612f2a57612f29612bec565b5b6000612f3884828501612e42565b91505092915050565b600080fd5b600080fd5b7f4e487b7100000000000000000000000000000000000000000000000000000000600052604160045260246000fd5b612f8382612d00565b810181811067ffffffffffffffff82111715612fa257612fa1612f4b565b5b80604052505050565b6000612fb5612be2565b9050612fc18282612f7a565b919050565b600067ffffffffffffffff821115612fe157612fe0612f4b565b5b612fea82612d00565b9050602081019050919050565b82818337600083830152505050565b600061301961301484612fc6565b612fab565b90508281526020810184848401111561303557613034612f46565b5b613040848285612ff7565b509392505050565b600082601f83011261305d5761305c612f41565b5b813561306d848260208601613006565b91505092915050565b60006020828403121561308c5761308b612bec565b5b600082013567ffffffffffffffff8111156130aa576130a9612bf1565b5b6130b684828501613048565b91505092915050565b6130c881612c7b565b81146130d357600080fd5b50565b6000813590506130e5816130bf565b92915050565b60006020828403121561310157613100612bec565b5b600061310f848285016130d6565b91505092915050565b6000806040838503121561312f5761312e612bec565b5b600061313d85828601612e42565b925050602061314e858286016130d6565b9150509250929050565b600060c08201905061316d6000830189612e97565b818103602083015261317f8188612d11565b905081810360408301526131938187612d11565b90506131a26060830186612e01565b6131af6080830185612e01565b6131bc60a0830184612e01565b979650505050505050565b600067ffffffffffffffff8211156131e2576131e1612f4b565b5b6131eb82612d00565b9050602081019050919050565b600061320b613206846131c7565b612fab565b90508281526020810184848401111561322757613226612f46565b5b613232848285612ff7565b509392505050565b600082601f83011261324f5761324e612f41565b5b813561325f8482602086016131f8565b91505092915050565b6000806000806080858703121561328257613281612bec565b5b600061329087828801612e42565b94505060206132a187828801612e42565b93505060406132b287828801612d8d565b925050606085013567ffffffffffffffff8111156132d3576132d2612bf1565b5b6132df8782880161323a565b91505092959194509250565b6000806040838503121561330257613301612bec565b5b600061331085828601612e42565b925050602061332185828601612e42565b9150509250929050565b7f4e487b7100000000000000000000000000000000000000000000000000000000600052602260045260246000fd5b6000600282049050600182168061337257607f821691505b602082108114156133865761338561332b565b5b50919050565b7f4552433732313a20617070726f76656420717565727920666f72206e6f6e657860008201527f697374656e7420746f6b656e0000000000000000000000000000000000000000602082015250565b60006133e8602c83612cbc565b91506133f38261338c565b604082019050919050565b60006020820190508181036000830152613417816133db565b9050919050565b7f4552433732313a20617070726f76616c20746f2063757272656e74206f776e6560008201527f7200000000000000000000000000000000000000000000000000000000000000602082015250565b600061347a602183612cbc565b91506134858261341e565b604082019050919050565b600060208201905081810360008301526134a98161346d565b9050919050565b7f4552433732313a20617070726f76652063616c6c6572206973206e6f74206f7760008201527f6e6572206e6f7220617070726f76656420666f7220616c6c0000000000000000602082015250565b600061350c603883612cbc565b9150613517826134b0565b604082019050919050565b6000602082019050818103600083015261353b816134ff565b9050919050565b7f4552433732313a207472616e736665722063616c6c6572206973206e6f74206f60008201527f776e6572206e6f7220617070726f766564000000000000000000000000000000602082015250565b600061359e603183612cbc565b91506135a982613542565b604082019050919050565b600060208201905081810360008301526135cd81613591565b9050919050565b7f455243373231456e756d657261626c653a206f776e657220696e646578206f7560008201527f74206f6620626f756e6473000000000000000000000000000000000000000000602082015250565b6000613630602b83612cbc565b915061363b826135d4565b604082019050919050565b6000602082019050818103600083015261365f81613623565b9050919050565b7f455243373231456e756d657261626c653a20676c6f62616c20696e646578206f60008201527f7574206f6620626f756e64730000000000000000000000000000000000000000602082015250565b60006136c2602c83612cbc565b91506136cd82613666565b604082019050919050565b600060208201905081810360008301526136f1816136b5565b9050919050565b7f4e487b7100000000000000000000000000000000000000000000000000000000600052603260045260246000fd5b7f4552433732313a206f776e657220717565727920666f72206e6f6e657869737460008201527f656e7420746f6b656e0000000000000000000000000000000000000000000000602082015250565b6000613783602983612cbc565b915061378e82613727565b604082019050919050565b600060208201905081810360008301526137b281613776565b9050919050565b7f4552433732313a2062616c616e636520717565727920666f7220746865207a6560008201527f726f206164647265737300000000000000000000000000000000000000000000602082015250565b6000613815602a83612cbc565b9150613820826137b9565b604082019050919050565b6000602082019050818103600083015261384481613808565b9050919050565b7f4f776e61626c653a2063616c6c6572206973206e6f7420746865206f776e6572600082015250565b6000613881602083612cbc565b915061388c8261384b565b602082019050919050565b600060208201905081810360008301526138b081613874565b9050919050565b7f4e487b7100000000000000000000000000000000000000000000000000000000600052601160045260246000fd5b60006138f182612d6c565b91507fffffffffffffffffffffffffffffffffffffffffffffffffffffffffffffffff821415613924576139236138b7565b5b600182019050919050565b600081905092915050565b600061394582612cb1565b61394f818561392f565b935061395f818560208601612ccd565b80840191505092915050565b6000613977828461393a565b915081905092915050565b7f4552433732314d657461646174613a2055524920717565727920666f72206e6f60008201527f6e6578697374656e7420746f6b656e0000000000000000000000000000000000602082015250565b60006139de602f83612cbc565b91506139e982613982565b604082019050919050565b60006020820190508181036000830152613a0d816139d1565b9050919050565b7f4f776e61626c653a206e6577206f776e657220697320746865207a65726f206160008201527f6464726573730000000000000000000000000000000000000000000000000000602082015250565b6000613a70602683612cbc565b9150613a7b82613a14565b604082019050919050565b60006020820190508181036000830152613a9f81613a63565b9050919050565b7f4552433732313a206f70657261746f7220717565727920666f72206e6f6e657860008201527f697374656e7420746f6b656e0000000000000000000000000000000000000000602082015250565b6000613b02602c83612cbc565b9150613b0d82613aa6565b604082019050919050565b60006020820190508181036000830152613b3181613af5565b9050919050565b7f4552433732313a207472616e73666572206f6620746f6b656e2074686174206960008201527f73206e6f74206f776e0000000000000000000000000000000000000000000000602082015250565b6000613b94602983612cbc565b9150613b9f82613b38565b604082019050919050565b60006020820190508181036000830152613bc381613b87565b9050919050565b7f4552433732313a207472616e7366657220746f20746865207a65726f2061646460008201527f7265737300000000000000000000000000000000000000000000000000000000602082015250565b6000613c26602483612cbc565b9150613c3182613bca565b604082019050919050565b60006020820190508181036000830152613c5581613c19565b9050919050565b6000613c6782612d6c565b9150613c7283612d6c565b925082821015613c8557613c846138b7565b5b828203905092915050565b6000613c9b82612d6c565b9150613ca683612d6c565b9250827fffffffffffffffffffffffffffffffffffffffffffffffffffffffffffffffff03821115613cdb57613cda6138b7565b5b828201905092915050565b7f4552433732314d657461646174613a2055524920736574206f66206e6f6e657860008201527f697374656e7420746f6b656e0000000000000000000000000000000000000000602082015250565b6000613d42602c83612cbc565b9150613d4d82613ce6565b604082019050919050565b60006020820190508181036000830152613d7181613d35565b9050919050565b7f4552433732313a20617070726f766520746f2063616c6c657200000000000000600082015250565b6000613dae601983612cbc565b9150613db982613d78565b602082019050919050565b60006020820190508181036000830152613ddd81613da1565b9050919050565b7f4552433732313a207472616e7366657220746f206e6f6e20455243373231526560008201527f63656976657220696d706c656d656e7465720000000000000000000000000000602082015250565b6000613e40603283612cbc565b9150613e4b82613de4565b604082019050919050565b60006020820190508181036000830152613e6f81613e33565b9050919050565b600081519050919050565b600082825260208201905092915050565b6000613e9d82613e76565b613ea78185613e81565b9350613eb7818560208601612ccd565b613ec081612d00565b840191505092915050565b6000608082019050613ee06000830187612e01565b613eed6020830186612e01565b613efa6040830185612e97565b8181036060830152613f0c8184613e92565b905095945050505050565b600081519050613f2681612c22565b92915050565b600060208284031215613f4257613f41612bec565b5b6000613f5084828501613f17565b91505092915050565b7f4e487b7100000000000000000000000000000000000000000000000000000000600052603160045260246000fd5b7f4552433732313a206d696e7420746f20746865207a65726f2061646472657373600082015250565b6000613fbe602083612cbc565b9150613fc982613f88565b602082019050919050565b60006020820190508181036000830152613fed81613fb1565b9050919050565b7f4552433732313a20746f6b656e20616c7265616479206d696e74656400000000600082015250565b600061402a601c83612cbc565b915061403582613ff4565b602082019050919050565b600060208201905081810360008301526140598161401d565b905091905056fea2646970667358221220effa24bec480e84461b8bfb2813bd9fe4740901227c8df3f137ca9ba138cd27964736f6c634300080b003368747470733a2f2f697066732e696e667572612e696f2f697066732f516d4e774e325573367546476f5059586e586a68776d6d625052775779507167315156377464536f477748706935",
  "immutableReferences": {},
  "source": "// SPDX-License-Identifier: MIT\r\npragma solidity >=0.5.0 <0.9.0;\r\n\r\n// import ERC721 interface\r\n// import \"./ERC721.sol\";\r\n// import \"@openzeppelin/contracts/token/ERC721/ERC721.sol\";\r\nimport \"@openzeppelin/contracts/access/Ownable.sol\";\r\nimport \"@openzeppelin/contracts/token/ERC721/extensions/ERC721Enumerable.sol\";\r\nimport \"@openzeppelin/contracts/utils/Strings.sol\";\r\nimport \"@openzeppelin/contracts/utils/math/SafeMath.sol\";\r\n\r\n\r\n// Arts smart contract inherits ERC721 Interface\r\ncontract Arts is Ownable, ERC721Enumerable {\r\n    using SafeMath for uint256;\r\n    using Strings for uint256;\r\n\r\n\r\n    // string public collectionName;\r\n    // string public collectionSymbol;\r\n    uint256 public artCounter;\r\n    string private _baseURIextended = \"\";\r\n    // string public baseURI;\r\n    // string public baseExtension = \".json\";\r\n    string public notRevealedUri;\r\n    bool public revealed = false;\r\n\r\n    // Defining Art struct\r\n    struct Art {\r\n        uint256 tokenId;\r\n        // string tokenName;\r\n        string tokenURI;\r\n        string unrevealedTokenURI;\r\n        address mintedBy;\r\n        address currentOwner;\r\n        address previousOwner;\r\n        // uint256 price;\r\n        // bool forSale;\r\n    }\r\n\r\n    // Optional mapping for token URIs\r\n    mapping(uint256 => string) private _tokenURIs;\r\n\r\n    // map arts's token id to artwork\r\n    mapping(uint256 => Art) public allArts;\r\n    // check if token name exists\r\n    mapping(string => bool) public tokenNameExists;\r\n    // check if token URI exists\r\n    mapping(string => bool) public tokenURIExists;\r\n\r\n    // initialize contract while deployment with contract's collection name and token\r\n    constructor() ERC721(\"Beautiful Art\", \"ART\") {\r\n        // collectionName = name();\r\n        // collectionSymbol = symbol();\r\n        setNotRevealedURI(\"https://ipfs.infura.io/ipfs/QmNwN2Us6uFGoPYXnXjhwmmbPRwWyPqg1QV7tdSoGwHpi5\");        \r\n    }\r\n\r\n    // internal\r\n\r\n    function setBaseURI(string memory baseURI_) external {\r\n        _baseURIextended = baseURI_;\r\n    }\r\n\r\n    function _setTokenURI(uint256 tokenId, string memory _tokenURI)\r\n        internal\r\n        virtual\r\n    {\r\n        require(\r\n            _exists(tokenId),\r\n            \"ERC721Metadata: URI set of nonexistent token\"\r\n        );\r\n        _tokenURIs[tokenId] = _tokenURI;\r\n    }\r\n\r\n    function _baseURI() internal view virtual override returns (string memory) {\r\n        return _baseURIextended;\r\n    }\r\n\r\n    function tokenURI(uint256 tokenId)\r\n        public\r\n        view\r\n        virtual\r\n        override\r\n        returns (string memory)\r\n    {\r\n        require(\r\n            _exists(tokenId),\r\n            \"ERC721Metadata: URI query for nonexistent token\"\r\n        );\r\n\r\n        string memory _tokenURI = _tokenURIs[tokenId];\r\n        string memory base = _baseURI();\r\n\r\n        if (revealed == false) {\r\n            return notRevealedUri;\r\n        } else {\r\n            return _tokenURI;\r\n        }\r\n\r\n        // If there is no base URI, return the token URI.\r\n        // if (bytes(base).length == 0) {\r\n        //     return _tokenURI;\r\n        // }\r\n        \r\n        // If both are set, concatenate the baseURI and tokenURI (via abi.encodePacked).\r\n        // if (bytes(_tokenURI).length > 0) {\r\n        //     return string(abi.encodePacked(base, _tokenURI));\r\n        // }\r\n        // If there is a baseURI but no tokenURI, concatenate the tokenID to the baseURI.\r\n        // return string(abi.encodePacked(base, tokenId.toString()));\r\n    }\r\n\r\n\r\n    //ONLY OWNER FUNCTIONS BELOW\r\n    // reveal function\r\n    function reveal(bool _state) public {\r\n        revealed = _state;\r\n        // for(uint i=1; i<artCounter+1; i++){\r\n        //     // delete allArts[i].tokenURI;\r\n        //     allArts[i].tokenURI = allArts[i].unrevealedTokenURI;\r\n        //     _setTokenURI(i, allArts[i].unrevealedTokenURI);\r\n        // }\r\n    }\r\n\r\n    // Set  not revealed URI\r\n    function setNotRevealedURI(string memory _notRevealedURI) public {\r\n        notRevealedUri = _notRevealedURI;\r\n    }\r\n\r\n\r\n    // Minting a new art function\r\n    function mintArt(\r\n        // string memory _name,\r\n        string memory _tokenURI\r\n    ) public payable // uint256 _price\r\n    {\r\n        require(msg.sender != address(0));\r\n\r\n        artCounter++;\r\n\r\n        // Checking for requirements\r\n        require(!_exists(artCounter));\r\n        require(!tokenURIExists[_tokenURI]);\r\n        // require(!tokenNameExists[_name]);\r\n        require(!_exists(artCounter));\r\n\r\n        // Mint the token here\r\n        _safeMint(msg.sender, artCounter);\r\n\r\n        // set token URI (bind token id with the passed in token URI)\r\n        _setTokenURI(artCounter, _tokenURI);\r\n        // make passed token URI as exists\r\n        tokenURIExists[_tokenURI] = true;\r\n        // make token name passed as exists\r\n        // tokenNameExists[_name] = true;\r\n\r\n        // Create a new art and pass new values\r\n        Art memory newArt = Art(\r\n            artCounter,\r\n            // _name,\r\n            _tokenURI,\r\n            notRevealedUri,\r\n            payable(msg.sender),\r\n            payable(msg.sender),\r\n            payable(address(0))\r\n            // _price,\r\n            // true\r\n        );\r\n        allArts[artCounter] = newArt;\r\n    }\r\n\r\n\r\n    // function setBaseURI(string memory _newBaseURI) public onlyOwner {\r\n    //     baseURI = _newBaseURI;\r\n    // }\r\n\r\n    // Get owner of the token\r\n    function getTokenOwner(uint256 _tokenId) public view returns (address) {\r\n        address _tokenOwner = ownerOf(_tokenId);\r\n        return _tokenOwner;\r\n    }\r\n\r\n    // Get Metadata of the token\r\n    function getTokenMetaData(uint256 _tokenId)\r\n        public\r\n        view\r\n        returns (string memory)\r\n    {\r\n        string memory tokenMetaData = tokenURI(_tokenId);\r\n        return tokenMetaData;\r\n    }\r\n\r\n    // Get total number of tokens minted\r\n    function getNumberOfTokensMinted() public view returns (uint256) {\r\n        uint256 totalNumberOfTokensMinted = totalSupply();\r\n        return totalNumberOfTokensMinted;\r\n    }\r\n\r\n    // get total number of tokens owned by an address\r\n    function getTotalNumberOfTokensOwnedByAnAddress(address _owner)\r\n        public\r\n        view\r\n        returns (uint256)\r\n    {\r\n        uint256 totalNumberOfTokensOwned = balanceOf(_owner);\r\n        return totalNumberOfTokensOwned;\r\n    }\r\n\r\n    // check if the token already exists\r\n    function getTokenExists(uint256 _tokenId) public view returns (bool) {\r\n        bool tokenExists = _exists(_tokenId);\r\n        return tokenExists;\r\n    }\r\n\r\n    // Buy Art\r\n    // function buyArt(uint256 _tokenId) external payable {\r\n    //     require(\r\n    //         msg.value >= 50000000000000000,\r\n    //         \"Not enough ETH sent; check price!\"\r\n    //     );\r\n    //     transferFrom(ownerOf(_tokenId), msg.sender, _tokenId);\r\n    // }\r\n}\r\n",
  "sourcePath": "D:\\Shah Faisal\\Projects\\nft-marketplace-p2\\contracts\\Arts.sol",
  "compiler": {
    "name": "solc",
    "version": "0.8.11+commit.d7f03943.Emscripten.clang"
  },
  "schemaVersion": "3.4.4",
  "updatedAt": "2022-01-14T13:39:22.038Z",
  "networkType": "ethereum",
  "devdoc": {
    "kind": "dev",
    "methods": {
      "approve(address,uint256)": {
        "details": "See {IERC721-approve}."
      },
      "balanceOf(address)": {
        "details": "See {IERC721-balanceOf}."
      },
      "getApproved(uint256)": {
        "details": "See {IERC721-getApproved}."
      },
      "isApprovedForAll(address,address)": {
        "details": "See {IERC721-isApprovedForAll}."
      },
      "name()": {
        "details": "See {IERC721Metadata-name}."
      },
      "owner()": {
        "details": "Returns the address of the current owner."
      },
      "ownerOf(uint256)": {
        "details": "See {IERC721-ownerOf}."
      },
      "renounceOwnership()": {
        "details": "Leaves the contract without owner. It will not be possible to call `onlyOwner` functions anymore. Can only be called by the current owner. NOTE: Renouncing ownership will leave the contract without an owner, thereby removing any functionality that is only available to the owner."
      },
      "safeTransferFrom(address,address,uint256)": {
        "details": "See {IERC721-safeTransferFrom}."
      },
      "safeTransferFrom(address,address,uint256,bytes)": {
        "details": "See {IERC721-safeTransferFrom}."
      },
      "setApprovalForAll(address,bool)": {
        "details": "See {IERC721-setApprovalForAll}."
      },
      "supportsInterface(bytes4)": {
        "details": "See {IERC165-supportsInterface}."
      },
      "symbol()": {
        "details": "See {IERC721Metadata-symbol}."
      },
      "tokenByIndex(uint256)": {
        "details": "See {IERC721Enumerable-tokenByIndex}."
      },
      "tokenOfOwnerByIndex(address,uint256)": {
        "details": "See {IERC721Enumerable-tokenOfOwnerByIndex}."
      },
      "tokenURI(uint256)": {
        "details": "See {IERC721Metadata-tokenURI}."
      },
      "totalSupply()": {
        "details": "See {IERC721Enumerable-totalSupply}."
      },
      "transferFrom(address,address,uint256)": {
        "details": "See {IERC721-transferFrom}."
      },
      "transferOwnership(address)": {
        "details": "Transfers ownership of the contract to a new account (`newOwner`). Can only be called by the current owner."
      }
    },
    "version": 1
  },
  "userdoc": {
    "kind": "user",
    "methods": {},
    "version": 1
  }
}