{
  "contractName": "Arts",
  "abi": [
    {
      "inputs": [],
      "stateMutability": "nonpayable",
      "type": "constructor"
    },
    {
      "anonymous": false,
      "inputs": [
        {
          "indexed": true,
          "internalType": "address",
          "name": "owner",
          "type": "address"
        },
        {
          "indexed": true,
          "internalType": "address",
          "name": "approved",
          "type": "address"
        },
        {
          "indexed": true,
          "internalType": "uint256",
          "name": "tokenId",
          "type": "uint256"
        }
      ],
      "name": "Approval",
      "type": "event"
    },
    {
      "anonymous": false,
      "inputs": [
        {
          "indexed": true,
          "internalType": "address",
          "name": "owner",
          "type": "address"
        },
        {
          "indexed": true,
          "internalType": "address",
          "name": "operator",
          "type": "address"
        },
        {
          "indexed": false,
          "internalType": "bool",
          "name": "approved",
          "type": "bool"
        }
      ],
      "name": "ApprovalForAll",
      "type": "event"
    },
    {
      "anonymous": false,
      "inputs": [
        {
          "indexed": true,
          "internalType": "address",
          "name": "from",
          "type": "address"
        },
        {
          "indexed": true,
          "internalType": "address",
          "name": "to",
          "type": "address"
        },
        {
          "indexed": true,
          "internalType": "uint256",
          "name": "tokenId",
          "type": "uint256"
        }
      ],
      "name": "Transfer",
      "type": "event"
    },
    {
      "inputs": [
        {
          "internalType": "uint256",
          "name": "",
          "type": "uint256"
        }
      ],
      "name": "allArts",
      "outputs": [
        {
          "internalType": "uint256",
          "name": "tokenId",
          "type": "uint256"
        },
        {
          "internalType": "string",
          "name": "tokenName",
          "type": "string"
        },
        {
          "internalType": "string",
          "name": "tokenURI",
          "type": "string"
        },
        {
          "internalType": "address payable",
          "name": "mintedBy",
          "type": "address"
        },
        {
          "internalType": "address payable",
          "name": "currentOwner",
          "type": "address"
        },
        {
          "internalType": "address payable",
          "name": "previousOwner",
          "type": "address"
        },
        {
          "internalType": "uint256",
          "name": "price",
          "type": "uint256"
        },
        {
          "internalType": "bool",
          "name": "forSale",
          "type": "bool"
        }
      ],
      "stateMutability": "view",
      "type": "function",
      "constant": true
    },
    {
      "inputs": [
        {
          "internalType": "address",
          "name": "to",
          "type": "address"
        },
        {
          "internalType": "uint256",
          "name": "tokenId",
          "type": "uint256"
        }
      ],
      "name": "approve",
      "outputs": [],
      "stateMutability": "nonpayable",
      "type": "function"
    },
    {
      "inputs": [],
      "name": "artCounter",
      "outputs": [
        {
          "internalType": "uint256",
          "name": "",
          "type": "uint256"
        }
      ],
      "stateMutability": "view",
      "type": "function",
      "constant": true
    },
    {
      "inputs": [
        {
          "internalType": "address",
          "name": "owner",
          "type": "address"
        }
      ],
      "name": "balanceOf",
      "outputs": [
        {
          "internalType": "uint256",
          "name": "",
          "type": "uint256"
        }
      ],
      "stateMutability": "view",
      "type": "function",
      "constant": true
    },
    {
      "inputs": [],
      "name": "baseURI",
      "outputs": [
        {
          "internalType": "string",
          "name": "",
          "type": "string"
        }
      ],
      "stateMutability": "view",
      "type": "function",
      "constant": true
    },
    {
      "inputs": [
        {
          "internalType": "uint256",
          "name": "tokenId",
          "type": "uint256"
        }
      ],
      "name": "getApproved",
      "outputs": [
        {
          "internalType": "address",
          "name": "",
          "type": "address"
        }
      ],
      "stateMutability": "view",
      "type": "function",
      "constant": true
    },
    {
      "inputs": [
        {
          "internalType": "address",
          "name": "owner",
          "type": "address"
        },
        {
          "internalType": "address",
          "name": "operator",
          "type": "address"
        }
      ],
      "name": "isApprovedForAll",
      "outputs": [
        {
          "internalType": "bool",
          "name": "",
          "type": "bool"
        }
      ],
      "stateMutability": "view",
      "type": "function",
      "constant": true
    },
    {
      "inputs": [],
      "name": "name",
      "outputs": [
        {
          "internalType": "string",
          "name": "",
          "type": "string"
        }
      ],
      "stateMutability": "view",
      "type": "function",
      "constant": true
    },
    {
      "inputs": [
        {
          "internalType": "uint256",
          "name": "tokenId",
          "type": "uint256"
        }
      ],
      "name": "ownerOf",
      "outputs": [
        {
          "internalType": "address",
          "name": "",
          "type": "address"
        }
      ],
      "stateMutability": "view",
      "type": "function",
      "constant": true
    },
    {
      "inputs": [
        {
          "internalType": "address",
          "name": "from",
          "type": "address"
        },
        {
          "internalType": "address",
          "name": "to",
          "type": "address"
        },
        {
          "internalType": "uint256",
          "name": "tokenId",
          "type": "uint256"
        }
      ],
      "name": "safeTransferFrom",
      "outputs": [],
      "stateMutability": "nonpayable",
      "type": "function"
    },
    {
      "inputs": [
        {
          "internalType": "address",
          "name": "from",
          "type": "address"
        },
        {
          "internalType": "address",
          "name": "to",
          "type": "address"
        },
        {
          "internalType": "uint256",
          "name": "tokenId",
          "type": "uint256"
        },
        {
          "internalType": "bytes",
          "name": "_data",
          "type": "bytes"
        }
      ],
      "name": "safeTransferFrom",
      "outputs": [],
      "stateMutability": "nonpayable",
      "type": "function"
    },
    {
      "inputs": [
        {
          "internalType": "address",
          "name": "operator",
          "type": "address"
        },
        {
          "internalType": "bool",
          "name": "approved",
          "type": "bool"
        }
      ],
      "name": "setApprovalForAll",
      "outputs": [],
      "stateMutability": "nonpayable",
      "type": "function"
    },
    {
      "inputs": [
        {
          "internalType": "bytes4",
          "name": "interfaceId",
          "type": "bytes4"
        }
      ],
      "name": "supportsInterface",
      "outputs": [
        {
          "internalType": "bool",
          "name": "",
          "type": "bool"
        }
      ],
      "stateMutability": "view",
      "type": "function",
      "constant": true
    },
    {
      "inputs": [],
      "name": "symbol",
      "outputs": [
        {
          "internalType": "string",
          "name": "",
          "type": "string"
        }
      ],
      "stateMutability": "view",
      "type": "function",
      "constant": true
    },
    {
      "inputs": [
        {
          "internalType": "uint256",
          "name": "index",
          "type": "uint256"
        }
      ],
      "name": "tokenByIndex",
      "outputs": [
        {
          "internalType": "uint256",
          "name": "",
          "type": "uint256"
        }
      ],
      "stateMutability": "view",
      "type": "function",
      "constant": true
    },
    {
      "inputs": [
        {
          "internalType": "string",
          "name": "",
          "type": "string"
        }
      ],
      "name": "tokenNameExists",
      "outputs": [
        {
          "internalType": "bool",
          "name": "",
          "type": "bool"
        }
      ],
      "stateMutability": "view",
      "type": "function",
      "constant": true
    },
    {
      "inputs": [
        {
          "internalType": "address",
          "name": "owner",
          "type": "address"
        },
        {
          "internalType": "uint256",
          "name": "index",
          "type": "uint256"
        }
      ],
      "name": "tokenOfOwnerByIndex",
      "outputs": [
        {
          "internalType": "uint256",
          "name": "",
          "type": "uint256"
        }
      ],
      "stateMutability": "view",
      "type": "function",
      "constant": true
    },
    {
      "inputs": [
        {
          "internalType": "uint256",
          "name": "tokenId",
          "type": "uint256"
        }
      ],
      "name": "tokenURI",
      "outputs": [
        {
          "internalType": "string",
          "name": "",
          "type": "string"
        }
      ],
      "stateMutability": "view",
      "type": "function",
      "constant": true
    },
    {
      "inputs": [
        {
          "internalType": "string",
          "name": "",
          "type": "string"
        }
      ],
      "name": "tokenURIExists",
      "outputs": [
        {
          "internalType": "bool",
          "name": "",
          "type": "bool"
        }
      ],
      "stateMutability": "view",
      "type": "function",
      "constant": true
    },
    {
      "inputs": [],
      "name": "totalSupply",
      "outputs": [
        {
          "internalType": "uint256",
          "name": "",
          "type": "uint256"
        }
      ],
      "stateMutability": "view",
      "type": "function",
      "constant": true
    },
    {
      "inputs": [
        {
          "internalType": "address",
          "name": "from",
          "type": "address"
        },
        {
          "internalType": "address",
          "name": "to",
          "type": "address"
        },
        {
          "internalType": "uint256",
          "name": "tokenId",
          "type": "uint256"
        }
      ],
      "name": "transferFrom",
      "outputs": [],
      "stateMutability": "nonpayable",
      "type": "function"
    },
    {
      "inputs": [
        {
          "internalType": "string",
          "name": "_name",
          "type": "string"
        },
        {
          "internalType": "string",
          "name": "_tokenURI",
          "type": "string"
        },
        {
          "internalType": "uint256",
          "name": "_price",
          "type": "uint256"
        }
      ],
      "name": "mintArt",
      "outputs": [],
      "stateMutability": "payable",
      "type": "function",
      "payable": true
    },
    {
      "inputs": [
        {
          "internalType": "uint256",
          "name": "_tokenId",
          "type": "uint256"
        }
      ],
      "name": "getTokenOwner",
      "outputs": [
        {
          "internalType": "address",
          "name": "",
          "type": "address"
        }
      ],
      "stateMutability": "view",
      "type": "function",
      "constant": true
    },
    {
      "inputs": [
        {
          "internalType": "uint256",
          "name": "_tokenId",
          "type": "uint256"
        }
      ],
      "name": "getTokenMetaData",
      "outputs": [
        {
          "internalType": "string",
          "name": "",
          "type": "string"
        }
      ],
      "stateMutability": "view",
      "type": "function",
      "constant": true
    },
    {
      "inputs": [],
      "name": "getNumberOfTokensMinted",
      "outputs": [
        {
          "internalType": "uint256",
          "name": "",
          "type": "uint256"
        }
      ],
      "stateMutability": "view",
      "type": "function",
      "constant": true
    },
    {
      "inputs": [
        {
          "internalType": "address",
          "name": "_owner",
          "type": "address"
        }
      ],
      "name": "getTotalNumberOfTokensOwnedByAnAddress",
      "outputs": [
        {
          "internalType": "uint256",
          "name": "",
          "type": "uint256"
        }
      ],
      "stateMutability": "view",
      "type": "function",
      "constant": true
    },
    {
      "inputs": [
        {
          "internalType": "uint256",
          "name": "_tokenId",
          "type": "uint256"
        }
      ],
      "name": "getTokenExists",
      "outputs": [
        {
          "internalType": "bool",
          "name": "",
          "type": "bool"
        }
      ],
      "stateMutability": "view",
      "type": "function",
      "constant": true
    },
    {
      "inputs": [
        {
          "internalType": "uint256",
          "name": "_tokenId",
          "type": "uint256"
        }
      ],
      "name": "buyArt",
      "outputs": [],
      "stateMutability": "payable",
      "type": "function",
      "payable": true
    }
  ],
  "bytecode": "0x60806040523480156200001157600080fd5b506040518060400160405280600c81526020017f41727420576f726b204e465400000000000000000000000000000000000000008152506040518060400160405280600381526020017f4152540000000000000000000000000000000000000000000000000000000000815250620000966301ffc9a760e01b6200011860201b60201c565b8160069080519060200190620000ae929190620001f0565b508060079080519060200190620000c7929190620001f0565b50620000e06380ac58cd60e01b6200011860201b60201c565b620000f8635b5e139f60e01b6200011860201b60201c565b6200011063780e9d6360e01b6200011860201b60201c565b505062000388565b63ffffffff60e01b817bffffffffffffffffffffffffffffffffffffffffffffffffffffffff1916141562000184576040517f08c379a00000000000000000000000000000000000000000000000000000000081526004016200017b90620002c7565b60405180910390fd5b6001600080837bffffffffffffffffffffffffffffffffffffffffffffffffffffffff19167bffffffffffffffffffffffffffffffffffffffffffffffffffffffff1916815260200190815260200160002060006101000a81548160ff02191690831515021790555050565b828054620001fe90620002fa565b90600052602060002090601f0160209004810192826200022257600085556200026e565b82601f106200023d57805160ff19168380011785556200026e565b828001600101855582156200026e579182015b828111156200026d57825182559160200191906001019062000250565b5b5090506200027d919062000281565b5090565b5b808211156200029c57600081600090555060010162000282565b5090565b6000620002af601c83620002e9565b9150620002bc826200035f565b602082019050919050565b60006020820190508181036000830152620002e281620002a0565b9050919050565b600082825260208201905092915050565b600060028204905060018216806200031357607f821691505b602082108114156200032a576200032962000330565b5b50919050565b7f4e487b7100000000000000000000000000000000000000000000000000000000600052602260045260246000fd5b7f4552433136353a20696e76616c696420696e7465726661636520696400000000600082015250565b613ffe80620003986000396000f3fe6080604052600436106101b75760003560e01c806367c623cf116100ec578063a5cd761f1161008a578063c87b56dd11610064578063c87b56dd1461069c578063cc151f3a146106d9578063e985e9c514610704578063fc7a900b14610741576101b7565b8063a5cd761f1461060b578063a9ff382214610648578063b88d4fde14610673576101b7565b806395d89b41116100c657806395d89b4114610536578063a22cb46514610561578063a46b1fac1461058a578063a520aabb146105c7576101b7565b806367c623cf146104915780636c0360eb146104ce57806370a08231146104f9576101b7565b80632f745c59116101595780634390285011610133578063439028501461039d57806343d32ae7146103da5780634f6ccce7146104175780636352211e14610454576101b7565b80632f745c591461031b578063380b7f041461035857806342842e0e14610374576101b7565b8063095ea7b311610195578063095ea7b314610261578063142687f31461028a57806318160ddd146102c757806323b872dd146102f2576101b7565b806301ffc9a7146101bc57806306fdde03146101f9578063081812fc14610224575b600080fd5b3480156101c857600080fd5b506101e360048036038101906101de9190612cbf565b61075d565b6040516101f0919061325c565b60405180910390f35b34801561020557600080fd5b5061020e6107c4565b60405161021b9190613277565b60405180910390f35b34801561023057600080fd5b5061024b60048036038101906102469190612dd1565b610856565b60405161025891906131f5565b60405180910390f35b34801561026d57600080fd5b5061028860048036038101906102839190612c83565b6108db565b005b34801561029657600080fd5b506102b160048036038101906102ac9190612dd1565b6109f3565b6040516102be919061325c565b60405180910390f35b3480156102d357600080fd5b506102dc610a0a565b6040516102e991906134f9565b60405180910390f35b3480156102fe57600080fd5b5061031960048036038101906103149190612b7d565b610a1b565b005b34801561032757600080fd5b50610342600480360381019061033d9190612c83565b610a7b565b60405161034f91906134f9565b60405180910390f35b610372600480360381019061036d9190612d52565b610ad6565b005b34801561038057600080fd5b5061039b60048036038101906103969190612b7d565b610df5565b005b3480156103a957600080fd5b506103c460048036038101906103bf9190612b18565b610e15565b6040516103d191906134f9565b60405180910390f35b3480156103e657600080fd5b5061040160048036038101906103fc9190612d11565b610e2c565b60405161040e919061325c565b60405180910390f35b34801561042357600080fd5b5061043e60048036038101906104399190612dd1565b610e62565b60405161044b91906134f9565b60405180910390f35b34801561046057600080fd5b5061047b60048036038101906104769190612dd1565b610e85565b60405161048891906131f5565b60405180910390f35b34801561049d57600080fd5b506104b860048036038101906104b39190612dd1565b610ebc565b6040516104c59190613277565b60405180910390f35b3480156104da57600080fd5b506104e3610ed4565b6040516104f09190613277565b60405180910390f35b34801561050557600080fd5b50610520600480360381019061051b9190612b18565b610f66565b60405161052d91906134f9565b60405180910390f35b34801561054257600080fd5b5061054b611025565b6040516105589190613277565b60405180910390f35b34801561056d57600080fd5b5061058860048036038101906105839190612c47565b6110b7565b005b34801561059657600080fd5b506105b160048036038101906105ac9190612d11565b611238565b6040516105be919061325c565b60405180910390f35b3480156105d357600080fd5b506105ee60048036038101906105e99190612dd1565b61126e565b604051610602989796959493929190613514565b60405180910390f35b34801561061757600080fd5b50610632600480360381019061062d9190612dd1565b611433565b60405161063f91906131f5565b60405180910390f35b34801561065457600080fd5b5061065d61144a565b60405161066a91906134f9565b60405180910390f35b34801561067f57600080fd5b5061069a60048036038101906106959190612bcc565b611450565b005b3480156106a857600080fd5b506106c360048036038101906106be9190612dd1565b6114b2565b6040516106d09190613277565b60405180910390f35b3480156106e557600080fd5b506106ee611625565b6040516106fb91906134f9565b60405180910390f35b34801561071057600080fd5b5061072b60048036038101906107269190612b41565b611639565b604051610738919061325c565b60405180910390f35b61075b60048036038101906107569190612dd1565b6116cd565b005b6000806000837bffffffffffffffffffffffffffffffffffffffffffffffffffffffff19167bffffffffffffffffffffffffffffffffffffffffffffffffffffffff1916815260200190815260200160002060009054906101000a900460ff169050919050565b6060600680546107d390613822565b80601f01602080910402602001604051908101604052809291908181526020018280546107ff90613822565b801561084c5780601f106108215761010080835404028352916020019161084c565b820191906000526020600020905b81548152906001019060200180831161082f57829003601f168201915b5050505050905090565b60006108618261172d565b6108a0576040517f08c379a0000000000000000000000000000000000000000000000000000000008152600401610897906133f9565b60405180910390fd5b6004600083815260200190815260200160002060009054906101000a900473ffffffffffffffffffffffffffffffffffffffff169050919050565b60006108e682610e85565b90508073ffffffffffffffffffffffffffffffffffffffff168373ffffffffffffffffffffffffffffffffffffffff161415610957576040517f08c379a000000000000000000000000000000000000000000000000000000000815260040161094e90613479565b60405180910390fd5b8073ffffffffffffffffffffffffffffffffffffffff1661097661174a565b73ffffffffffffffffffffffffffffffffffffffff1614806109a557506109a48161099f61174a565b611639565b5b6109e4576040517f08c379a00000000000000000000000000000000000000000000000000000000081526004016109db90613379565b60405180910390fd5b6109ee8383611752565b505050565b6000806109ff8361172d565b905080915050919050565b6000610a16600261180b565b905090565b610a2c610a2661174a565b82611820565b610a6b576040517f08c379a0000000000000000000000000000000000000000000000000000000008152600401610a6290613499565b60405180910390fd5b610a768383836118fe565b505050565b6000610ace82600160008673ffffffffffffffffffffffffffffffffffffffff1673ffffffffffffffffffffffffffffffffffffffff168152602001908152602001600020611b1590919063ffffffff16565b905092915050565b600073ffffffffffffffffffffffffffffffffffffffff163373ffffffffffffffffffffffffffffffffffffffff161415610b1057600080fd5b600a6000815480929190610b2390613885565b9190505550610b33600a5461172d565b15610b3d57600080fd5b600d82604051610b4d91906131ba565b908152602001604051809103902060009054906101000a900460ff1615610b7357600080fd5b600c83604051610b8391906131ba565b908152602001604051809103902060009054906101000a900460ff1615610ba957600080fd5b610bb4600a5461172d565b15610bbe57600080fd5b610bca33600a54611b2f565b610bd6600a5483611b4d565b6001600d83604051610be891906131ba565b908152602001604051809103902060006101000a81548160ff0219169083151502179055506000604051806101000160405280600a5481526020018581526020018481526020013373ffffffffffffffffffffffffffffffffffffffff1681526020013373ffffffffffffffffffffffffffffffffffffffff168152602001600073ffffffffffffffffffffffffffffffffffffffff16815260200183815260200160011515815250905080600b6000600a548152602001908152602001600020600082015181600001556020820151816001019080519060200190610ccf92919061293c565b506040820151816002019080519060200190610cec92919061293c565b5060608201518160030160006101000a81548173ffffffffffffffffffffffffffffffffffffffff021916908373ffffffffffffffffffffffffffffffffffffffff16021790555060808201518160040160006101000a81548173ffffffffffffffffffffffffffffffffffffffff021916908373ffffffffffffffffffffffffffffffffffffffff16021790555060a08201518160050160006101000a81548173ffffffffffffffffffffffffffffffffffffffff021916908373ffffffffffffffffffffffffffffffffffffffff16021790555060c0820151816006015560e08201518160070160006101000a81548160ff02191690831515021790555090505050505050565b610e1083838360405180602001604052806000815250611450565b505050565b600080610e2183610f66565b905080915050919050565b600d818051602081018201805184825260208301602085012081835280955050505050506000915054906101000a900460ff1681565b600080610e79836002611bc190919063ffffffff16565b50905080915050919050565b6000610eb582604051806060016040528060298152602001613fa0602991396002611bed9092919063ffffffff16565b9050919050565b60606000610ec9836114b2565b905080915050919050565b606060098054610ee390613822565b80601f0160208091040260200160405190810160405280929190818152602001828054610f0f90613822565b8015610f5c5780601f10610f3157610100808354040283529160200191610f5c565b820191906000526020600020905b815481529060010190602001808311610f3f57829003601f168201915b5050505050905090565b60008073ffffffffffffffffffffffffffffffffffffffff168273ffffffffffffffffffffffffffffffffffffffff161415610fd7576040517f08c379a0000000000000000000000000000000000000000000000000000000008152600401610fce90613399565b60405180910390fd5b61101e600160008473ffffffffffffffffffffffffffffffffffffffff1673ffffffffffffffffffffffffffffffffffffffff168152602001908152602001600020611c0c565b9050919050565b60606007805461103490613822565b80601f016020809104026020016040519081016040528092919081815260200182805461106090613822565b80156110ad5780601f10611082576101008083540402835291602001916110ad565b820191906000526020600020905b81548152906001019060200180831161109057829003601f168201915b5050505050905090565b6110bf61174a565b73ffffffffffffffffffffffffffffffffffffffff168273ffffffffffffffffffffffffffffffffffffffff16141561112d576040517f08c379a000000000000000000000000000000000000000000000000000000000815260040161112490613319565b60405180910390fd5b806005600061113a61174a565b73ffffffffffffffffffffffffffffffffffffffff1673ffffffffffffffffffffffffffffffffffffffff16815260200190815260200160002060008473ffffffffffffffffffffffffffffffffffffffff1673ffffffffffffffffffffffffffffffffffffffff16815260200190815260200160002060006101000a81548160ff0219169083151502179055508173ffffffffffffffffffffffffffffffffffffffff166111e761174a565b73ffffffffffffffffffffffffffffffffffffffff167f17307eab39ab6107e8899845ad3d59bd9653f200f220920489ca2b5937696c318360405161122c919061325c565b60405180910390a35050565b600c818051602081018201805184825260208301602085012081835280955050505050506000915054906101000a900460ff1681565b600b60205280600052604060002060009150905080600001549080600101805461129790613822565b80601f01602080910402602001604051908101604052809291908181526020018280546112c390613822565b80156113105780601f106112e557610100808354040283529160200191611310565b820191906000526020600020905b8154815290600101906020018083116112f357829003601f168201915b50505050509080600201805461132590613822565b80601f016020809104026020016040519081016040528092919081815260200182805461135190613822565b801561139e5780601f106113735761010080835404028352916020019161139e565b820191906000526020600020905b81548152906001019060200180831161138157829003601f168201915b5050505050908060030160009054906101000a900473ffffffffffffffffffffffffffffffffffffffff16908060040160009054906101000a900473ffffffffffffffffffffffffffffffffffffffff16908060050160009054906101000a900473ffffffffffffffffffffffffffffffffffffffff16908060060154908060070160009054906101000a900460ff16905088565b60008061143f83610e85565b905080915050919050565b600a5481565b61146161145b61174a565b83611820565b6114a0576040517f08c379a000000000000000000000000000000000000000000000000000000000815260040161149790613499565b60405180910390fd5b6114ac84848484611c21565b50505050565b60606114bd8261172d565b6114fc576040517f08c379a00000000000000000000000000000000000000000000000000000000081526004016114f390613459565b60405180910390fd5b600060086000848152602001908152602001600020805461151c90613822565b80601f016020809104026020016040519081016040528092919081815260200182805461154890613822565b80156115955780601f1061156a57610100808354040283529160200191611595565b820191906000526020600020905b81548152906001019060200180831161157857829003601f168201915b5050505050905060006115a6610ed4565b90506000815114156115bc578192505050611620565b6000825111156115f15780826040516020016115d99291906131d1565b60405160208183030381529060405292505050611620565b806115fb85611c7d565b60405160200161160c9291906131d1565b604051602081830303815290604052925050505b919050565b600080611630610a0a565b90508091505090565b6000600560008473ffffffffffffffffffffffffffffffffffffffff1673ffffffffffffffffffffffffffffffffffffffff16815260200190815260200160002060008373ffffffffffffffffffffffffffffffffffffffff1673ffffffffffffffffffffffffffffffffffffffff16815260200190815260200160002060009054906101000a900460ff16905092915050565b66b1a2bc2ec50000341015611717576040517f08c379a000000000000000000000000000000000000000000000000000000000815260040161170e906134d9565b60405180910390fd5b61172a61172382610e85565b3383610a1b565b50565b6000611743826002611e3c90919063ffffffff16565b9050919050565b600033905090565b816004600083815260200190815260200160002060006101000a81548173ffffffffffffffffffffffffffffffffffffffff021916908373ffffffffffffffffffffffffffffffffffffffff160217905550808273ffffffffffffffffffffffffffffffffffffffff166117c583610e85565b73ffffffffffffffffffffffffffffffffffffffff167f8c5be1e5ebec7d5bd14f71427d1e84f3dd0314c0f7b2291e5b200ac8c7c3b92560405160405180910390a45050565b600061181982600001611e56565b9050919050565b600061182b8261172d565b61186a576040517f08c379a000000000000000000000000000000000000000000000000000000000815260040161186190613359565b60405180910390fd5b600061187583610e85565b90508073ffffffffffffffffffffffffffffffffffffffff168473ffffffffffffffffffffffffffffffffffffffff1614806118e457508373ffffffffffffffffffffffffffffffffffffffff166118cc84610856565b73ffffffffffffffffffffffffffffffffffffffff16145b806118f557506118f48185611639565b5b91505092915050565b8273ffffffffffffffffffffffffffffffffffffffff1661191e82610e85565b73ffffffffffffffffffffffffffffffffffffffff1614611974576040517f08c379a000000000000000000000000000000000000000000000000000000000815260040161196b90613439565b60405180910390fd5b600073ffffffffffffffffffffffffffffffffffffffff168273ffffffffffffffffffffffffffffffffffffffff1614156119e4576040517f08c379a00000000000000000000000000000000000000000000000000000000081526004016119db906132f9565b60405180910390fd5b6119ef838383611e67565b6119fa600082611752565b611a4b81600160008673ffffffffffffffffffffffffffffffffffffffff1673ffffffffffffffffffffffffffffffffffffffff168152602001908152602001600020611e6c90919063ffffffff16565b50611a9d81600160008573ffffffffffffffffffffffffffffffffffffffff1673ffffffffffffffffffffffffffffffffffffffff168152602001908152602001600020611e8690919063ffffffff16565b50611ab481836002611ea09092919063ffffffff16565b50808273ffffffffffffffffffffffffffffffffffffffff168473ffffffffffffffffffffffffffffffffffffffff167fddf252ad1be2c89b69c2b068fc378daa952ba7f163c4a11628f55a4df523b3ef60405160405180910390a4505050565b6000611b248360000183611ed5565b60001c905092915050565b611b49828260405180602001604052806000815250611f6f565b5050565b611b568261172d565b611b95576040517f08c379a0000000000000000000000000000000000000000000000000000000008152600401611b8c90613419565b60405180910390fd5b80600860008481526020019081526020016000209080519060200190611bbc92919061293c565b505050565b600080600080611bd48660000186611fca565b915091508160001c8160001c9350935050509250929050565b6000611c00846000018460001b8461207a565b60001c90509392505050565b6000611c1a82600001612141565b9050919050565b611c2c8484846118fe565b611c3884848484612152565b611c77576040517f08c379a0000000000000000000000000000000000000000000000000000000008152600401611c6e906132b9565b60405180910390fd5b50505050565b60606000821415611cc5576040518060400160405280600181526020017f30000000000000000000000000000000000000000000000000000000000000008152509050611e37565b600082905060005b60008214611cf7578080611ce090613885565b915050600a82611cf091906136cb565b9150611ccd565b60008167ffffffffffffffff811115611d39577f4e487b7100000000000000000000000000000000000000000000000000000000600052604160045260246000fd5b6040519080825280601f01601f191660200182016040528015611d6b5781602001600182028036833780820191505090505b5090506000600183611d7d91906136fc565b90508593505b60008414611e2f57600a84611d9891906138ce565b6030611da49190613675565b60f81b828280611db3906137f8565b935081518110611dec577f4e487b7100000000000000000000000000000000000000000000000000000000600052603260045260246000fd5b60200101907effffffffffffffffffffffffffffffffffffffffffffffffffffffffffffff1916908160001a905350600a84611e2891906136cb565b9350611d83565b819450505050505b919050565b6000611e4e836000018360001b6122b6565b905092915050565b600081600001805490509050919050565b505050565b6000611e7e836000018360001b6122d9565b905092915050565b6000611e98836000018360001b612463565b905092915050565b6000611ecc846000018460001b8473ffffffffffffffffffffffffffffffffffffffff1660001b6124d3565b90509392505050565b600081836000018054905011611f20576040517f08c379a0000000000000000000000000000000000000000000000000000000008152600401611f1790613299565b60405180910390fd5b826000018281548110611f5c577f4e487b7100000000000000000000000000000000000000000000000000000000600052603260045260246000fd5b9060005260206000200154905092915050565b611f7983836125e5565b611f866000848484612152565b611fc5576040517f08c379a0000000000000000000000000000000000000000000000000000000008152600401611fbc906132b9565b60405180910390fd5b505050565b60008082846000018054905011612016576040517f08c379a000000000000000000000000000000000000000000000000000000000815260040161200d906133b9565b60405180910390fd5b6000846000018481548110612054577f4e487b7100000000000000000000000000000000000000000000000000000000600052603260045260246000fd5b906000526020600020906002020190508060000154816001015492509250509250929050565b600080846001016000858152602001908152602001600020549050600081141583906120dc576040517f08c379a00000000000000000000000000000000000000000000000000000000081526004016120d39190613277565b60405180910390fd5b50846000016001826120ee91906136fc565b81548110612125577f4e487b7100000000000000000000000000000000000000000000000000000000600052603260045260246000fd5b9060005260206000209060020201600101549150509392505050565b600081600001805490509050919050565b60006121738473ffffffffffffffffffffffffffffffffffffffff16612773565b61218057600190506122ae565b600061224763150b7a0260e01b61219561174a565b8887876040516024016121ab9493929190613210565b604051602081830303815290604052907bffffffffffffffffffffffffffffffffffffffffffffffffffffffff19166020820180517bffffffffffffffffffffffffffffffffffffffffffffffffffffffff8381831617835250505050604051806060016040528060328152602001613f6e603291398773ffffffffffffffffffffffffffffffffffffffff166127869092919063ffffffff16565b905060008180602001905181019061225f9190612ce8565b905063150b7a0260e01b7bffffffffffffffffffffffffffffffffffffffffffffffffffffffff1916817bffffffffffffffffffffffffffffffffffffffffffffffffffffffff191614925050505b949350505050565b600080836001016000848152602001908152602001600020541415905092915050565b6000808360010160008481526020019081526020016000205490506000811461245757600060018261230b91906136fc565b905060006001866000018054905061232391906136fc565b90506000866000018281548110612363577f4e487b7100000000000000000000000000000000000000000000000000000000600052603260045260246000fd5b90600052602060002001549050808760000184815481106123ad577f4e487b7100000000000000000000000000000000000000000000000000000000600052603260045260246000fd5b90600052602060002001819055506001836123c89190613675565b876001016000838152602001908152602001600020819055508660000180548061241b577f4e487b7100000000000000000000000000000000000000000000000000000000600052603160045260246000fd5b6001900381819060005260206000200160009055905586600101600087815260200190815260200160002060009055600194505050505061245d565b60009150505b92915050565b600061246f838361279e565b6124c85782600001829080600181540180825580915050600190039060005260206000200160009091909190915055826000018054905083600101600084815260200190815260200160002081905550600190506124cd565b600090505b92915050565b600080846001016000858152602001908152602001600020549050600081141561257a578460000160405180604001604052808681526020018581525090806001815401808255809150506001900390600052602060002090600202016000909190919091506000820151816000015560208201518160010155505084600001805490508560010160008681526020019081526020016000208190555060019150506125de565b828560000160018361258c91906136fc565b815481106125c3577f4e487b7100000000000000000000000000000000000000000000000000000000600052603260045260246000fd5b90600052602060002090600202016001018190555060009150505b9392505050565b600073ffffffffffffffffffffffffffffffffffffffff168273ffffffffffffffffffffffffffffffffffffffff161415612655576040517f08c379a000000000000000000000000000000000000000000000000000000000815260040161264c906133d9565b60405180910390fd5b61265e8161172d565b1561269e576040517f08c379a0000000000000000000000000000000000000000000000000000000008152600401612695906132d9565b60405180910390fd5b6126aa60008383611e67565b6126fb81600160008573ffffffffffffffffffffffffffffffffffffffff1673ffffffffffffffffffffffffffffffffffffffff168152602001908152602001600020611e8690919063ffffffff16565b5061271281836002611ea09092919063ffffffff16565b50808273ffffffffffffffffffffffffffffffffffffffff16600073ffffffffffffffffffffffffffffffffffffffff167fddf252ad1be2c89b69c2b068fc378daa952ba7f163c4a11628f55a4df523b3ef60405160405180910390a45050565b600080823b905060008111915050919050565b606061279584846000856127c1565b90509392505050565b600080836001016000848152602001908152602001600020541415905092915050565b606082471015612806576040517f08c379a00000000000000000000000000000000000000000000000000000000081526004016127fd90613339565b60405180910390fd5b61280f85612773565b61284e576040517f08c379a0000000000000000000000000000000000000000000000000000000008152600401612845906134b9565b60405180910390fd5b6000808673ffffffffffffffffffffffffffffffffffffffff16858760405161287791906131a3565b60006040518083038185875af1925050503d80600081146128b4576040519150601f19603f3d011682016040523d82523d6000602084013e6128b9565b606091505b50915091506128c98282866128d5565b92505050949350505050565b606083156128e557829050612935565b6000835111156128f85782518084602001fd5b816040517f08c379a000000000000000000000000000000000000000000000000000000000815260040161292c9190613277565b60405180910390fd5b9392505050565b82805461294890613822565b90600052602060002090601f01602090048101928261296a57600085556129b1565b82601f1061298357805160ff19168380011785556129b1565b828001600101855582156129b1579182015b828111156129b0578251825591602001919060010190612995565b5b5090506129be91906129c2565b5090565b5b808211156129db5760008160009055506001016129c3565b5090565b60006129f26129ed846135c5565b6135a0565b905082815260208101848484011115612a0a57600080fd5b612a158482856137b6565b509392505050565b6000612a30612a2b846135f6565b6135a0565b905082815260208101848484011115612a4857600080fd5b612a538482856137b6565b509392505050565b600081359050612a6a81613f11565b92915050565b600081359050612a7f81613f28565b92915050565b600081359050612a9481613f3f565b92915050565b600081519050612aa981613f3f565b92915050565b600082601f830112612ac057600080fd5b8135612ad08482602086016129df565b91505092915050565b600082601f830112612aea57600080fd5b8135612afa848260208601612a1d565b91505092915050565b600081359050612b1281613f56565b92915050565b600060208284031215612b2a57600080fd5b6000612b3884828501612a5b565b91505092915050565b60008060408385031215612b5457600080fd5b6000612b6285828601612a5b565b9250506020612b7385828601612a5b565b9150509250929050565b600080600060608486031215612b9257600080fd5b6000612ba086828701612a5b565b9350506020612bb186828701612a5b565b9250506040612bc286828701612b03565b9150509250925092565b60008060008060808587031215612be257600080fd5b6000612bf087828801612a5b565b9450506020612c0187828801612a5b565b9350506040612c1287828801612b03565b925050606085013567ffffffffffffffff811115612c2f57600080fd5b612c3b87828801612aaf565b91505092959194509250565b60008060408385031215612c5a57600080fd5b6000612c6885828601612a5b565b9250506020612c7985828601612a70565b9150509250929050565b60008060408385031215612c9657600080fd5b6000612ca485828601612a5b565b9250506020612cb585828601612b03565b9150509250929050565b600060208284031215612cd157600080fd5b6000612cdf84828501612a85565b91505092915050565b600060208284031215612cfa57600080fd5b6000612d0884828501612a9a565b91505092915050565b600060208284031215612d2357600080fd5b600082013567ffffffffffffffff811115612d3d57600080fd5b612d4984828501612ad9565b91505092915050565b600080600060608486031215612d6757600080fd5b600084013567ffffffffffffffff811115612d8157600080fd5b612d8d86828701612ad9565b935050602084013567ffffffffffffffff811115612daa57600080fd5b612db686828701612ad9565b9250506040612dc786828701612b03565b9150509250925092565b600060208284031215612de357600080fd5b6000612df184828501612b03565b91505092915050565b612e0381613742565b82525050565b612e1281613730565b82525050565b612e2181613754565b82525050565b6000612e3282613627565b612e3c818561363d565b9350612e4c8185602086016137c5565b612e55816139bb565b840191505092915050565b6000612e6b82613627565b612e75818561364e565b9350612e858185602086016137c5565b80840191505092915050565b6000612e9c82613632565b612ea68185613659565b9350612eb68185602086016137c5565b612ebf816139bb565b840191505092915050565b6000612ed582613632565b612edf818561366a565b9350612eef8185602086016137c5565b80840191505092915050565b6000612f08602283613659565b9150612f13826139cc565b604082019050919050565b6000612f2b603283613659565b9150612f3682613a1b565b604082019050919050565b6000612f4e601c83613659565b9150612f5982613a6a565b602082019050919050565b6000612f71602483613659565b9150612f7c82613a93565b604082019050919050565b6000612f94601983613659565b9150612f9f82613ae2565b602082019050919050565b6000612fb7602683613659565b9150612fc282613b0b565b604082019050919050565b6000612fda602c83613659565b9150612fe582613b5a565b604082019050919050565b6000612ffd603883613659565b915061300882613ba9565b604082019050919050565b6000613020602a83613659565b915061302b82613bf8565b604082019050919050565b6000613043602283613659565b915061304e82613c47565b604082019050919050565b6000613066602083613659565b915061307182613c96565b602082019050919050565b6000613089602c83613659565b915061309482613cbf565b604082019050919050565b60006130ac602c83613659565b91506130b782613d0e565b604082019050919050565b60006130cf602983613659565b91506130da82613d5d565b604082019050919050565b60006130f2602f83613659565b91506130fd82613dac565b604082019050919050565b6000613115602183613659565b915061312082613dfb565b604082019050919050565b6000613138603183613659565b915061314382613e4a565b604082019050919050565b600061315b601d83613659565b915061316682613e99565b602082019050919050565b600061317e602183613659565b915061318982613ec2565b604082019050919050565b61319d816137ac565b82525050565b60006131af8284612e60565b915081905092915050565b60006131c68284612eca565b915081905092915050565b60006131dd8285612eca565b91506131e98284612eca565b91508190509392505050565b600060208201905061320a6000830184612e09565b92915050565b60006080820190506132256000830187612dfa565b6132326020830186612e09565b61323f6040830185613194565b81810360608301526132518184612e27565b905095945050505050565b60006020820190506132716000830184612e18565b92915050565b600060208201905081810360008301526132918184612e91565b905092915050565b600060208201905081810360008301526132b281612efb565b9050919050565b600060208201905081810360008301526132d281612f1e565b9050919050565b600060208201905081810360008301526132f281612f41565b9050919050565b6000602082019050818103600083015261331281612f64565b9050919050565b6000602082019050818103600083015261333281612f87565b9050919050565b6000602082019050818103600083015261335281612faa565b9050919050565b6000602082019050818103600083015261337281612fcd565b9050919050565b6000602082019050818103600083015261339281612ff0565b9050919050565b600060208201905081810360008301526133b281613013565b9050919050565b600060208201905081810360008301526133d281613036565b9050919050565b600060208201905081810360008301526133f281613059565b9050919050565b600060208201905081810360008301526134128161307c565b9050919050565b600060208201905081810360008301526134328161309f565b9050919050565b60006020820190508181036000830152613452816130c2565b9050919050565b60006020820190508181036000830152613472816130e5565b9050919050565b6000602082019050818103600083015261349281613108565b9050919050565b600060208201905081810360008301526134b28161312b565b9050919050565b600060208201905081810360008301526134d28161314e565b9050919050565b600060208201905081810360008301526134f281613171565b9050919050565b600060208201905061350e6000830184613194565b92915050565b60006101008201905061352a600083018b613194565b818103602083015261353c818a612e91565b905081810360408301526135508189612e91565b905061355f6060830188612dfa565b61356c6080830187612dfa565b61357960a0830186612dfa565b61358660c0830185613194565b61359360e0830184612e18565b9998505050505050505050565b60006135aa6135bb565b90506135b68282613854565b919050565b6000604051905090565b600067ffffffffffffffff8211156135e0576135df61398c565b5b6135e9826139bb565b9050602081019050919050565b600067ffffffffffffffff8211156136115761361061398c565b5b61361a826139bb565b9050602081019050919050565b600081519050919050565b600081519050919050565b600082825260208201905092915050565b600081905092915050565b600082825260208201905092915050565b600081905092915050565b6000613680826137ac565b915061368b836137ac565b9250827fffffffffffffffffffffffffffffffffffffffffffffffffffffffffffffffff038211156136c0576136bf6138ff565b5b828201905092915050565b60006136d6826137ac565b91506136e1836137ac565b9250826136f1576136f061392e565b5b828204905092915050565b6000613707826137ac565b9150613712836137ac565b925082821015613725576137246138ff565b5b828203905092915050565b600061373b8261378c565b9050919050565b600061374d8261378c565b9050919050565b60008115159050919050565b60007fffffffff0000000000000000000000000000000000000000000000000000000082169050919050565b600073ffffffffffffffffffffffffffffffffffffffff82169050919050565b6000819050919050565b82818337600083830152505050565b60005b838110156137e35780820151818401526020810190506137c8565b838111156137f2576000848401525b50505050565b6000613803826137ac565b91506000821415613817576138166138ff565b5b600182039050919050565b6000600282049050600182168061383a57607f821691505b6020821081141561384e5761384d61395d565b5b50919050565b61385d826139bb565b810181811067ffffffffffffffff8211171561387c5761387b61398c565b5b80604052505050565b6000613890826137ac565b91507fffffffffffffffffffffffffffffffffffffffffffffffffffffffffffffffff8214156138c3576138c26138ff565b5b600182019050919050565b60006138d9826137ac565b91506138e4836137ac565b9250826138f4576138f361392e565b5b828206905092915050565b7f4e487b7100000000000000000000000000000000000000000000000000000000600052601160045260246000fd5b7f4e487b7100000000000000000000000000000000000000000000000000000000600052601260045260246000fd5b7f4e487b7100000000000000000000000000000000000000000000000000000000600052602260045260246000fd5b7f4e487b7100000000000000000000000000000000000000000000000000000000600052604160045260246000fd5b6000601f19601f8301169050919050565b7f456e756d657261626c655365743a20696e646578206f7574206f6620626f756e60008201527f6473000000000000000000000000000000000000000000000000000000000000602082015250565b7f4552433732313a207472616e7366657220746f206e6f6e20455243373231526560008201527f63656976657220696d706c656d656e7465720000000000000000000000000000602082015250565b7f4552433732313a20746f6b656e20616c7265616479206d696e74656400000000600082015250565b7f4552433732313a207472616e7366657220746f20746865207a65726f2061646460008201527f7265737300000000000000000000000000000000000000000000000000000000602082015250565b7f4552433732313a20617070726f766520746f2063616c6c657200000000000000600082015250565b7f416464726573733a20696e73756666696369656e742062616c616e636520666f60008201527f722063616c6c0000000000000000000000000000000000000000000000000000602082015250565b7f4552433732313a206f70657261746f7220717565727920666f72206e6f6e657860008201527f697374656e7420746f6b656e0000000000000000000000000000000000000000602082015250565b7f4552433732313a20617070726f76652063616c6c6572206973206e6f74206f7760008201527f6e6572206e6f7220617070726f76656420666f7220616c6c0000000000000000602082015250565b7f4552433732313a2062616c616e636520717565727920666f7220746865207a6560008201527f726f206164647265737300000000000000000000000000000000000000000000602082015250565b7f456e756d657261626c654d61703a20696e646578206f7574206f6620626f756e60008201527f6473000000000000000000000000000000000000000000000000000000000000602082015250565b7f4552433732313a206d696e7420746f20746865207a65726f2061646472657373600082015250565b7f4552433732313a20617070726f76656420717565727920666f72206e6f6e657860008201527f697374656e7420746f6b656e0000000000000000000000000000000000000000602082015250565b7f4552433732314d657461646174613a2055524920736574206f66206e6f6e657860008201527f697374656e7420746f6b656e0000000000000000000000000000000000000000602082015250565b7f4552433732313a207472616e73666572206f6620746f6b656e2074686174206960008201527f73206e6f74206f776e0000000000000000000000000000000000000000000000602082015250565b7f4552433732314d657461646174613a2055524920717565727920666f72206e6f60008201527f6e6578697374656e7420746f6b656e0000000000000000000000000000000000602082015250565b7f4552433732313a20617070726f76616c20746f2063757272656e74206f776e6560008201527f7200000000000000000000000000000000000000000000000000000000000000602082015250565b7f4552433732313a207472616e736665722063616c6c6572206973206e6f74206f60008201527f776e6572206e6f7220617070726f766564000000000000000000000000000000602082015250565b7f416464726573733a2063616c6c20746f206e6f6e2d636f6e7472616374000000600082015250565b7f4e6f7420656e6f756768204554482073656e743b20636865636b20707269636560008201527f2100000000000000000000000000000000000000000000000000000000000000602082015250565b613f1a81613730565b8114613f2557600080fd5b50565b613f3181613754565b8114613f3c57600080fd5b50565b613f4881613760565b8114613f5357600080fd5b50565b613f5f816137ac565b8114613f6a57600080fd5b5056fe4552433732313a207472616e7366657220746f206e6f6e20455243373231526563656976657220696d706c656d656e7465724552433732313a206f776e657220717565727920666f72206e6f6e6578697374656e7420746f6b656ea2646970667358221220aefffd5fcbe2c89336f0fd5474ae67f4f46a39e1953211b45928b88253fbcfd664736f6c63430008030033",
  "immutableReferences": {},
  "source": "// SPDX-License-Identifier: MIT\r\npragma solidity >=0.4.22 <0.9.0;\r\n\r\n// import ERC721 interface\r\nimport \"./ERC721.sol\";\r\n\r\n// Arts smart contract inherits ERC721 Interface\r\ncontract Arts is ERC721 {\r\n    // string public collectionName;\r\n    // string public collectionSymbol;\r\n    uint256 public artCounter;\r\n\r\n    // Defining Art struct\r\n    struct Art {\r\n        uint256 tokenId;\r\n        string tokenName;\r\n        string tokenURI;\r\n        address payable mintedBy;\r\n        address payable currentOwner;\r\n        address payable previousOwner;\r\n        uint256 price;\r\n        bool forSale;\r\n    }\r\n\r\n    // map arts's token id to artwork\r\n    mapping(uint256 => Art) public allArts;\r\n    // check if token name exists\r\n    mapping(string => bool) public tokenNameExists;\r\n    // check if token URI exists\r\n    mapping(string => bool) public tokenURIExists;\r\n\r\n    // initialize contract while deployment with contract's collection name and token\r\n    constructor() ERC721(\"Art Work NFT\", \"ART\") {\r\n        // collectionName = name();\r\n        // collectionSymbol = symbol();\r\n    }\r\n\r\n    // Minting a new art function\r\n    function mintArt(\r\n        string memory _name,\r\n        string memory _tokenURI,\r\n        uint256 _price\r\n    ) public payable {\r\n        require(msg.sender != address(0));\r\n\r\n        artCounter++;\r\n\r\n        // Checking for requirements\r\n        require(!_exists(artCounter));\r\n        require(!tokenURIExists[_tokenURI]);\r\n        require(!tokenNameExists[_name]);\r\n        require(!_exists(artCounter));\r\n\r\n        // Mint the token here\r\n        _safeMint(msg.sender, artCounter);\r\n\r\n        // set token URI (bind token id with the passed in token URI)\r\n        _setTokenURI(artCounter, _tokenURI);\r\n        // make passed token URI as exists\r\n        tokenURIExists[_tokenURI] = true;\r\n        // make token name passed as exists\r\n        // tokenNameExists[_name] = true;\r\n\r\n        // Create a new art and pass new values\r\n        Art memory newArt = Art(\r\n            artCounter,\r\n            _name,\r\n            _tokenURI,\r\n            payable(msg.sender),\r\n            payable(msg.sender),\r\n            payable(address(0)),\r\n            _price,\r\n            true\r\n        );\r\n        allArts[artCounter] = newArt;\r\n    }\r\n\r\n    // Get owner of the token\r\n    function getTokenOwner(uint256 _tokenId) public view returns (address) {\r\n        address _tokenOwner = ownerOf(_tokenId);\r\n        return _tokenOwner;\r\n    }\r\n\r\n    // Get Metadata of the token\r\n    function getTokenMetaData(uint256 _tokenId)\r\n        public\r\n        view\r\n        returns (string memory)\r\n    {\r\n        string memory tokenMetaData = tokenURI(_tokenId);\r\n        return tokenMetaData;\r\n    }\r\n\r\n    // Get total number of tokens minted\r\n    function getNumberOfTokensMinted() public view returns (uint256) {\r\n        uint256 totalNumberOfTokensMinted = totalSupply();\r\n        return totalNumberOfTokensMinted;\r\n    }\r\n\r\n    // get total number of tokens owned by an address\r\n    function getTotalNumberOfTokensOwnedByAnAddress(address _owner)\r\n        public\r\n        view\r\n        returns (uint256)\r\n    {\r\n        uint256 totalNumberOfTokensOwned = balanceOf(_owner);\r\n        return totalNumberOfTokensOwned;\r\n    }\r\n\r\n    // check if the token already exists\r\n    function getTokenExists(uint256 _tokenId) public view returns (bool) {\r\n        bool tokenExists = _exists(_tokenId);\r\n        return tokenExists;\r\n    }\r\n\r\n    // Buy Art\r\n    function buyArt(uint256 _tokenId) external payable {\r\n        require(\r\n            msg.value >= 50000000000000000,\r\n            \"Not enough ETH sent; check price!\"\r\n        );\r\n        transferFrom(ownerOf(_tokenId), msg.sender, _tokenId);\r\n    }\r\n}\r\n",
  "sourcePath": "D:\\Shah Faisal\\Projects\\nft-marketplace-p2\\contracts\\Arts.sol",
  "compiler": {
    "name": "solc",
    "version": "0.8.3+commit.8d00100c.Emscripten.clang"
  },
  "schemaVersion": "3.4.3",
  "updatedAt": "2021-12-14T12:24:06.257Z",
  "networkType": "ethereum",
  "devdoc": {
    "kind": "dev",
    "methods": {
      "approve(address,uint256)": {
        "details": "See {IERC721-approve}."
      },
      "balanceOf(address)": {
        "details": "See {IERC721-balanceOf}."
      },
      "baseURI()": {
        "details": "Returns the base URI set via {_setBaseURI}. This will be automatically added as a prefix in {tokenURI} to each token's URI, or to the token ID if no specific URI is set for that token ID."
      },
      "getApproved(uint256)": {
        "details": "See {IERC721-getApproved}."
      },
      "isApprovedForAll(address,address)": {
        "details": "See {IERC721-isApprovedForAll}."
      },
      "name()": {
        "details": "See {IERC721Metadata-name}."
      },
      "ownerOf(uint256)": {
        "details": "See {IERC721-ownerOf}."
      },
      "safeTransferFrom(address,address,uint256)": {
        "details": "See {IERC721-safeTransferFrom}."
      },
      "safeTransferFrom(address,address,uint256,bytes)": {
        "details": "See {IERC721-safeTransferFrom}."
      },
      "setApprovalForAll(address,bool)": {
        "details": "See {IERC721-setApprovalForAll}."
      },
      "supportsInterface(bytes4)": {
        "details": "See {IERC165-supportsInterface}. Time complexity O(1), guaranteed to always use less than 30 000 gas."
      },
      "symbol()": {
        "details": "See {IERC721Metadata-symbol}."
      },
      "tokenByIndex(uint256)": {
        "details": "See {IERC721Enumerable-tokenByIndex}."
      },
      "tokenOfOwnerByIndex(address,uint256)": {
        "details": "See {IERC721Enumerable-tokenOfOwnerByIndex}."
      },
      "tokenURI(uint256)": {
        "details": "See {IERC721Metadata-tokenURI}."
      },
      "totalSupply()": {
        "details": "See {IERC721Enumerable-totalSupply}."
      },
      "transferFrom(address,address,uint256)": {
        "details": "See {IERC721-transferFrom}."
      }
    },
    "version": 1
  },
  "userdoc": {
    "kind": "user",
    "methods": {},
    "version": 1
  }
}