{
  "contractName": "Cake",
  "abi": [
    {
      "inputs": [],
      "stateMutability": "nonpayable",
      "type": "constructor"
    },
    {
      "anonymous": false,
      "inputs": [
        {
          "indexed": true,
          "internalType": "address",
          "name": "owner",
          "type": "address"
        },
        {
          "indexed": true,
          "internalType": "address",
          "name": "approved",
          "type": "address"
        },
        {
          "indexed": true,
          "internalType": "uint256",
          "name": "tokenId",
          "type": "uint256"
        }
      ],
      "name": "Approval",
      "type": "event"
    },
    {
      "anonymous": false,
      "inputs": [
        {
          "indexed": true,
          "internalType": "address",
          "name": "owner",
          "type": "address"
        },
        {
          "indexed": true,
          "internalType": "address",
          "name": "operator",
          "type": "address"
        },
        {
          "indexed": false,
          "internalType": "bool",
          "name": "approved",
          "type": "bool"
        }
      ],
      "name": "ApprovalForAll",
      "type": "event"
    },
    {
      "anonymous": false,
      "inputs": [
        {
          "indexed": true,
          "internalType": "address",
          "name": "previousOwner",
          "type": "address"
        },
        {
          "indexed": true,
          "internalType": "address",
          "name": "newOwner",
          "type": "address"
        }
      ],
      "name": "OwnershipTransferred",
      "type": "event"
    },
    {
      "anonymous": false,
      "inputs": [
        {
          "indexed": true,
          "internalType": "address",
          "name": "from",
          "type": "address"
        },
        {
          "indexed": true,
          "internalType": "address",
          "name": "to",
          "type": "address"
        },
        {
          "indexed": true,
          "internalType": "uint256",
          "name": "tokenId",
          "type": "uint256"
        }
      ],
      "name": "Transfer",
      "type": "event"
    },
    {
      "inputs": [
        {
          "internalType": "address",
          "name": "to",
          "type": "address"
        },
        {
          "internalType": "uint256",
          "name": "tokenId",
          "type": "uint256"
        }
      ],
      "name": "approve",
      "outputs": [],
      "stateMutability": "nonpayable",
      "type": "function"
    },
    {
      "inputs": [
        {
          "internalType": "address",
          "name": "owner",
          "type": "address"
        }
      ],
      "name": "balanceOf",
      "outputs": [
        {
          "internalType": "uint256",
          "name": "",
          "type": "uint256"
        }
      ],
      "stateMutability": "view",
      "type": "function",
      "constant": true
    },
    {
      "inputs": [],
      "name": "cakeCounter",
      "outputs": [
        {
          "internalType": "uint256",
          "name": "",
          "type": "uint256"
        }
      ],
      "stateMutability": "view",
      "type": "function",
      "constant": true
    },
    {
      "inputs": [
        {
          "internalType": "uint256",
          "name": "tokenId",
          "type": "uint256"
        }
      ],
      "name": "getApproved",
      "outputs": [
        {
          "internalType": "address",
          "name": "",
          "type": "address"
        }
      ],
      "stateMutability": "view",
      "type": "function",
      "constant": true
    },
    {
      "inputs": [
        {
          "internalType": "address",
          "name": "owner",
          "type": "address"
        },
        {
          "internalType": "address",
          "name": "operator",
          "type": "address"
        }
      ],
      "name": "isApprovedForAll",
      "outputs": [
        {
          "internalType": "bool",
          "name": "",
          "type": "bool"
        }
      ],
      "stateMutability": "view",
      "type": "function",
      "constant": true
    },
    {
      "inputs": [],
      "name": "name",
      "outputs": [
        {
          "internalType": "string",
          "name": "",
          "type": "string"
        }
      ],
      "stateMutability": "view",
      "type": "function",
      "constant": true
    },
    {
      "inputs": [],
      "name": "notRevealedUri",
      "outputs": [
        {
          "internalType": "string",
          "name": "",
          "type": "string"
        }
      ],
      "stateMutability": "view",
      "type": "function",
      "constant": true
    },
    {
      "inputs": [],
      "name": "owner",
      "outputs": [
        {
          "internalType": "address",
          "name": "",
          "type": "address"
        }
      ],
      "stateMutability": "view",
      "type": "function",
      "constant": true
    },
    {
      "inputs": [
        {
          "internalType": "uint256",
          "name": "tokenId",
          "type": "uint256"
        }
      ],
      "name": "ownerOf",
      "outputs": [
        {
          "internalType": "address",
          "name": "",
          "type": "address"
        }
      ],
      "stateMutability": "view",
      "type": "function",
      "constant": true
    },
    {
      "inputs": [],
      "name": "renounceOwnership",
      "outputs": [],
      "stateMutability": "nonpayable",
      "type": "function"
    },
    {
      "inputs": [],
      "name": "revealed",
      "outputs": [
        {
          "internalType": "bool",
          "name": "",
          "type": "bool"
        }
      ],
      "stateMutability": "view",
      "type": "function",
      "constant": true
    },
    {
      "inputs": [
        {
          "internalType": "address",
          "name": "from",
          "type": "address"
        },
        {
          "internalType": "address",
          "name": "to",
          "type": "address"
        },
        {
          "internalType": "uint256",
          "name": "tokenId",
          "type": "uint256"
        }
      ],
      "name": "safeTransferFrom",
      "outputs": [],
      "stateMutability": "nonpayable",
      "type": "function"
    },
    {
      "inputs": [
        {
          "internalType": "address",
          "name": "from",
          "type": "address"
        },
        {
          "internalType": "address",
          "name": "to",
          "type": "address"
        },
        {
          "internalType": "uint256",
          "name": "tokenId",
          "type": "uint256"
        },
        {
          "internalType": "bytes",
          "name": "_data",
          "type": "bytes"
        }
      ],
      "name": "safeTransferFrom",
      "outputs": [],
      "stateMutability": "nonpayable",
      "type": "function"
    },
    {
      "inputs": [
        {
          "internalType": "address",
          "name": "operator",
          "type": "address"
        },
        {
          "internalType": "bool",
          "name": "approved",
          "type": "bool"
        }
      ],
      "name": "setApprovalForAll",
      "outputs": [],
      "stateMutability": "nonpayable",
      "type": "function"
    },
    {
      "inputs": [
        {
          "internalType": "bytes4",
          "name": "interfaceId",
          "type": "bytes4"
        }
      ],
      "name": "supportsInterface",
      "outputs": [
        {
          "internalType": "bool",
          "name": "",
          "type": "bool"
        }
      ],
      "stateMutability": "view",
      "type": "function",
      "constant": true
    },
    {
      "inputs": [],
      "name": "symbol",
      "outputs": [
        {
          "internalType": "string",
          "name": "",
          "type": "string"
        }
      ],
      "stateMutability": "view",
      "type": "function",
      "constant": true
    },
    {
      "inputs": [
        {
          "internalType": "uint256",
          "name": "index",
          "type": "uint256"
        }
      ],
      "name": "tokenByIndex",
      "outputs": [
        {
          "internalType": "uint256",
          "name": "",
          "type": "uint256"
        }
      ],
      "stateMutability": "view",
      "type": "function",
      "constant": true
    },
    {
      "inputs": [
        {
          "internalType": "string",
          "name": "",
          "type": "string"
        }
      ],
      "name": "tokenNameExists",
      "outputs": [
        {
          "internalType": "bool",
          "name": "",
          "type": "bool"
        }
      ],
      "stateMutability": "view",
      "type": "function",
      "constant": true
    },
    {
      "inputs": [
        {
          "internalType": "address",
          "name": "owner",
          "type": "address"
        },
        {
          "internalType": "uint256",
          "name": "index",
          "type": "uint256"
        }
      ],
      "name": "tokenOfOwnerByIndex",
      "outputs": [
        {
          "internalType": "uint256",
          "name": "",
          "type": "uint256"
        }
      ],
      "stateMutability": "view",
      "type": "function",
      "constant": true
    },
    {
      "inputs": [
        {
          "internalType": "string",
          "name": "",
          "type": "string"
        }
      ],
      "name": "tokenURIExists",
      "outputs": [
        {
          "internalType": "bool",
          "name": "",
          "type": "bool"
        }
      ],
      "stateMutability": "view",
      "type": "function",
      "constant": true
    },
    {
      "inputs": [],
      "name": "totalSupply",
      "outputs": [
        {
          "internalType": "uint256",
          "name": "",
          "type": "uint256"
        }
      ],
      "stateMutability": "view",
      "type": "function",
      "constant": true
    },
    {
      "inputs": [
        {
          "internalType": "address",
          "name": "from",
          "type": "address"
        },
        {
          "internalType": "address",
          "name": "to",
          "type": "address"
        },
        {
          "internalType": "uint256",
          "name": "tokenId",
          "type": "uint256"
        }
      ],
      "name": "transferFrom",
      "outputs": [],
      "stateMutability": "nonpayable",
      "type": "function"
    },
    {
      "inputs": [
        {
          "internalType": "address",
          "name": "newOwner",
          "type": "address"
        }
      ],
      "name": "transferOwnership",
      "outputs": [],
      "stateMutability": "nonpayable",
      "type": "function"
    },
    {
      "inputs": [
        {
          "internalType": "string",
          "name": "baseURI_",
          "type": "string"
        }
      ],
      "name": "setBaseURI",
      "outputs": [],
      "stateMutability": "nonpayable",
      "type": "function"
    },
    {
      "inputs": [
        {
          "internalType": "uint256",
          "name": "tokenId",
          "type": "uint256"
        }
      ],
      "name": "tokenURI",
      "outputs": [
        {
          "internalType": "string",
          "name": "",
          "type": "string"
        }
      ],
      "stateMutability": "view",
      "type": "function",
      "constant": true
    },
    {
      "inputs": [
        {
          "internalType": "bool",
          "name": "_state",
          "type": "bool"
        }
      ],
      "name": "reveal",
      "outputs": [],
      "stateMutability": "nonpayable",
      "type": "function"
    },
    {
      "inputs": [
        {
          "internalType": "string",
          "name": "_notRevealedURI",
          "type": "string"
        }
      ],
      "name": "setNotRevealedURI",
      "outputs": [],
      "stateMutability": "nonpayable",
      "type": "function"
    },
    {
      "inputs": [
        {
          "internalType": "string",
          "name": "_tokenURI",
          "type": "string"
        }
      ],
      "name": "mintCake",
      "outputs": [],
      "stateMutability": "payable",
      "type": "function",
      "payable": true
    },
    {
      "inputs": [
        {
          "internalType": "uint256",
          "name": "_tokenId",
          "type": "uint256"
        }
      ],
      "name": "getTokenOwner",
      "outputs": [
        {
          "internalType": "address",
          "name": "",
          "type": "address"
        }
      ],
      "stateMutability": "view",
      "type": "function",
      "constant": true
    },
    {
      "inputs": [
        {
          "internalType": "uint256",
          "name": "_tokenId",
          "type": "uint256"
        }
      ],
      "name": "getTokenMetaData",
      "outputs": [
        {
          "internalType": "string",
          "name": "",
          "type": "string"
        }
      ],
      "stateMutability": "view",
      "type": "function",
      "constant": true
    },
    {
      "inputs": [],
      "name": "getNumberOfTokensMinted",
      "outputs": [
        {
          "internalType": "uint256",
          "name": "",
          "type": "uint256"
        }
      ],
      "stateMutability": "view",
      "type": "function",
      "constant": true
    },
    {
      "inputs": [
        {
          "internalType": "address",
          "name": "_owner",
          "type": "address"
        }
      ],
      "name": "getTotalNumberOfTokensOwnedByAnAddress",
      "outputs": [
        {
          "internalType": "uint256",
          "name": "",
          "type": "uint256"
        }
      ],
      "stateMutability": "view",
      "type": "function",
      "constant": true
    }
  ],
  "bytecode": "0x608060405260405180602001604052806000815250600c90805190602001906200002b9291906200022d565b506000600e60006101000a81548160ff0219169083151502179055503480156200005457600080fd5b506040518060400160405280600c81526020017f43616b652050726f6a65637400000000000000000000000000000000000000008152506040518060400160405280600481526020017f43414b4500000000000000000000000000000000000000000000000000000000815250620000e1620000d56200014560201b60201c565b6200014d60201b60201c565b8160019080519060200190620000f99291906200022d565b508060029080519060200190620001129291906200022d565b5050506200013f6040518060800160405280604a81526020016200426e604a91396200021160201b60201c565b62000342565b600033905090565b60008060009054906101000a900473ffffffffffffffffffffffffffffffffffffffff169050816000806101000a81548173ffffffffffffffffffffffffffffffffffffffff021916908373ffffffffffffffffffffffffffffffffffffffff1602179055508173ffffffffffffffffffffffffffffffffffffffff168173ffffffffffffffffffffffffffffffffffffffff167f8be0079c531659141344cd1fd0a4f28419497f9722a3daafe3b4186f6b6457e060405160405180910390a35050565b80600d9080519060200190620002299291906200022d565b5050565b8280546200023b906200030c565b90600052602060002090601f0160209004810192826200025f5760008555620002ab565b82601f106200027a57805160ff1916838001178555620002ab565b82800160010185558215620002ab579182015b82811115620002aa5782518255916020019190600101906200028d565b5b509050620002ba9190620002be565b5090565b5b80821115620002d9576000816000905550600101620002bf565b5090565b7f4e487b7100000000000000000000000000000000000000000000000000000000600052602260045260246000fd5b600060028204905060018216806200032557607f821691505b602082108114156200033c576200033b620002dd565b5b50919050565b613f1c80620003526000396000f3fe6080604052600436106101e35760003560e01c806367c623cf11610102578063a46b1fac11610095578063cc151f3a11610064578063cc151f3a14610743578063e985e9c51461076e578063f2c4ce1e146107ab578063f2fde38b146107d4576101e3565b8063a46b1fac14610663578063a5cd761f146106a0578063b88d4fde146106dd578063c87b56dd14610706576101e3565b8063940cd05b116100d1578063940cd05b146105ca57806395d89b41146105f3578063a0f2bb701461061e578063a22cb4651461063a576101e3565b806367c623cf1461050e57806370a082311461054b578063715018a6146105885780638da5cb5b1461059f576101e3565b806342842e0e1161017a5780634f6ccce7116101495780634f6ccce714610440578063518302271461047d57806355f804b3146104a85780636352211e146104d1576101e3565b806342842e0e14610372578063439028501461039b57806343d32ae7146103d85780634e31af3a14610415576101e3565b8063095ea7b3116101b6578063095ea7b3146102b857806318160ddd146102e157806323b872dd1461030c5780632f745c5914610335576101e3565b806301ffc9a7146101e857806306fdde0314610225578063081812fc14610250578063081c8c441461028d575b600080fd5b3480156101f457600080fd5b5061020f600480360381019061020a9190612a8e565b6107fd565b60405161021c9190612ad6565b60405180910390f35b34801561023157600080fd5b5061023a610877565b6040516102479190612b8a565b60405180910390f35b34801561025c57600080fd5b5061027760048036038101906102729190612be2565b610909565b6040516102849190612c50565b60405180910390f35b34801561029957600080fd5b506102a261098e565b6040516102af9190612b8a565b60405180910390f35b3480156102c457600080fd5b506102df60048036038101906102da9190612c97565b610a1c565b005b3480156102ed57600080fd5b506102f6610b34565b6040516103039190612ce6565b60405180910390f35b34801561031857600080fd5b50610333600480360381019061032e9190612d01565b610b41565b005b34801561034157600080fd5b5061035c60048036038101906103579190612c97565b610ba1565b6040516103699190612ce6565b60405180910390f35b34801561037e57600080fd5b5061039960048036038101906103949190612d01565b610c46565b005b3480156103a757600080fd5b506103c260048036038101906103bd9190612d54565b610c66565b6040516103cf9190612ce6565b60405180910390f35b3480156103e457600080fd5b506103ff60048036038101906103fa9190612eb6565b610c7d565b60405161040c9190612ad6565b60405180910390f35b34801561042157600080fd5b5061042a610cb3565b6040516104379190612ce6565b60405180910390f35b34801561044c57600080fd5b5061046760048036038101906104629190612be2565b610cb9565b6040516104749190612ce6565b60405180910390f35b34801561048957600080fd5b50610492610d2a565b60405161049f9190612ad6565b60405180910390f35b3480156104b457600080fd5b506104cf60048036038101906104ca9190612eb6565b610d3d565b005b3480156104dd57600080fd5b506104f860048036038101906104f39190612be2565b610dd3565b6040516105059190612c50565b60405180910390f35b34801561051a57600080fd5b5061053560048036038101906105309190612be2565b610e85565b6040516105429190612b8a565b60405180910390f35b34801561055757600080fd5b50610572600480360381019061056d9190612d54565b610e9d565b60405161057f9190612ce6565b60405180910390f35b34801561059457600080fd5b5061059d610f55565b005b3480156105ab57600080fd5b506105b4610fdd565b6040516105c19190612c50565b60405180910390f35b3480156105d657600080fd5b506105f160048036038101906105ec9190612f2b565b611006565b005b3480156105ff57600080fd5b5061060861109f565b6040516106159190612b8a565b60405180910390f35b61063860048036038101906106339190612eb6565b611131565b005b34801561064657600080fd5b50610661600480360381019061065c9190612f58565b611235565b005b34801561066f57600080fd5b5061068a60048036038101906106859190612eb6565b61124b565b6040516106979190612ad6565b60405180910390f35b3480156106ac57600080fd5b506106c760048036038101906106c29190612be2565b611281565b6040516106d49190612c50565b60405180910390f35b3480156106e957600080fd5b5061070460048036038101906106ff9190613039565b611298565b005b34801561071257600080fd5b5061072d60048036038101906107289190612be2565b6112fa565b60405161073a9190612b8a565b60405180910390f35b34801561074f57600080fd5b5061075861151d565b6040516107659190612ce6565b60405180910390f35b34801561077a57600080fd5b50610795600480360381019061079091906130bc565b611531565b6040516107a29190612ad6565b60405180910390f35b3480156107b757600080fd5b506107d260048036038101906107cd9190612eb6565b6115c5565b005b3480156107e057600080fd5b506107fb60048036038101906107f69190612d54565b6115df565b005b60007f780e9d63000000000000000000000000000000000000000000000000000000007bffffffffffffffffffffffffffffffffffffffffffffffffffffffff1916827bffffffffffffffffffffffffffffffffffffffffffffffffffffffff19161480610870575061086f826116d7565b5b9050919050565b6060600180546108869061312b565b80601f01602080910402602001604051908101604052809291908181526020018280546108b29061312b565b80156108ff5780601f106108d4576101008083540402835291602001916108ff565b820191906000526020600020905b8154815290600101906020018083116108e257829003601f168201915b5050505050905090565b6000610914826117b9565b610953576040517f08c379a000000000000000000000000000000000000000000000000000000000815260040161094a906131cf565b60405180910390fd5b6005600083815260200190815260200160002060009054906101000a900473ffffffffffffffffffffffffffffffffffffffff169050919050565b600d805461099b9061312b565b80601f01602080910402602001604051908101604052809291908181526020018280546109c79061312b565b8015610a145780601f106109e957610100808354040283529160200191610a14565b820191906000526020600020905b8154815290600101906020018083116109f757829003601f168201915b505050505081565b6000610a2782610dd3565b90508073ffffffffffffffffffffffffffffffffffffffff168373ffffffffffffffffffffffffffffffffffffffff161415610a98576040517f08c379a0000000000000000000000000000000000000000000000000000000008152600401610a8f90613261565b60405180910390fd5b8073ffffffffffffffffffffffffffffffffffffffff16610ab7611825565b73ffffffffffffffffffffffffffffffffffffffff161480610ae65750610ae581610ae0611825565b611531565b5b610b25576040517f08c379a0000000000000000000000000000000000000000000000000000000008152600401610b1c906132f3565b60405180910390fd5b610b2f838361182d565b505050565b6000600980549050905090565b610b52610b4c611825565b826118e6565b610b91576040517f08c379a0000000000000000000000000000000000000000000000000000000008152600401610b8890613385565b60405180910390fd5b610b9c8383836119c4565b505050565b6000610bac83610e9d565b8210610bed576040517f08c379a0000000000000000000000000000000000000000000000000000000008152600401610be490613417565b60405180910390fd5b600760008473ffffffffffffffffffffffffffffffffffffffff1673ffffffffffffffffffffffffffffffffffffffff168152602001908152602001600020600083815260200190815260200160002054905092915050565b610c6183838360405180602001604052806000815250611298565b505050565b600080610c7283610e9d565b905080915050919050565b6011818051602081018201805184825260208301602085012081835280955050505050506000915054906101000a900460ff1681565b600b5481565b6000610cc3610b34565b8210610d04576040517f08c379a0000000000000000000000000000000000000000000000000000000008152600401610cfb906134a9565b60405180910390fd5b60098281548110610d1857610d176134c9565b5b90600052602060002001549050919050565b600e60009054906101000a900460ff1681565b610d45611825565b73ffffffffffffffffffffffffffffffffffffffff16610d63610fdd565b73ffffffffffffffffffffffffffffffffffffffff1614610db9576040517f08c379a0000000000000000000000000000000000000000000000000000000008152600401610db090613544565b60405180910390fd5b80600c9080519060200190610dcf92919061297f565b5050565b6000806003600084815260200190815260200160002060009054906101000a900473ffffffffffffffffffffffffffffffffffffffff169050600073ffffffffffffffffffffffffffffffffffffffff168173ffffffffffffffffffffffffffffffffffffffff161415610e7c576040517f08c379a0000000000000000000000000000000000000000000000000000000008152600401610e73906135d6565b60405180910390fd5b80915050919050565b60606000610e92836112fa565b905080915050919050565b60008073ffffffffffffffffffffffffffffffffffffffff168273ffffffffffffffffffffffffffffffffffffffff161415610f0e576040517f08c379a0000000000000000000000000000000000000000000000000000000008152600401610f0590613668565b60405180910390fd5b600460008373ffffffffffffffffffffffffffffffffffffffff1673ffffffffffffffffffffffffffffffffffffffff168152602001908152602001600020549050919050565b610f5d611825565b73ffffffffffffffffffffffffffffffffffffffff16610f7b610fdd565b73ffffffffffffffffffffffffffffffffffffffff1614610fd1576040517f08c379a0000000000000000000000000000000000000000000000000000000008152600401610fc890613544565b60405180910390fd5b610fdb6000611c20565b565b60008060009054906101000a900473ffffffffffffffffffffffffffffffffffffffff16905090565b61100e611825565b73ffffffffffffffffffffffffffffffffffffffff1661102c610fdd565b73ffffffffffffffffffffffffffffffffffffffff1614611082576040517f08c379a000000000000000000000000000000000000000000000000000000000815260040161107990613544565b60405180910390fd5b80600e60006101000a81548160ff02191690831515021790555050565b6060600280546110ae9061312b565b80601f01602080910402602001604051908101604052809291908181526020018280546110da9061312b565b80156111275780601f106110fc57610100808354040283529160200191611127565b820191906000526020600020905b81548152906001019060200180831161110a57829003601f168201915b5050505050905090565b600073ffffffffffffffffffffffffffffffffffffffff163373ffffffffffffffffffffffffffffffffffffffff16141561116b57600080fd5b600b600081548092919061117e906136b7565b919050555061118e600b546117b9565b1561119857600080fd5b6011816040516111a8919061373c565b908152602001604051809103902060009054906101000a900460ff16156111ce57600080fd5b6111d9600b546117b9565b156111e357600080fd5b6111ef33600b54611ce4565b6111fb600b5482611d02565b600160118260405161120d919061373c565b908152602001604051809103902060006101000a81548160ff02191690831515021790555050565b611247611240611825565b8383611d76565b5050565b6010818051602081018201805184825260208301602085012081835280955050505050506000915054906101000a900460ff1681565b60008061128d83610dd3565b905080915050919050565b6112a96112a3611825565b836118e6565b6112e8576040517f08c379a00000000000000000000000000000000000000000000000000000000081526004016112df90613385565b60405180910390fd5b6112f484848484611ee3565b50505050565b6060611305826117b9565b611344576040517f08c379a000000000000000000000000000000000000000000000000000000000815260040161133b906137c5565b60405180910390fd5b6000600f600084815260200190815260200160002080546113649061312b565b80601f01602080910402602001604051908101604052809291908181526020018280546113909061312b565b80156113dd5780601f106113b2576101008083540402835291602001916113dd565b820191906000526020600020905b8154815290600101906020018083116113c057829003601f168201915b5050505050905060006113ee611f3f565b905060001515600e60009054906101000a900460ff16151514156114a057600d80546114199061312b565b80601f01602080910402602001604051908101604052809291908181526020018280546114459061312b565b80156114925780601f1061146757610100808354040283529160200191611492565b820191906000526020600020905b81548152906001019060200180831161147557829003601f168201915b505050505092505050611518565b6000815114156114b4578192505050611518565b6000825111156114e95780826040516020016114d19291906137e5565b60405160208183030381529060405292505050611518565b806114f385611fd1565b6040516020016115049291906137e5565b604051602081830303815290604052925050505b919050565b600080611528610b34565b90508091505090565b6000600660008473ffffffffffffffffffffffffffffffffffffffff1673ffffffffffffffffffffffffffffffffffffffff16815260200190815260200160002060008373ffffffffffffffffffffffffffffffffffffffff1673ffffffffffffffffffffffffffffffffffffffff16815260200190815260200160002060009054906101000a900460ff16905092915050565b80600d90805190602001906115db92919061297f565b5050565b6115e7611825565b73ffffffffffffffffffffffffffffffffffffffff16611605610fdd565b73ffffffffffffffffffffffffffffffffffffffff161461165b576040517f08c379a000000000000000000000000000000000000000000000000000000000815260040161165290613544565b60405180910390fd5b600073ffffffffffffffffffffffffffffffffffffffff168173ffffffffffffffffffffffffffffffffffffffff1614156116cb576040517f08c379a00000000000000000000000000000000000000000000000000000000081526004016116c29061387b565b60405180910390fd5b6116d481611c20565b50565b60007f80ac58cd000000000000000000000000000000000000000000000000000000007bffffffffffffffffffffffffffffffffffffffffffffffffffffffff1916827bffffffffffffffffffffffffffffffffffffffffffffffffffffffff191614806117a257507f5b5e139f000000000000000000000000000000000000000000000000000000007bffffffffffffffffffffffffffffffffffffffffffffffffffffffff1916827bffffffffffffffffffffffffffffffffffffffffffffffffffffffff1916145b806117b257506117b182612132565b5b9050919050565b60008073ffffffffffffffffffffffffffffffffffffffff166003600084815260200190815260200160002060009054906101000a900473ffffffffffffffffffffffffffffffffffffffff1673ffffffffffffffffffffffffffffffffffffffff1614159050919050565b600033905090565b816005600083815260200190815260200160002060006101000a81548173ffffffffffffffffffffffffffffffffffffffff021916908373ffffffffffffffffffffffffffffffffffffffff160217905550808273ffffffffffffffffffffffffffffffffffffffff166118a083610dd3565b73ffffffffffffffffffffffffffffffffffffffff167f8c5be1e5ebec7d5bd14f71427d1e84f3dd0314c0f7b2291e5b200ac8c7c3b92560405160405180910390a45050565b60006118f1826117b9565b611930576040517f08c379a00000000000000000000000000000000000000000000000000000000081526004016119279061390d565b60405180910390fd5b600061193b83610dd3565b90508073ffffffffffffffffffffffffffffffffffffffff168473ffffffffffffffffffffffffffffffffffffffff1614806119aa57508373ffffffffffffffffffffffffffffffffffffffff1661199284610909565b73ffffffffffffffffffffffffffffffffffffffff16145b806119bb57506119ba8185611531565b5b91505092915050565b8273ffffffffffffffffffffffffffffffffffffffff166119e482610dd3565b73ffffffffffffffffffffffffffffffffffffffff1614611a3a576040517f08c379a0000000000000000000000000000000000000000000000000000000008152600401611a319061399f565b60405180910390fd5b600073ffffffffffffffffffffffffffffffffffffffff168273ffffffffffffffffffffffffffffffffffffffff161415611aaa576040517f08c379a0000000000000000000000000000000000000000000000000000000008152600401611aa190613a31565b60405180910390fd5b611ab583838361219c565b611ac060008261182d565b6001600460008573ffffffffffffffffffffffffffffffffffffffff1673ffffffffffffffffffffffffffffffffffffffff1681526020019081526020016000206000828254611b109190613a51565b925050819055506001600460008473ffffffffffffffffffffffffffffffffffffffff1673ffffffffffffffffffffffffffffffffffffffff1681526020019081526020016000206000828254611b679190613a85565b92505081905550816003600083815260200190815260200160002060006101000a81548173ffffffffffffffffffffffffffffffffffffffff021916908373ffffffffffffffffffffffffffffffffffffffff160217905550808273ffffffffffffffffffffffffffffffffffffffff168473ffffffffffffffffffffffffffffffffffffffff167fddf252ad1be2c89b69c2b068fc378daa952ba7f163c4a11628f55a4df523b3ef60405160405180910390a4505050565b60008060009054906101000a900473ffffffffffffffffffffffffffffffffffffffff169050816000806101000a81548173ffffffffffffffffffffffffffffffffffffffff021916908373ffffffffffffffffffffffffffffffffffffffff1602179055508173ffffffffffffffffffffffffffffffffffffffff168173ffffffffffffffffffffffffffffffffffffffff167f8be0079c531659141344cd1fd0a4f28419497f9722a3daafe3b4186f6b6457e060405160405180910390a35050565b611cfe8282604051806020016040528060008152506122b0565b5050565b611d0b826117b9565b611d4a576040517f08c379a0000000000000000000000000000000000000000000000000000000008152600401611d4190613b4d565b60405180910390fd5b80600f60008481526020019081526020016000209080519060200190611d7192919061297f565b505050565b8173ffffffffffffffffffffffffffffffffffffffff168373ffffffffffffffffffffffffffffffffffffffff161415611de5576040517f08c379a0000000000000000000000000000000000000000000000000000000008152600401611ddc90613bb9565b60405180910390fd5b80600660008573ffffffffffffffffffffffffffffffffffffffff1673ffffffffffffffffffffffffffffffffffffffff16815260200190815260200160002060008473ffffffffffffffffffffffffffffffffffffffff1673ffffffffffffffffffffffffffffffffffffffff16815260200190815260200160002060006101000a81548160ff0219169083151502179055508173ffffffffffffffffffffffffffffffffffffffff168373ffffffffffffffffffffffffffffffffffffffff167f17307eab39ab6107e8899845ad3d59bd9653f200f220920489ca2b5937696c3183604051611ed69190612ad6565b60405180910390a3505050565b611eee8484846119c4565b611efa8484848461230b565b611f39576040517f08c379a0000000000000000000000000000000000000000000000000000000008152600401611f3090613c4b565b60405180910390fd5b50505050565b6060600c8054611f4e9061312b565b80601f0160208091040260200160405190810160405280929190818152602001828054611f7a9061312b565b8015611fc75780601f10611f9c57610100808354040283529160200191611fc7565b820191906000526020600020905b815481529060010190602001808311611faa57829003601f168201915b5050505050905090565b60606000821415612019576040518060400160405280600181526020017f3000000000000000000000000000000000000000000000000000000000000000815250905061212d565b600082905060005b6000821461204b578080612034906136b7565b915050600a826120449190613c9a565b9150612021565b60008167ffffffffffffffff81111561206757612066612d8b565b5b6040519080825280601f01601f1916602001820160405280156120995781602001600182028036833780820191505090505b5090505b60008514612126576001826120b29190613a51565b9150600a856120c19190613ccb565b60306120cd9190613a85565b60f81b8183815181106120e3576120e26134c9565b5b60200101907effffffffffffffffffffffffffffffffffffffffffffffffffffffffffffff1916908160001a905350600a8561211f9190613c9a565b945061209d565b8093505050505b919050565b60007f01ffc9a7000000000000000000000000000000000000000000000000000000007bffffffffffffffffffffffffffffffffffffffffffffffffffffffff1916827bffffffffffffffffffffffffffffffffffffffffffffffffffffffff1916149050919050565b6121a7838383612493565b600073ffffffffffffffffffffffffffffffffffffffff168373ffffffffffffffffffffffffffffffffffffffff1614156121ea576121e581612498565b612229565b8173ffffffffffffffffffffffffffffffffffffffff168373ffffffffffffffffffffffffffffffffffffffff16146122285761222783826124e1565b5b5b600073ffffffffffffffffffffffffffffffffffffffff168273ffffffffffffffffffffffffffffffffffffffff16141561226c576122678161264e565b6122ab565b8273ffffffffffffffffffffffffffffffffffffffff168273ffffffffffffffffffffffffffffffffffffffff16146122aa576122a9828261271f565b5b5b505050565b6122ba838361279e565b6122c7600084848461230b565b612306576040517f08c379a00000000000000000000000000000000000000000000000000000000081526004016122fd90613c4b565b60405180910390fd5b505050565b600061232c8473ffffffffffffffffffffffffffffffffffffffff1661296c565b15612486578373ffffffffffffffffffffffffffffffffffffffff1663150b7a02612355611825565b8786866040518563ffffffff1660e01b81526004016123779493929190613d51565b6020604051808303816000875af19250505080156123b357506040513d601f19601f820116820180604052508101906123b09190613db2565b60015b612436573d80600081146123e3576040519150601f19603f3d011682016040523d82523d6000602084013e6123e8565b606091505b5060008151141561242e576040517f08c379a000000000000000000000000000000000000000000000000000000000815260040161242590613c4b565b60405180910390fd5b805181602001fd5b63150b7a0260e01b7bffffffffffffffffffffffffffffffffffffffffffffffffffffffff1916817bffffffffffffffffffffffffffffffffffffffffffffffffffffffff19161491505061248b565b600190505b949350505050565b505050565b600980549050600a600083815260200190815260200160002081905550600981908060018154018082558091505060019003906000526020600020016000909190919091505550565b600060016124ee84610e9d565b6124f89190613a51565b90506000600860008481526020019081526020016000205490508181146125dd576000600760008673ffffffffffffffffffffffffffffffffffffffff1673ffffffffffffffffffffffffffffffffffffffff168152602001908152602001600020600084815260200190815260200160002054905080600760008773ffffffffffffffffffffffffffffffffffffffff1673ffffffffffffffffffffffffffffffffffffffff168152602001908152602001600020600084815260200190815260200160002081905550816008600083815260200190815260200160002081905550505b6008600084815260200190815260200160002060009055600760008573ffffffffffffffffffffffffffffffffffffffff1673ffffffffffffffffffffffffffffffffffffffff16815260200190815260200160002060008381526020019081526020016000206000905550505050565b600060016009805490506126629190613a51565b90506000600a6000848152602001908152602001600020549050600060098381548110612692576126916134c9565b5b9060005260206000200154905080600983815481106126b4576126b36134c9565b5b906000526020600020018190555081600a600083815260200190815260200160002081905550600a600085815260200190815260200160002060009055600980548061270357612702613ddf565b5b6001900381819060005260206000200160009055905550505050565b600061272a83610e9d565b905081600760008573ffffffffffffffffffffffffffffffffffffffff1673ffffffffffffffffffffffffffffffffffffffff168152602001908152602001600020600083815260200190815260200160002081905550806008600084815260200190815260200160002081905550505050565b600073ffffffffffffffffffffffffffffffffffffffff168273ffffffffffffffffffffffffffffffffffffffff16141561280e576040517f08c379a000000000000000000000000000000000000000000000000000000000815260040161280590613e5a565b60405180910390fd5b612817816117b9565b15612857576040517f08c379a000000000000000000000000000000000000000000000000000000000815260040161284e90613ec6565b60405180910390fd5b6128636000838361219c565b6001600460008473ffffffffffffffffffffffffffffffffffffffff1673ffffffffffffffffffffffffffffffffffffffff16815260200190815260200160002060008282546128b39190613a85565b92505081905550816003600083815260200190815260200160002060006101000a81548173ffffffffffffffffffffffffffffffffffffffff021916908373ffffffffffffffffffffffffffffffffffffffff160217905550808273ffffffffffffffffffffffffffffffffffffffff16600073ffffffffffffffffffffffffffffffffffffffff167fddf252ad1be2c89b69c2b068fc378daa952ba7f163c4a11628f55a4df523b3ef60405160405180910390a45050565b600080823b905060008111915050919050565b82805461298b9061312b565b90600052602060002090601f0160209004810192826129ad57600085556129f4565b82601f106129c657805160ff19168380011785556129f4565b828001600101855582156129f4579182015b828111156129f35782518255916020019190600101906129d8565b5b509050612a019190612a05565b5090565b5b80821115612a1e576000816000905550600101612a06565b5090565b6000604051905090565b600080fd5b600080fd5b60007fffffffff0000000000000000000000000000000000000000000000000000000082169050919050565b612a6b81612a36565b8114612a7657600080fd5b50565b600081359050612a8881612a62565b92915050565b600060208284031215612aa457612aa3612a2c565b5b6000612ab284828501612a79565b91505092915050565b60008115159050919050565b612ad081612abb565b82525050565b6000602082019050612aeb6000830184612ac7565b92915050565b600081519050919050565b600082825260208201905092915050565b60005b83811015612b2b578082015181840152602081019050612b10565b83811115612b3a576000848401525b50505050565b6000601f19601f8301169050919050565b6000612b5c82612af1565b612b668185612afc565b9350612b76818560208601612b0d565b612b7f81612b40565b840191505092915050565b60006020820190508181036000830152612ba48184612b51565b905092915050565b6000819050919050565b612bbf81612bac565b8114612bca57600080fd5b50565b600081359050612bdc81612bb6565b92915050565b600060208284031215612bf857612bf7612a2c565b5b6000612c0684828501612bcd565b91505092915050565b600073ffffffffffffffffffffffffffffffffffffffff82169050919050565b6000612c3a82612c0f565b9050919050565b612c4a81612c2f565b82525050565b6000602082019050612c656000830184612c41565b92915050565b612c7481612c2f565b8114612c7f57600080fd5b50565b600081359050612c9181612c6b565b92915050565b60008060408385031215612cae57612cad612a2c565b5b6000612cbc85828601612c82565b9250506020612ccd85828601612bcd565b9150509250929050565b612ce081612bac565b82525050565b6000602082019050612cfb6000830184612cd7565b92915050565b600080600060608486031215612d1a57612d19612a2c565b5b6000612d2886828701612c82565b9350506020612d3986828701612c82565b9250506040612d4a86828701612bcd565b9150509250925092565b600060208284031215612d6a57612d69612a2c565b5b6000612d7884828501612c82565b91505092915050565b600080fd5b600080fd5b7f4e487b7100000000000000000000000000000000000000000000000000000000600052604160045260246000fd5b612dc382612b40565b810181811067ffffffffffffffff82111715612de257612de1612d8b565b5b80604052505050565b6000612df5612a22565b9050612e018282612dba565b919050565b600067ffffffffffffffff821115612e2157612e20612d8b565b5b612e2a82612b40565b9050602081019050919050565b82818337600083830152505050565b6000612e59612e5484612e06565b612deb565b905082815260208101848484011115612e7557612e74612d86565b5b612e80848285612e37565b509392505050565b600082601f830112612e9d57612e9c612d81565b5b8135612ead848260208601612e46565b91505092915050565b600060208284031215612ecc57612ecb612a2c565b5b600082013567ffffffffffffffff811115612eea57612ee9612a31565b5b612ef684828501612e88565b91505092915050565b612f0881612abb565b8114612f1357600080fd5b50565b600081359050612f2581612eff565b92915050565b600060208284031215612f4157612f40612a2c565b5b6000612f4f84828501612f16565b91505092915050565b60008060408385031215612f6f57612f6e612a2c565b5b6000612f7d85828601612c82565b9250506020612f8e85828601612f16565b9150509250929050565b600067ffffffffffffffff821115612fb357612fb2612d8b565b5b612fbc82612b40565b9050602081019050919050565b6000612fdc612fd784612f98565b612deb565b905082815260208101848484011115612ff857612ff7612d86565b5b613003848285612e37565b509392505050565b600082601f8301126130205761301f612d81565b5b8135613030848260208601612fc9565b91505092915050565b6000806000806080858703121561305357613052612a2c565b5b600061306187828801612c82565b945050602061307287828801612c82565b935050604061308387828801612bcd565b925050606085013567ffffffffffffffff8111156130a4576130a3612a31565b5b6130b08782880161300b565b91505092959194509250565b600080604083850312156130d3576130d2612a2c565b5b60006130e185828601612c82565b92505060206130f285828601612c82565b9150509250929050565b7f4e487b7100000000000000000000000000000000000000000000000000000000600052602260045260246000fd5b6000600282049050600182168061314357607f821691505b60208210811415613157576131566130fc565b5b50919050565b7f4552433732313a20617070726f76656420717565727920666f72206e6f6e657860008201527f697374656e7420746f6b656e0000000000000000000000000000000000000000602082015250565b60006131b9602c83612afc565b91506131c48261315d565b604082019050919050565b600060208201905081810360008301526131e8816131ac565b9050919050565b7f4552433732313a20617070726f76616c20746f2063757272656e74206f776e6560008201527f7200000000000000000000000000000000000000000000000000000000000000602082015250565b600061324b602183612afc565b9150613256826131ef565b604082019050919050565b6000602082019050818103600083015261327a8161323e565b9050919050565b7f4552433732313a20617070726f76652063616c6c6572206973206e6f74206f7760008201527f6e6572206e6f7220617070726f76656420666f7220616c6c0000000000000000602082015250565b60006132dd603883612afc565b91506132e882613281565b604082019050919050565b6000602082019050818103600083015261330c816132d0565b9050919050565b7f4552433732313a207472616e736665722063616c6c6572206973206e6f74206f60008201527f776e6572206e6f7220617070726f766564000000000000000000000000000000602082015250565b600061336f603183612afc565b915061337a82613313565b604082019050919050565b6000602082019050818103600083015261339e81613362565b9050919050565b7f455243373231456e756d657261626c653a206f776e657220696e646578206f7560008201527f74206f6620626f756e6473000000000000000000000000000000000000000000602082015250565b6000613401602b83612afc565b915061340c826133a5565b604082019050919050565b60006020820190508181036000830152613430816133f4565b9050919050565b7f455243373231456e756d657261626c653a20676c6f62616c20696e646578206f60008201527f7574206f6620626f756e64730000000000000000000000000000000000000000602082015250565b6000613493602c83612afc565b915061349e82613437565b604082019050919050565b600060208201905081810360008301526134c281613486565b9050919050565b7f4e487b7100000000000000000000000000000000000000000000000000000000600052603260045260246000fd5b7f4f776e61626c653a2063616c6c6572206973206e6f7420746865206f776e6572600082015250565b600061352e602083612afc565b9150613539826134f8565b602082019050919050565b6000602082019050818103600083015261355d81613521565b9050919050565b7f4552433732313a206f776e657220717565727920666f72206e6f6e657869737460008201527f656e7420746f6b656e0000000000000000000000000000000000000000000000602082015250565b60006135c0602983612afc565b91506135cb82613564565b604082019050919050565b600060208201905081810360008301526135ef816135b3565b9050919050565b7f4552433732313a2062616c616e636520717565727920666f7220746865207a6560008201527f726f206164647265737300000000000000000000000000000000000000000000602082015250565b6000613652602a83612afc565b915061365d826135f6565b604082019050919050565b6000602082019050818103600083015261368181613645565b9050919050565b7f4e487b7100000000000000000000000000000000000000000000000000000000600052601160045260246000fd5b60006136c282612bac565b91507fffffffffffffffffffffffffffffffffffffffffffffffffffffffffffffffff8214156136f5576136f4613688565b5b600182019050919050565b600081905092915050565b600061371682612af1565b6137208185613700565b9350613730818560208601612b0d565b80840191505092915050565b6000613748828461370b565b915081905092915050565b7f4552433732314d657461646174613a2055524920717565727920666f72206e6f60008201527f6e6578697374656e7420746f6b656e0000000000000000000000000000000000602082015250565b60006137af602f83612afc565b91506137ba82613753565b604082019050919050565b600060208201905081810360008301526137de816137a2565b9050919050565b60006137f1828561370b565b91506137fd828461370b565b91508190509392505050565b7f4f776e61626c653a206e6577206f776e657220697320746865207a65726f206160008201527f6464726573730000000000000000000000000000000000000000000000000000602082015250565b6000613865602683612afc565b915061387082613809565b604082019050919050565b6000602082019050818103600083015261389481613858565b9050919050565b7f4552433732313a206f70657261746f7220717565727920666f72206e6f6e657860008201527f697374656e7420746f6b656e0000000000000000000000000000000000000000602082015250565b60006138f7602c83612afc565b91506139028261389b565b604082019050919050565b60006020820190508181036000830152613926816138ea565b9050919050565b7f4552433732313a207472616e73666572206f6620746f6b656e2074686174206960008201527f73206e6f74206f776e0000000000000000000000000000000000000000000000602082015250565b6000613989602983612afc565b91506139948261392d565b604082019050919050565b600060208201905081810360008301526139b88161397c565b9050919050565b7f4552433732313a207472616e7366657220746f20746865207a65726f2061646460008201527f7265737300000000000000000000000000000000000000000000000000000000602082015250565b6000613a1b602483612afc565b9150613a26826139bf565b604082019050919050565b60006020820190508181036000830152613a4a81613a0e565b9050919050565b6000613a5c82612bac565b9150613a6783612bac565b925082821015613a7a57613a79613688565b5b828203905092915050565b6000613a9082612bac565b9150613a9b83612bac565b9250827fffffffffffffffffffffffffffffffffffffffffffffffffffffffffffffffff03821115613ad057613acf613688565b5b828201905092915050565b7f4552433732314d657461646174613a2055524920736574206f66206e6f6e657860008201527f697374656e7420746f6b656e0000000000000000000000000000000000000000602082015250565b6000613b37602c83612afc565b9150613b4282613adb565b604082019050919050565b60006020820190508181036000830152613b6681613b2a565b9050919050565b7f4552433732313a20617070726f766520746f2063616c6c657200000000000000600082015250565b6000613ba3601983612afc565b9150613bae82613b6d565b602082019050919050565b60006020820190508181036000830152613bd281613b96565b9050919050565b7f4552433732313a207472616e7366657220746f206e6f6e20455243373231526560008201527f63656976657220696d706c656d656e7465720000000000000000000000000000602082015250565b6000613c35603283612afc565b9150613c4082613bd9565b604082019050919050565b60006020820190508181036000830152613c6481613c28565b9050919050565b7f4e487b7100000000000000000000000000000000000000000000000000000000600052601260045260246000fd5b6000613ca582612bac565b9150613cb083612bac565b925082613cc057613cbf613c6b565b5b828204905092915050565b6000613cd682612bac565b9150613ce183612bac565b925082613cf157613cf0613c6b565b5b828206905092915050565b600081519050919050565b600082825260208201905092915050565b6000613d2382613cfc565b613d2d8185613d07565b9350613d3d818560208601612b0d565b613d4681612b40565b840191505092915050565b6000608082019050613d666000830187612c41565b613d736020830186612c41565b613d806040830185612cd7565b8181036060830152613d928184613d18565b905095945050505050565b600081519050613dac81612a62565b92915050565b600060208284031215613dc857613dc7612a2c565b5b6000613dd684828501613d9d565b91505092915050565b7f4e487b7100000000000000000000000000000000000000000000000000000000600052603160045260246000fd5b7f4552433732313a206d696e7420746f20746865207a65726f2061646472657373600082015250565b6000613e44602083612afc565b9150613e4f82613e0e565b602082019050919050565b60006020820190508181036000830152613e7381613e37565b9050919050565b7f4552433732313a20746f6b656e20616c7265616479206d696e74656400000000600082015250565b6000613eb0601c83612afc565b9150613ebb82613e7a565b602082019050919050565b60006020820190508181036000830152613edf81613ea3565b905091905056fea26469706673582212203a708dec46515d2dd5c7edf70f066f29d27aee65e8bcb2e34bf813d91bfc114b64736f6c634300080b003368747470733a2f2f697066732e696e667572612e696f2f697066732f516d4e774e325573367546476f5059586e586a68776d6d625052775779507167315156377464536f477748706935",
  "immutableReferences": {},
  "source": "// SPDX-License-Identifier: MIT\r\npragma solidity >=0.5.0 <0.9.0;\r\n\r\n// import ERC721 interface\r\n// import \"@openzeppelin/contracts/token/ERC721/ERC721.sol\";\r\nimport \"@openzeppelin/contracts/access/Ownable.sol\";\r\nimport \"@openzeppelin/contracts/token/ERC721/extensions/ERC721Enumerable.sol\";\r\nimport \"@openzeppelin/contracts/utils/Strings.sol\";\r\nimport \"@openzeppelin/contracts/utils/math/SafeMath.sol\";\r\n\r\n// Cake smart contract inherits ERC721 Interface\r\ncontract Cake is Ownable, ERC721Enumerable {\r\n    using SafeMath for uint256;\r\n    using Strings for uint256;\r\n\r\n    uint256 public cakeCounter;\r\n    string private _baseURIextended = \"\";\r\n    // string public baseExtension = \".json\";\r\n    string public notRevealedUri;\r\n    bool public revealed = false;\r\n\r\n\r\n    // Optional mapping for token URIs\r\n    mapping(uint256 => string) private _tokenURIs;\r\n    // check if token name exists\r\n    mapping(string => bool) public tokenNameExists;\r\n    // check if token URI exists\r\n    mapping(string => bool) public tokenURIExists;\r\n\r\n    // initialize contract while deployment with contract's collection name and token\r\n    constructor() ERC721(\"Cake Project\", \"CAKE\") {\r\n        setNotRevealedURI(\"https://ipfs.infura.io/ipfs/QmNwN2Us6uFGoPYXnXjhwmmbPRwWyPqg1QV7tdSoGwHpi5\");        \r\n    }\r\n\r\n    function setBaseURI(string memory baseURI_) external onlyOwner {\r\n        _baseURIextended = baseURI_;\r\n    }\r\n\r\n    function _setTokenURI(uint256 tokenId, string memory _tokenURI)\r\n        internal\r\n        virtual\r\n    {\r\n        require(\r\n            _exists(tokenId),\r\n            \"ERC721Metadata: URI set of nonexistent token\"\r\n        );\r\n        _tokenURIs[tokenId] = _tokenURI;\r\n    }\r\n\r\n    function _baseURI() internal view virtual override returns (string memory) {\r\n        return _baseURIextended;\r\n    }\r\n\r\n    function tokenURI(uint256 tokenId)\r\n        public\r\n        view\r\n        virtual\r\n        override\r\n        returns (string memory)\r\n    {\r\n        require(\r\n            _exists(tokenId),\r\n            \"ERC721Metadata: URI query for nonexistent token\"\r\n        );\r\n\r\n        string memory _tokenURI = _tokenURIs[tokenId];\r\n        string memory base = _baseURI();\r\n\r\n        if (revealed == false) {\r\n            return notRevealedUri;\r\n        } \r\n\r\n        // If there is no base URI, return the token URI.\r\n        if (bytes(base).length == 0) {\r\n            return _tokenURI;\r\n        }\r\n        \r\n        // If both are set, concatenate the baseURI and tokenURI (via abi.encodePacked).\r\n        if (bytes(_tokenURI).length > 0) {\r\n            return string(abi.encodePacked(base, _tokenURI));\r\n        }\r\n        // If there is a baseURI but no tokenURI, concatenate the tokenID to the baseURI.\r\n        return string(abi.encodePacked(base, tokenId.toString()));\r\n    }\r\n\r\n\r\n    //ONLY OWNER FUNCTIONS BELOW\r\n    // reveal function\r\n    function reveal(bool _state) public onlyOwner {\r\n        revealed = _state;\r\n    }\r\n\r\n    // Set  not revealed URI\r\n    function setNotRevealedURI(string memory _notRevealedURI) public {\r\n        notRevealedUri = _notRevealedURI;\r\n    }\r\n\r\n\r\n    // Minting a new cake function\r\n    function mintCake(\r\n        string memory _tokenURI\r\n    ) public payable\r\n    {\r\n        require(msg.sender != address(0));\r\n\r\n        cakeCounter++;\r\n\r\n        // Checking for requirements\r\n        require(!_exists(cakeCounter));\r\n        require(!tokenURIExists[_tokenURI]);\r\n        require(!_exists(cakeCounter));\r\n\r\n        // Mint the token here\r\n        _safeMint(msg.sender, cakeCounter);\r\n\r\n        // set token URI (bind token id with the passed in token URI)\r\n        _setTokenURI(cakeCounter, _tokenURI);\r\n        // make passed token URI as exists\r\n        tokenURIExists[_tokenURI] = true;\r\n    }\r\n\r\n    // Get owner of the token\r\n    function getTokenOwner(uint256 _tokenId) public view returns (address) {\r\n        address _tokenOwner = ownerOf(_tokenId);\r\n        return _tokenOwner;\r\n    }\r\n\r\n    // Get Metadata of the token\r\n    function getTokenMetaData(uint256 _tokenId)\r\n        public\r\n        view\r\n        returns (string memory)\r\n    {\r\n        string memory tokenMetaData = tokenURI(_tokenId);\r\n        return tokenMetaData;\r\n    }\r\n\r\n    // Get total number of tokens minted\r\n    function getNumberOfTokensMinted() public view returns (uint256) {\r\n        uint256 totalNumberOfTokensMinted = totalSupply();\r\n        return totalNumberOfTokensMinted;\r\n    }\r\n\r\n    // get total number of tokens owned by an address\r\n    function getTotalNumberOfTokensOwnedByAnAddress(address _owner)\r\n        public\r\n        view\r\n        returns (uint256)\r\n    {\r\n        uint256 totalNumberOfTokensOwned = balanceOf(_owner);\r\n        return totalNumberOfTokensOwned;\r\n    }\r\n\r\n}",
  "sourcePath": "D:\\Shah Faisal\\Projects\\cake-project-nft\\contracts\\Cake.sol",
  "compiler": {
    "name": "solc",
    "version": "0.8.11+commit.d7f03943.Emscripten.clang"
  },
  "schemaVersion": "3.4.4",
  "updatedAt": "2022-01-21T11:55:52.746Z",
  "networkType": "ethereum",
  "devdoc": {
    "kind": "dev",
    "methods": {
      "approve(address,uint256)": {
        "details": "See {IERC721-approve}."
      },
      "balanceOf(address)": {
        "details": "See {IERC721-balanceOf}."
      },
      "getApproved(uint256)": {
        "details": "See {IERC721-getApproved}."
      },
      "isApprovedForAll(address,address)": {
        "details": "See {IERC721-isApprovedForAll}."
      },
      "name()": {
        "details": "See {IERC721Metadata-name}."
      },
      "owner()": {
        "details": "Returns the address of the current owner."
      },
      "ownerOf(uint256)": {
        "details": "See {IERC721-ownerOf}."
      },
      "renounceOwnership()": {
        "details": "Leaves the contract without owner. It will not be possible to call `onlyOwner` functions anymore. Can only be called by the current owner. NOTE: Renouncing ownership will leave the contract without an owner, thereby removing any functionality that is only available to the owner."
      },
      "safeTransferFrom(address,address,uint256)": {
        "details": "See {IERC721-safeTransferFrom}."
      },
      "safeTransferFrom(address,address,uint256,bytes)": {
        "details": "See {IERC721-safeTransferFrom}."
      },
      "setApprovalForAll(address,bool)": {
        "details": "See {IERC721-setApprovalForAll}."
      },
      "supportsInterface(bytes4)": {
        "details": "See {IERC165-supportsInterface}."
      },
      "symbol()": {
        "details": "See {IERC721Metadata-symbol}."
      },
      "tokenByIndex(uint256)": {
        "details": "See {IERC721Enumerable-tokenByIndex}."
      },
      "tokenOfOwnerByIndex(address,uint256)": {
        "details": "See {IERC721Enumerable-tokenOfOwnerByIndex}."
      },
      "tokenURI(uint256)": {
        "details": "See {IERC721Metadata-tokenURI}."
      },
      "totalSupply()": {
        "details": "See {IERC721Enumerable-totalSupply}."
      },
      "transferFrom(address,address,uint256)": {
        "details": "See {IERC721-transferFrom}."
      },
      "transferOwnership(address)": {
        "details": "Transfers ownership of the contract to a new account (`newOwner`). Can only be called by the current owner."
      }
    },
    "version": 1
  },
  "userdoc": {
    "kind": "user",
    "methods": {},
    "version": 1
  }
}