{
  "contractName": "Cake",
  "abi": [
    {
      "inputs": [],
      "stateMutability": "nonpayable",
      "type": "constructor"
    },
    {
      "anonymous": false,
      "inputs": [
        {
          "indexed": true,
          "internalType": "address",
          "name": "owner",
          "type": "address"
        },
        {
          "indexed": true,
          "internalType": "address",
          "name": "approved",
          "type": "address"
        },
        {
          "indexed": true,
          "internalType": "uint256",
          "name": "tokenId",
          "type": "uint256"
        }
      ],
      "name": "Approval",
      "type": "event"
    },
    {
      "anonymous": false,
      "inputs": [
        {
          "indexed": true,
          "internalType": "address",
          "name": "owner",
          "type": "address"
        },
        {
          "indexed": true,
          "internalType": "address",
          "name": "operator",
          "type": "address"
        },
        {
          "indexed": false,
          "internalType": "bool",
          "name": "approved",
          "type": "bool"
        }
      ],
      "name": "ApprovalForAll",
      "type": "event"
    },
    {
      "anonymous": false,
      "inputs": [
        {
          "indexed": true,
          "internalType": "address",
          "name": "previousOwner",
          "type": "address"
        },
        {
          "indexed": true,
          "internalType": "address",
          "name": "newOwner",
          "type": "address"
        }
      ],
      "name": "OwnershipTransferred",
      "type": "event"
    },
    {
      "anonymous": false,
      "inputs": [
        {
          "indexed": true,
          "internalType": "address",
          "name": "from",
          "type": "address"
        },
        {
          "indexed": true,
          "internalType": "address",
          "name": "to",
          "type": "address"
        },
        {
          "indexed": true,
          "internalType": "uint256",
          "name": "tokenId",
          "type": "uint256"
        }
      ],
      "name": "Transfer",
      "type": "event"
    },
    {
      "inputs": [
        {
          "internalType": "address",
          "name": "to",
          "type": "address"
        },
        {
          "internalType": "uint256",
          "name": "tokenId",
          "type": "uint256"
        }
      ],
      "name": "approve",
      "outputs": [],
      "stateMutability": "nonpayable",
      "type": "function"
    },
    {
      "inputs": [
        {
          "internalType": "address",
          "name": "owner",
          "type": "address"
        }
      ],
      "name": "balanceOf",
      "outputs": [
        {
          "internalType": "uint256",
          "name": "",
          "type": "uint256"
        }
      ],
      "stateMutability": "view",
      "type": "function",
      "constant": true
    },
    {
      "inputs": [],
      "name": "baseExtension",
      "outputs": [
        {
          "internalType": "string",
          "name": "",
          "type": "string"
        }
      ],
      "stateMutability": "view",
      "type": "function",
      "constant": true
    },
    {
      "inputs": [],
      "name": "cakeCounter",
      "outputs": [
        {
          "internalType": "uint256",
          "name": "",
          "type": "uint256"
        }
      ],
      "stateMutability": "view",
      "type": "function",
      "constant": true
    },
    {
      "inputs": [],
      "name": "cost",
      "outputs": [
        {
          "internalType": "uint256",
          "name": "",
          "type": "uint256"
        }
      ],
      "stateMutability": "view",
      "type": "function",
      "constant": true
    },
    {
      "inputs": [
        {
          "internalType": "uint256",
          "name": "tokenId",
          "type": "uint256"
        }
      ],
      "name": "getApproved",
      "outputs": [
        {
          "internalType": "address",
          "name": "",
          "type": "address"
        }
      ],
      "stateMutability": "view",
      "type": "function",
      "constant": true
    },
    {
      "inputs": [
        {
          "internalType": "address",
          "name": "owner",
          "type": "address"
        },
        {
          "internalType": "address",
          "name": "operator",
          "type": "address"
        }
      ],
      "name": "isApprovedForAll",
      "outputs": [
        {
          "internalType": "bool",
          "name": "",
          "type": "bool"
        }
      ],
      "stateMutability": "view",
      "type": "function",
      "constant": true
    },
    {
      "inputs": [],
      "name": "maxSupply",
      "outputs": [
        {
          "internalType": "uint256",
          "name": "",
          "type": "uint256"
        }
      ],
      "stateMutability": "view",
      "type": "function",
      "constant": true
    },
    {
      "inputs": [],
      "name": "name",
      "outputs": [
        {
          "internalType": "string",
          "name": "",
          "type": "string"
        }
      ],
      "stateMutability": "view",
      "type": "function",
      "constant": true
    },
    {
      "inputs": [],
      "name": "notRevealedUri",
      "outputs": [
        {
          "internalType": "string",
          "name": "",
          "type": "string"
        }
      ],
      "stateMutability": "view",
      "type": "function",
      "constant": true
    },
    {
      "inputs": [],
      "name": "owner",
      "outputs": [
        {
          "internalType": "address",
          "name": "",
          "type": "address"
        }
      ],
      "stateMutability": "view",
      "type": "function",
      "constant": true
    },
    {
      "inputs": [
        {
          "internalType": "uint256",
          "name": "tokenId",
          "type": "uint256"
        }
      ],
      "name": "ownerOf",
      "outputs": [
        {
          "internalType": "address",
          "name": "",
          "type": "address"
        }
      ],
      "stateMutability": "view",
      "type": "function",
      "constant": true
    },
    {
      "inputs": [],
      "name": "paused",
      "outputs": [
        {
          "internalType": "bool",
          "name": "",
          "type": "bool"
        }
      ],
      "stateMutability": "view",
      "type": "function",
      "constant": true
    },
    {
      "inputs": [],
      "name": "renounceOwnership",
      "outputs": [],
      "stateMutability": "nonpayable",
      "type": "function"
    },
    {
      "inputs": [],
      "name": "revealed",
      "outputs": [
        {
          "internalType": "bool",
          "name": "",
          "type": "bool"
        }
      ],
      "stateMutability": "view",
      "type": "function",
      "constant": true
    },
    {
      "inputs": [
        {
          "internalType": "address",
          "name": "from",
          "type": "address"
        },
        {
          "internalType": "address",
          "name": "to",
          "type": "address"
        },
        {
          "internalType": "uint256",
          "name": "tokenId",
          "type": "uint256"
        }
      ],
      "name": "safeTransferFrom",
      "outputs": [],
      "stateMutability": "nonpayable",
      "type": "function"
    },
    {
      "inputs": [
        {
          "internalType": "address",
          "name": "from",
          "type": "address"
        },
        {
          "internalType": "address",
          "name": "to",
          "type": "address"
        },
        {
          "internalType": "uint256",
          "name": "tokenId",
          "type": "uint256"
        },
        {
          "internalType": "bytes",
          "name": "_data",
          "type": "bytes"
        }
      ],
      "name": "safeTransferFrom",
      "outputs": [],
      "stateMutability": "nonpayable",
      "type": "function"
    },
    {
      "inputs": [
        {
          "internalType": "address",
          "name": "operator",
          "type": "address"
        },
        {
          "internalType": "bool",
          "name": "approved",
          "type": "bool"
        }
      ],
      "name": "setApprovalForAll",
      "outputs": [],
      "stateMutability": "nonpayable",
      "type": "function"
    },
    {
      "inputs": [
        {
          "internalType": "bytes4",
          "name": "interfaceId",
          "type": "bytes4"
        }
      ],
      "name": "supportsInterface",
      "outputs": [
        {
          "internalType": "bool",
          "name": "",
          "type": "bool"
        }
      ],
      "stateMutability": "view",
      "type": "function",
      "constant": true
    },
    {
      "inputs": [],
      "name": "symbol",
      "outputs": [
        {
          "internalType": "string",
          "name": "",
          "type": "string"
        }
      ],
      "stateMutability": "view",
      "type": "function",
      "constant": true
    },
    {
      "inputs": [
        {
          "internalType": "uint256",
          "name": "index",
          "type": "uint256"
        }
      ],
      "name": "tokenByIndex",
      "outputs": [
        {
          "internalType": "uint256",
          "name": "",
          "type": "uint256"
        }
      ],
      "stateMutability": "view",
      "type": "function",
      "constant": true
    },
    {
      "inputs": [
        {
          "internalType": "string",
          "name": "",
          "type": "string"
        }
      ],
      "name": "tokenNameExists",
      "outputs": [
        {
          "internalType": "bool",
          "name": "",
          "type": "bool"
        }
      ],
      "stateMutability": "view",
      "type": "function",
      "constant": true
    },
    {
      "inputs": [
        {
          "internalType": "address",
          "name": "owner",
          "type": "address"
        },
        {
          "internalType": "uint256",
          "name": "index",
          "type": "uint256"
        }
      ],
      "name": "tokenOfOwnerByIndex",
      "outputs": [
        {
          "internalType": "uint256",
          "name": "",
          "type": "uint256"
        }
      ],
      "stateMutability": "view",
      "type": "function",
      "constant": true
    },
    {
      "inputs": [
        {
          "internalType": "string",
          "name": "",
          "type": "string"
        }
      ],
      "name": "tokenURIExists",
      "outputs": [
        {
          "internalType": "bool",
          "name": "",
          "type": "bool"
        }
      ],
      "stateMutability": "view",
      "type": "function",
      "constant": true
    },
    {
      "inputs": [],
      "name": "totalSupply",
      "outputs": [
        {
          "internalType": "uint256",
          "name": "",
          "type": "uint256"
        }
      ],
      "stateMutability": "view",
      "type": "function",
      "constant": true
    },
    {
      "inputs": [
        {
          "internalType": "address",
          "name": "from",
          "type": "address"
        },
        {
          "internalType": "address",
          "name": "to",
          "type": "address"
        },
        {
          "internalType": "uint256",
          "name": "tokenId",
          "type": "uint256"
        }
      ],
      "name": "transferFrom",
      "outputs": [],
      "stateMutability": "nonpayable",
      "type": "function"
    },
    {
      "inputs": [
        {
          "internalType": "address",
          "name": "newOwner",
          "type": "address"
        }
      ],
      "name": "transferOwnership",
      "outputs": [],
      "stateMutability": "nonpayable",
      "type": "function"
    },
    {
      "inputs": [
        {
          "internalType": "address",
          "name": "",
          "type": "address"
        }
      ],
      "name": "whitelisted",
      "outputs": [
        {
          "internalType": "bool",
          "name": "",
          "type": "bool"
        }
      ],
      "stateMutability": "view",
      "type": "function",
      "constant": true
    },
    {
      "inputs": [
        {
          "internalType": "string",
          "name": "_tokenURI",
          "type": "string"
        }
      ],
      "name": "mintCake",
      "outputs": [],
      "stateMutability": "payable",
      "type": "function",
      "payable": true
    },
    {
      "inputs": [
        {
          "internalType": "string",
          "name": "baseURI_",
          "type": "string"
        }
      ],
      "name": "setBaseURI",
      "outputs": [],
      "stateMutability": "nonpayable",
      "type": "function"
    },
    {
      "inputs": [
        {
          "internalType": "uint256",
          "name": "tokenId",
          "type": "uint256"
        }
      ],
      "name": "tokenURI",
      "outputs": [
        {
          "internalType": "string",
          "name": "",
          "type": "string"
        }
      ],
      "stateMutability": "view",
      "type": "function",
      "constant": true
    },
    {
      "inputs": [
        {
          "internalType": "bool",
          "name": "_state",
          "type": "bool"
        }
      ],
      "name": "reveal",
      "outputs": [],
      "stateMutability": "nonpayable",
      "type": "function"
    },
    {
      "inputs": [
        {
          "internalType": "string",
          "name": "_notRevealedURI",
          "type": "string"
        }
      ],
      "name": "setNotRevealedURI",
      "outputs": [],
      "stateMutability": "nonpayable",
      "type": "function"
    },
    {
      "inputs": [
        {
          "internalType": "uint256",
          "name": "_newCost",
          "type": "uint256"
        }
      ],
      "name": "setCost",
      "outputs": [],
      "stateMutability": "nonpayable",
      "type": "function"
    },
    {
      "inputs": [
        {
          "internalType": "bool",
          "name": "_state",
          "type": "bool"
        }
      ],
      "name": "pause",
      "outputs": [],
      "stateMutability": "nonpayable",
      "type": "function"
    },
    {
      "inputs": [
        {
          "internalType": "address",
          "name": "_user",
          "type": "address"
        }
      ],
      "name": "addWhitelistUser",
      "outputs": [],
      "stateMutability": "nonpayable",
      "type": "function"
    },
    {
      "inputs": [
        {
          "internalType": "address",
          "name": "_user",
          "type": "address"
        }
      ],
      "name": "removeWhitelistUser",
      "outputs": [],
      "stateMutability": "nonpayable",
      "type": "function"
    },
    {
      "inputs": [
        {
          "internalType": "uint256",
          "name": "_tokenId",
          "type": "uint256"
        }
      ],
      "name": "getTokenOwner",
      "outputs": [
        {
          "internalType": "address",
          "name": "",
          "type": "address"
        }
      ],
      "stateMutability": "view",
      "type": "function",
      "constant": true
    },
    {
      "inputs": [
        {
          "internalType": "uint256",
          "name": "_tokenId",
          "type": "uint256"
        }
      ],
      "name": "getTokenMetaData",
      "outputs": [
        {
          "internalType": "string",
          "name": "",
          "type": "string"
        }
      ],
      "stateMutability": "view",
      "type": "function",
      "constant": true
    },
    {
      "inputs": [],
      "name": "getNumberOfTokensMinted",
      "outputs": [
        {
          "internalType": "uint256",
          "name": "",
          "type": "uint256"
        }
      ],
      "stateMutability": "view",
      "type": "function",
      "constant": true
    },
    {
      "inputs": [
        {
          "internalType": "address",
          "name": "_owner",
          "type": "address"
        }
      ],
      "name": "getTotalNumberOfTokensOwnedByAnAddress",
      "outputs": [
        {
          "internalType": "uint256",
          "name": "",
          "type": "uint256"
        }
      ],
      "stateMutability": "view",
      "type": "function",
      "constant": true
    }
  ],
  "bytecode": "0x608060405260405180602001604052806000815250600c90805190602001906200002b9291906200062c565b506040518060400160405280600581526020017f2e6a736f6e000000000000000000000000000000000000000000000000000000815250600d9080519060200190620000799291906200062c565b506000600f60006101000a81548160ff02191690831515021790555060646010556000601160006101000a81548160ff02191690831515021790555066470de4df820000601255348015620000cd57600080fd5b506040518060400160405280600a81526020017f43414b4520544f4b454e000000000000000000000000000000000000000000008152506040518060400160405280600381526020017f434b5400000000000000000000000000000000000000000000000000000000008152506200015a6200014e6200056060201b60201c565b6200056860201b60201c565b8160019080519060200190620001729291906200062c565b5080600290805190602001906200018b9291906200062c565b50505060016013600073ba9d5f1d5390fa3e5ffc65f9c7332ffc40464d2373ffffffffffffffffffffffffffffffffffffffff1673ffffffffffffffffffffffffffffffffffffffff16815260200190815260200160002060006101000a81548160ff021916908315150217905550600160136000734009247cd0d3d893ffc9546953ac77981022b0b073ffffffffffffffffffffffffffffffffffffffff1673ffffffffffffffffffffffffffffffffffffffff16815260200190815260200160002060006101000a81548160ff0219169083151502179055506001601360007331cd872b26a7ae352e2f22c6180e03b34d81cf7373ffffffffffffffffffffffffffffffffffffffff1673ffffffffffffffffffffffffffffffffffffffff16815260200190815260200160002060006101000a81548160ff02191690831515021790555060016013600073b221c202cf15e088b5df9c60e7c919a19383080673ffffffffffffffffffffffffffffffffffffffff1673ffffffffffffffffffffffffffffffffffffffff16815260200190815260200160002060006101000a81548160ff02191690831515021790555060016013600073b62bd6ad9774392a0714ba8cb047d6e113ec5b9e73ffffffffffffffffffffffffffffffffffffffff1673ffffffffffffffffffffffffffffffffffffffff16815260200190815260200160002060006101000a81548160ff021916908315150217905550600160136000735028693249155f45bded0232abb9b7d59fb7f89673ffffffffffffffffffffffffffffffffffffffff1673ffffffffffffffffffffffffffffffffffffffff16815260200190815260200160002060006101000a81548160ff02191690831515021790555060016013600073448bb0d5e556ee57dddb627185cb0df045829c3273ffffffffffffffffffffffffffffffffffffffff1673ffffffffffffffffffffffffffffffffffffffff16815260200190815260200160002060006101000a81548160ff02191690831515021790555060016013600073d0548f1003009c1e081c24a1e7aa06c6d89c9c2073ffffffffffffffffffffffffffffffffffffffff1673ffffffffffffffffffffffffffffffffffffffff16815260200190815260200160002060006101000a81548160ff021916908315150217905550600160136000734e8b414c61b366370a5ffb720d82a8ba8b08c65b73ffffffffffffffffffffffffffffffffffffffff1673ffffffffffffffffffffffffffffffffffffffff16815260200190815260200160002060006101000a81548160ff02191690831515021790555062000741565b600033905090565b60008060009054906101000a900473ffffffffffffffffffffffffffffffffffffffff169050816000806101000a81548173ffffffffffffffffffffffffffffffffffffffff021916908373ffffffffffffffffffffffffffffffffffffffff1602179055508173ffffffffffffffffffffffffffffffffffffffff168173ffffffffffffffffffffffffffffffffffffffff167f8be0079c531659141344cd1fd0a4f28419497f9722a3daafe3b4186f6b6457e060405160405180910390a35050565b8280546200063a906200070b565b90600052602060002090601f0160209004810192826200065e5760008555620006aa565b82601f106200067957805160ff1916838001178555620006aa565b82800160010185558215620006aa579182015b82811115620006a95782518255916020019190600101906200068c565b5b509050620006b99190620006bd565b5090565b5b80821115620006d8576000816000905550600101620006be565b5090565b7f4e487b7100000000000000000000000000000000000000000000000000000000600052602260045260246000fd5b600060028204905060018216806200072457607f821691505b602082108114156200073b576200073a620006dc565b5b50919050565b6144eb80620007516000396000f3fe6080604052600436106102465760003560e01c80636352211e11610139578063a46b1fac116100b6578063cc151f3a1161007a578063cc151f3a146108cb578063d5abeb01146108f6578063d936547e14610921578063e985e9c51461095e578063f2c4ce1e1461099b578063f2fde38b146109c457610246565b8063a46b1fac146107c0578063a5cd761f146107fd578063b88d4fde1461083a578063c668286214610863578063c87b56dd1461088e57610246565b80638da5cb5b116100fd5780638da5cb5b146106fc578063940cd05b1461072757806395d89b4114610750578063a0f2bb701461077b578063a22cb4651461079757610246565b80636352211e1461060557806367c623cf1461064257806370a082311461067f578063715018a6146106bc57806384083c89146106d357610246565b806330cc7ae0116101c75780634e31af3a1161018b5780634e31af3a1461051e5780634f6ccce714610549578063518302271461058657806355f804b3146105b15780635c975abb146105da57610246565b806330cc7ae01461042957806342842e0e14610452578063439028501461047b57806343d32ae7146104b857806344a0d68a146104f557610246565b8063095ea7b31161020e578063095ea7b31461034457806313faede61461036d57806318160ddd1461039857806323b872dd146103c35780632f745c59146103ec57610246565b806301ffc9a71461024b57806302329a291461028857806306fdde03146102b1578063081812fc146102dc578063081c8c4414610319575b600080fd5b34801561025757600080fd5b50610272600480360381019061026d9190612fbc565b6109ed565b60405161027f9190613004565b60405180910390f35b34801561029457600080fd5b506102af60048036038101906102aa919061304b565b610a67565b005b3480156102bd57600080fd5b506102c6610b00565b6040516102d39190613111565b60405180910390f35b3480156102e857600080fd5b5061030360048036038101906102fe9190613169565b610b92565b60405161031091906131d7565b60405180910390f35b34801561032557600080fd5b5061032e610c17565b60405161033b9190613111565b60405180910390f35b34801561035057600080fd5b5061036b6004803603810190610366919061321e565b610ca5565b005b34801561037957600080fd5b50610382610dbd565b60405161038f919061326d565b60405180910390f35b3480156103a457600080fd5b506103ad610dc3565b6040516103ba919061326d565b60405180910390f35b3480156103cf57600080fd5b506103ea60048036038101906103e59190613288565b610dd0565b005b3480156103f857600080fd5b50610413600480360381019061040e919061321e565b610e30565b604051610420919061326d565b60405180910390f35b34801561043557600080fd5b50610450600480360381019061044b91906132db565b610ed5565b005b34801561045e57600080fd5b5061047960048036038101906104749190613288565b610fac565b005b34801561048757600080fd5b506104a2600480360381019061049d91906132db565b610fcc565b6040516104af919061326d565b60405180910390f35b3480156104c457600080fd5b506104df60048036038101906104da919061343d565b610fe3565b6040516104ec9190613004565b60405180910390f35b34801561050157600080fd5b5061051c60048036038101906105179190613169565b611019565b005b34801561052a57600080fd5b5061053361109f565b604051610540919061326d565b60405180910390f35b34801561055557600080fd5b50610570600480360381019061056b9190613169565b6110a5565b60405161057d919061326d565b60405180910390f35b34801561059257600080fd5b5061059b611116565b6040516105a89190613004565b60405180910390f35b3480156105bd57600080fd5b506105d860048036038101906105d3919061343d565b611129565b005b3480156105e657600080fd5b506105ef6111bf565b6040516105fc9190613004565b60405180910390f35b34801561061157600080fd5b5061062c60048036038101906106279190613169565b6111d2565b60405161063991906131d7565b60405180910390f35b34801561064e57600080fd5b5061066960048036038101906106649190613169565b611284565b6040516106769190613111565b60405180910390f35b34801561068b57600080fd5b506106a660048036038101906106a191906132db565b61129c565b6040516106b3919061326d565b60405180910390f35b3480156106c857600080fd5b506106d1611354565b005b3480156106df57600080fd5b506106fa60048036038101906106f591906132db565b6113dc565b005b34801561070857600080fd5b506107116114b3565b60405161071e91906131d7565b60405180910390f35b34801561073357600080fd5b5061074e6004803603810190610749919061304b565b6114dc565b005b34801561075c57600080fd5b50610765611575565b6040516107729190613111565b60405180910390f35b6107956004803603810190610790919061343d565b611607565b005b3480156107a357600080fd5b506107be60048036038101906107b99190613486565b611779565b005b3480156107cc57600080fd5b506107e760048036038101906107e2919061343d565b61178f565b6040516107f49190613004565b60405180910390f35b34801561080957600080fd5b50610824600480360381019061081f9190613169565b6117c5565b60405161083191906131d7565b60405180910390f35b34801561084657600080fd5b50610861600480360381019061085c9190613567565b6117dc565b005b34801561086f57600080fd5b5061087861183e565b6040516108859190613111565b60405180910390f35b34801561089a57600080fd5b506108b560048036038101906108b09190613169565b6118cc565b6040516108c29190613111565b60405180910390f35b3480156108d757600080fd5b506108e0611a25565b6040516108ed919061326d565b60405180910390f35b34801561090257600080fd5b5061090b611a39565b604051610918919061326d565b60405180910390f35b34801561092d57600080fd5b50610948600480360381019061094391906132db565b611a3f565b6040516109559190613004565b60405180910390f35b34801561096a57600080fd5b50610985600480360381019061098091906135ea565b611a5f565b6040516109929190613004565b60405180910390f35b3480156109a757600080fd5b506109c260048036038101906109bd919061343d565b611af3565b005b3480156109d057600080fd5b506109eb60048036038101906109e691906132db565b611b0d565b005b60007f780e9d63000000000000000000000000000000000000000000000000000000007bffffffffffffffffffffffffffffffffffffffffffffffffffffffff1916827bffffffffffffffffffffffffffffffffffffffffffffffffffffffff19161480610a605750610a5f82611c05565b5b9050919050565b610a6f611ce7565b73ffffffffffffffffffffffffffffffffffffffff16610a8d6114b3565b73ffffffffffffffffffffffffffffffffffffffff1614610ae3576040517f08c379a0000000000000000000000000000000000000000000000000000000008152600401610ada90613676565b60405180910390fd5b80601160006101000a81548160ff02191690831515021790555050565b606060018054610b0f906136c5565b80601f0160208091040260200160405190810160405280929190818152602001828054610b3b906136c5565b8015610b885780601f10610b5d57610100808354040283529160200191610b88565b820191906000526020600020905b815481529060010190602001808311610b6b57829003601f168201915b5050505050905090565b6000610b9d82611cef565b610bdc576040517f08c379a0000000000000000000000000000000000000000000000000000000008152600401610bd390613769565b60405180910390fd5b6005600083815260200190815260200160002060009054906101000a900473ffffffffffffffffffffffffffffffffffffffff169050919050565b600e8054610c24906136c5565b80601f0160208091040260200160405190810160405280929190818152602001828054610c50906136c5565b8015610c9d5780601f10610c7257610100808354040283529160200191610c9d565b820191906000526020600020905b815481529060010190602001808311610c8057829003601f168201915b505050505081565b6000610cb0826111d2565b90508073ffffffffffffffffffffffffffffffffffffffff168373ffffffffffffffffffffffffffffffffffffffff161415610d21576040517f08c379a0000000000000000000000000000000000000000000000000000000008152600401610d18906137fb565b60405180910390fd5b8073ffffffffffffffffffffffffffffffffffffffff16610d40611ce7565b73ffffffffffffffffffffffffffffffffffffffff161480610d6f5750610d6e81610d69611ce7565b611a5f565b5b610dae576040517f08c379a0000000000000000000000000000000000000000000000000000000008152600401610da59061388d565b60405180910390fd5b610db88383611d5b565b505050565b60125481565b6000600980549050905090565b610de1610ddb611ce7565b82611e14565b610e20576040517f08c379a0000000000000000000000000000000000000000000000000000000008152600401610e179061391f565b60405180910390fd5b610e2b838383611ef2565b505050565b6000610e3b8361129c565b8210610e7c576040517f08c379a0000000000000000000000000000000000000000000000000000000008152600401610e73906139b1565b60405180910390fd5b600760008473ffffffffffffffffffffffffffffffffffffffff1673ffffffffffffffffffffffffffffffffffffffff168152602001908152602001600020600083815260200190815260200160002054905092915050565b610edd611ce7565b73ffffffffffffffffffffffffffffffffffffffff16610efb6114b3565b73ffffffffffffffffffffffffffffffffffffffff1614610f51576040517f08c379a0000000000000000000000000000000000000000000000000000000008152600401610f4890613676565b60405180910390fd5b6000601360008373ffffffffffffffffffffffffffffffffffffffff1673ffffffffffffffffffffffffffffffffffffffff16815260200190815260200160002060006101000a81548160ff02191690831515021790555050565b610fc7838383604051806020016040528060008152506117dc565b505050565b600080610fd88361129c565b905080915050919050565b6016818051602081018201805184825260208301602085012081835280955050505050506000915054906101000a900460ff1681565b611021611ce7565b73ffffffffffffffffffffffffffffffffffffffff1661103f6114b3565b73ffffffffffffffffffffffffffffffffffffffff1614611095576040517f08c379a000000000000000000000000000000000000000000000000000000000815260040161108c90613676565b60405180910390fd5b8060128190555050565b600b5481565b60006110af610dc3565b82106110f0576040517f08c379a00000000000000000000000000000000000000000000000000000000081526004016110e790613a43565b60405180910390fd5b6009828154811061110457611103613a63565b5b90600052602060002001549050919050565b600f60009054906101000a900460ff1681565b611131611ce7565b73ffffffffffffffffffffffffffffffffffffffff1661114f6114b3565b73ffffffffffffffffffffffffffffffffffffffff16146111a5576040517f08c379a000000000000000000000000000000000000000000000000000000000815260040161119c90613676565b60405180910390fd5b80600c90805190602001906111bb929190612ead565b5050565b601160009054906101000a900460ff1681565b6000806003600084815260200190815260200160002060009054906101000a900473ffffffffffffffffffffffffffffffffffffffff169050600073ffffffffffffffffffffffffffffffffffffffff168173ffffffffffffffffffffffffffffffffffffffff16141561127b576040517f08c379a000000000000000000000000000000000000000000000000000000000815260040161127290613b04565b60405180910390fd5b80915050919050565b60606000611291836118cc565b905080915050919050565b60008073ffffffffffffffffffffffffffffffffffffffff168273ffffffffffffffffffffffffffffffffffffffff16141561130d576040517f08c379a000000000000000000000000000000000000000000000000000000000815260040161130490613b96565b60405180910390fd5b600460008373ffffffffffffffffffffffffffffffffffffffff1673ffffffffffffffffffffffffffffffffffffffff168152602001908152602001600020549050919050565b61135c611ce7565b73ffffffffffffffffffffffffffffffffffffffff1661137a6114b3565b73ffffffffffffffffffffffffffffffffffffffff16146113d0576040517f08c379a00000000000000000000000000000000000000000000000000000000081526004016113c790613676565b60405180910390fd5b6113da600061214e565b565b6113e4611ce7565b73ffffffffffffffffffffffffffffffffffffffff166114026114b3565b73ffffffffffffffffffffffffffffffffffffffff1614611458576040517f08c379a000000000000000000000000000000000000000000000000000000000815260040161144f90613676565b60405180910390fd5b6001601360008373ffffffffffffffffffffffffffffffffffffffff1673ffffffffffffffffffffffffffffffffffffffff16815260200190815260200160002060006101000a81548160ff02191690831515021790555050565b60008060009054906101000a900473ffffffffffffffffffffffffffffffffffffffff16905090565b6114e4611ce7565b73ffffffffffffffffffffffffffffffffffffffff166115026114b3565b73ffffffffffffffffffffffffffffffffffffffff1614611558576040517f08c379a000000000000000000000000000000000000000000000000000000000815260040161154f90613676565b60405180910390fd5b80600f60006101000a81548160ff02191690831515021790555050565b606060028054611584906136c5565b80601f01602080910402602001604051908101604052809291908181526020018280546115b0906136c5565b80156115fd5780601f106115d2576101008083540402835291602001916115fd565b820191906000526020600020905b8154815290600101906020018083116115e057829003601f168201915b5050505050905090565b6000611611610dc3565b9050601160009054906101000a900460ff161561162d57600080fd5b600073ffffffffffffffffffffffffffffffffffffffff163373ffffffffffffffffffffffffffffffffffffffff16141561166757600080fd5b6016826040516116779190613bf2565b908152602001604051809103902060009054906101000a900460ff161561169d57600080fd5b60011515601360003373ffffffffffffffffffffffffffffffffffffffff1673ffffffffffffffffffffffffffffffffffffffff16815260200190815260200160002060009054906101000a900460ff1615151415611708576000341461170357600080fd5b611718565b60125434101561171757600080fd5b5b60006001826117279190613c38565b90506117333382612212565b61173d8184612230565b600160168460405161174f9190613bf2565b908152602001604051809103902060006101000a81548160ff021916908315150217905550505050565b61178b611784611ce7565b83836122a4565b5050565b6015818051602081018201805184825260208301602085012081835280955050505050506000915054906101000a900460ff1681565b6000806117d1836111d2565b905080915050919050565b6117ed6117e7611ce7565b83611e14565b61182c576040517f08c379a00000000000000000000000000000000000000000000000000000000081526004016118239061391f565b60405180910390fd5b61183884848484612411565b50505050565b600d805461184b906136c5565b80601f0160208091040260200160405190810160405280929190818152602001828054611877906136c5565b80156118c45780601f10611899576101008083540402835291602001916118c4565b820191906000526020600020905b8154815290600101906020018083116118a757829003601f168201915b505050505081565b60606118d782611cef565b611916576040517f08c379a000000000000000000000000000000000000000000000000000000000815260040161190d90613d00565b60405180910390fd5b60001515600f60009054906101000a900460ff16151514156119c457600e805461193f906136c5565b80601f016020809104026020016040519081016040528092919081815260200182805461196b906136c5565b80156119b85780601f1061198d576101008083540402835291602001916119b8565b820191906000526020600020905b81548152906001019060200180831161199b57829003601f168201915b50505050509050611a20565b60006119ce61246d565b905060008151116119ee5760405180602001604052806000815250611a1c565b806119f8846124ff565b600d604051602001611a0c93929190613db4565b6040516020818303038152906040525b9150505b919050565b600080611a30610dc3565b90508091505090565b60105481565b60136020528060005260406000206000915054906101000a900460ff1681565b6000600660008473ffffffffffffffffffffffffffffffffffffffff1673ffffffffffffffffffffffffffffffffffffffff16815260200190815260200160002060008373ffffffffffffffffffffffffffffffffffffffff1673ffffffffffffffffffffffffffffffffffffffff16815260200190815260200160002060009054906101000a900460ff16905092915050565b80600e9080519060200190611b09929190612ead565b5050565b611b15611ce7565b73ffffffffffffffffffffffffffffffffffffffff16611b336114b3565b73ffffffffffffffffffffffffffffffffffffffff1614611b89576040517f08c379a0000000000000000000000000000000000000000000000000000000008152600401611b8090613676565b60405180910390fd5b600073ffffffffffffffffffffffffffffffffffffffff168173ffffffffffffffffffffffffffffffffffffffff161415611bf9576040517f08c379a0000000000000000000000000000000000000000000000000000000008152600401611bf090613e57565b60405180910390fd5b611c028161214e565b50565b60007f80ac58cd000000000000000000000000000000000000000000000000000000007bffffffffffffffffffffffffffffffffffffffffffffffffffffffff1916827bffffffffffffffffffffffffffffffffffffffffffffffffffffffff19161480611cd057507f5b5e139f000000000000000000000000000000000000000000000000000000007bffffffffffffffffffffffffffffffffffffffffffffffffffffffff1916827bffffffffffffffffffffffffffffffffffffffffffffffffffffffff1916145b80611ce05750611cdf82612660565b5b9050919050565b600033905090565b60008073ffffffffffffffffffffffffffffffffffffffff166003600084815260200190815260200160002060009054906101000a900473ffffffffffffffffffffffffffffffffffffffff1673ffffffffffffffffffffffffffffffffffffffff1614159050919050565b816005600083815260200190815260200160002060006101000a81548173ffffffffffffffffffffffffffffffffffffffff021916908373ffffffffffffffffffffffffffffffffffffffff160217905550808273ffffffffffffffffffffffffffffffffffffffff16611dce836111d2565b73ffffffffffffffffffffffffffffffffffffffff167f8c5be1e5ebec7d5bd14f71427d1e84f3dd0314c0f7b2291e5b200ac8c7c3b92560405160405180910390a45050565b6000611e1f82611cef565b611e5e576040517f08c379a0000000000000000000000000000000000000000000000000000000008152600401611e5590613ee9565b60405180910390fd5b6000611e69836111d2565b90508073ffffffffffffffffffffffffffffffffffffffff168473ffffffffffffffffffffffffffffffffffffffff161480611ed857508373ffffffffffffffffffffffffffffffffffffffff16611ec084610b92565b73ffffffffffffffffffffffffffffffffffffffff16145b80611ee95750611ee88185611a5f565b5b91505092915050565b8273ffffffffffffffffffffffffffffffffffffffff16611f12826111d2565b73ffffffffffffffffffffffffffffffffffffffff1614611f68576040517f08c379a0000000000000000000000000000000000000000000000000000000008152600401611f5f90613f7b565b60405180910390fd5b600073ffffffffffffffffffffffffffffffffffffffff168273ffffffffffffffffffffffffffffffffffffffff161415611fd8576040517f08c379a0000000000000000000000000000000000000000000000000000000008152600401611fcf9061400d565b60405180910390fd5b611fe38383836126ca565b611fee600082611d5b565b6001600460008573ffffffffffffffffffffffffffffffffffffffff1673ffffffffffffffffffffffffffffffffffffffff168152602001908152602001600020600082825461203e919061402d565b925050819055506001600460008473ffffffffffffffffffffffffffffffffffffffff1673ffffffffffffffffffffffffffffffffffffffff16815260200190815260200160002060008282546120959190613c38565b92505081905550816003600083815260200190815260200160002060006101000a81548173ffffffffffffffffffffffffffffffffffffffff021916908373ffffffffffffffffffffffffffffffffffffffff160217905550808273ffffffffffffffffffffffffffffffffffffffff168473ffffffffffffffffffffffffffffffffffffffff167fddf252ad1be2c89b69c2b068fc378daa952ba7f163c4a11628f55a4df523b3ef60405160405180910390a4505050565b60008060009054906101000a900473ffffffffffffffffffffffffffffffffffffffff169050816000806101000a81548173ffffffffffffffffffffffffffffffffffffffff021916908373ffffffffffffffffffffffffffffffffffffffff1602179055508173ffffffffffffffffffffffffffffffffffffffff168173ffffffffffffffffffffffffffffffffffffffff167f8be0079c531659141344cd1fd0a4f28419497f9722a3daafe3b4186f6b6457e060405160405180910390a35050565b61222c8282604051806020016040528060008152506127de565b5050565b61223982611cef565b612278576040517f08c379a000000000000000000000000000000000000000000000000000000000815260040161226f906140d3565b60405180910390fd5b8060146000848152602001908152602001600020908051906020019061229f929190612ead565b505050565b8173ffffffffffffffffffffffffffffffffffffffff168373ffffffffffffffffffffffffffffffffffffffff161415612313576040517f08c379a000000000000000000000000000000000000000000000000000000000815260040161230a9061413f565b60405180910390fd5b80600660008573ffffffffffffffffffffffffffffffffffffffff1673ffffffffffffffffffffffffffffffffffffffff16815260200190815260200160002060008473ffffffffffffffffffffffffffffffffffffffff1673ffffffffffffffffffffffffffffffffffffffff16815260200190815260200160002060006101000a81548160ff0219169083151502179055508173ffffffffffffffffffffffffffffffffffffffff168373ffffffffffffffffffffffffffffffffffffffff167f17307eab39ab6107e8899845ad3d59bd9653f200f220920489ca2b5937696c31836040516124049190613004565b60405180910390a3505050565b61241c848484611ef2565b61242884848484612839565b612467576040517f08c379a000000000000000000000000000000000000000000000000000000000815260040161245e906141d1565b60405180910390fd5b50505050565b6060600c805461247c906136c5565b80601f01602080910402602001604051908101604052809291908181526020018280546124a8906136c5565b80156124f55780601f106124ca576101008083540402835291602001916124f5565b820191906000526020600020905b8154815290600101906020018083116124d857829003601f168201915b5050505050905090565b60606000821415612547576040518060400160405280600181526020017f3000000000000000000000000000000000000000000000000000000000000000815250905061265b565b600082905060005b60008214612579578080612562906141f1565b915050600a826125729190614269565b915061254f565b60008167ffffffffffffffff81111561259557612594613312565b5b6040519080825280601f01601f1916602001820160405280156125c75781602001600182028036833780820191505090505b5090505b60008514612654576001826125e0919061402d565b9150600a856125ef919061429a565b60306125fb9190613c38565b60f81b81838151811061261157612610613a63565b5b60200101907effffffffffffffffffffffffffffffffffffffffffffffffffffffffffffff1916908160001a905350600a8561264d9190614269565b94506125cb565b8093505050505b919050565b60007f01ffc9a7000000000000000000000000000000000000000000000000000000007bffffffffffffffffffffffffffffffffffffffffffffffffffffffff1916827bffffffffffffffffffffffffffffffffffffffffffffffffffffffff1916149050919050565b6126d58383836129c1565b600073ffffffffffffffffffffffffffffffffffffffff168373ffffffffffffffffffffffffffffffffffffffff16141561271857612713816129c6565b612757565b8173ffffffffffffffffffffffffffffffffffffffff168373ffffffffffffffffffffffffffffffffffffffff1614612756576127558382612a0f565b5b5b600073ffffffffffffffffffffffffffffffffffffffff168273ffffffffffffffffffffffffffffffffffffffff16141561279a5761279581612b7c565b6127d9565b8273ffffffffffffffffffffffffffffffffffffffff168273ffffffffffffffffffffffffffffffffffffffff16146127d8576127d78282612c4d565b5b5b505050565b6127e88383612ccc565b6127f56000848484612839565b612834576040517f08c379a000000000000000000000000000000000000000000000000000000000815260040161282b906141d1565b60405180910390fd5b505050565b600061285a8473ffffffffffffffffffffffffffffffffffffffff16612e9a565b156129b4578373ffffffffffffffffffffffffffffffffffffffff1663150b7a02612883611ce7565b8786866040518563ffffffff1660e01b81526004016128a59493929190614320565b6020604051808303816000875af19250505080156128e157506040513d601f19601f820116820180604052508101906128de9190614381565b60015b612964573d8060008114612911576040519150601f19603f3d011682016040523d82523d6000602084013e612916565b606091505b5060008151141561295c576040517f08c379a0000000000000000000000000000000000000000000000000000000008152600401612953906141d1565b60405180910390fd5b805181602001fd5b63150b7a0260e01b7bffffffffffffffffffffffffffffffffffffffffffffffffffffffff1916817bffffffffffffffffffffffffffffffffffffffffffffffffffffffff1916149150506129b9565b600190505b949350505050565b505050565b600980549050600a600083815260200190815260200160002081905550600981908060018154018082558091505060019003906000526020600020016000909190919091505550565b60006001612a1c8461129c565b612a26919061402d565b9050600060086000848152602001908152602001600020549050818114612b0b576000600760008673ffffffffffffffffffffffffffffffffffffffff1673ffffffffffffffffffffffffffffffffffffffff168152602001908152602001600020600084815260200190815260200160002054905080600760008773ffffffffffffffffffffffffffffffffffffffff1673ffffffffffffffffffffffffffffffffffffffff168152602001908152602001600020600084815260200190815260200160002081905550816008600083815260200190815260200160002081905550505b6008600084815260200190815260200160002060009055600760008573ffffffffffffffffffffffffffffffffffffffff1673ffffffffffffffffffffffffffffffffffffffff16815260200190815260200160002060008381526020019081526020016000206000905550505050565b60006001600980549050612b90919061402d565b90506000600a6000848152602001908152602001600020549050600060098381548110612bc057612bbf613a63565b5b906000526020600020015490508060098381548110612be257612be1613a63565b5b906000526020600020018190555081600a600083815260200190815260200160002081905550600a6000858152602001908152602001600020600090556009805480612c3157612c306143ae565b5b6001900381819060005260206000200160009055905550505050565b6000612c588361129c565b905081600760008573ffffffffffffffffffffffffffffffffffffffff1673ffffffffffffffffffffffffffffffffffffffff168152602001908152602001600020600083815260200190815260200160002081905550806008600084815260200190815260200160002081905550505050565b600073ffffffffffffffffffffffffffffffffffffffff168273ffffffffffffffffffffffffffffffffffffffff161415612d3c576040517f08c379a0000000000000000000000000000000000000000000000000000000008152600401612d3390614429565b60405180910390fd5b612d4581611cef565b15612d85576040517f08c379a0000000000000000000000000000000000000000000000000000000008152600401612d7c90614495565b60405180910390fd5b612d91600083836126ca565b6001600460008473ffffffffffffffffffffffffffffffffffffffff1673ffffffffffffffffffffffffffffffffffffffff1681526020019081526020016000206000828254612de19190613c38565b92505081905550816003600083815260200190815260200160002060006101000a81548173ffffffffffffffffffffffffffffffffffffffff021916908373ffffffffffffffffffffffffffffffffffffffff160217905550808273ffffffffffffffffffffffffffffffffffffffff16600073ffffffffffffffffffffffffffffffffffffffff167fddf252ad1be2c89b69c2b068fc378daa952ba7f163c4a11628f55a4df523b3ef60405160405180910390a45050565b600080823b905060008111915050919050565b828054612eb9906136c5565b90600052602060002090601f016020900481019282612edb5760008555612f22565b82601f10612ef457805160ff1916838001178555612f22565b82800160010185558215612f22579182015b82811115612f21578251825591602001919060010190612f06565b5b509050612f2f9190612f33565b5090565b5b80821115612f4c576000816000905550600101612f34565b5090565b6000604051905090565b600080fd5b600080fd5b60007fffffffff0000000000000000000000000000000000000000000000000000000082169050919050565b612f9981612f64565b8114612fa457600080fd5b50565b600081359050612fb681612f90565b92915050565b600060208284031215612fd257612fd1612f5a565b5b6000612fe084828501612fa7565b91505092915050565b60008115159050919050565b612ffe81612fe9565b82525050565b60006020820190506130196000830184612ff5565b92915050565b61302881612fe9565b811461303357600080fd5b50565b6000813590506130458161301f565b92915050565b60006020828403121561306157613060612f5a565b5b600061306f84828501613036565b91505092915050565b600081519050919050565b600082825260208201905092915050565b60005b838110156130b2578082015181840152602081019050613097565b838111156130c1576000848401525b50505050565b6000601f19601f8301169050919050565b60006130e382613078565b6130ed8185613083565b93506130fd818560208601613094565b613106816130c7565b840191505092915050565b6000602082019050818103600083015261312b81846130d8565b905092915050565b6000819050919050565b61314681613133565b811461315157600080fd5b50565b6000813590506131638161313d565b92915050565b60006020828403121561317f5761317e612f5a565b5b600061318d84828501613154565b91505092915050565b600073ffffffffffffffffffffffffffffffffffffffff82169050919050565b60006131c182613196565b9050919050565b6131d1816131b6565b82525050565b60006020820190506131ec60008301846131c8565b92915050565b6131fb816131b6565b811461320657600080fd5b50565b600081359050613218816131f2565b92915050565b6000806040838503121561323557613234612f5a565b5b600061324385828601613209565b925050602061325485828601613154565b9150509250929050565b61326781613133565b82525050565b6000602082019050613282600083018461325e565b92915050565b6000806000606084860312156132a1576132a0612f5a565b5b60006132af86828701613209565b93505060206132c086828701613209565b92505060406132d186828701613154565b9150509250925092565b6000602082840312156132f1576132f0612f5a565b5b60006132ff84828501613209565b91505092915050565b600080fd5b600080fd5b7f4e487b7100000000000000000000000000000000000000000000000000000000600052604160045260246000fd5b61334a826130c7565b810181811067ffffffffffffffff8211171561336957613368613312565b5b80604052505050565b600061337c612f50565b90506133888282613341565b919050565b600067ffffffffffffffff8211156133a8576133a7613312565b5b6133b1826130c7565b9050602081019050919050565b82818337600083830152505050565b60006133e06133db8461338d565b613372565b9050828152602081018484840111156133fc576133fb61330d565b5b6134078482856133be565b509392505050565b600082601f83011261342457613423613308565b5b81356134348482602086016133cd565b91505092915050565b60006020828403121561345357613452612f5a565b5b600082013567ffffffffffffffff81111561347157613470612f5f565b5b61347d8482850161340f565b91505092915050565b6000806040838503121561349d5761349c612f5a565b5b60006134ab85828601613209565b92505060206134bc85828601613036565b9150509250929050565b600067ffffffffffffffff8211156134e1576134e0613312565b5b6134ea826130c7565b9050602081019050919050565b600061350a613505846134c6565b613372565b9050828152602081018484840111156135265761352561330d565b5b6135318482856133be565b509392505050565b600082601f83011261354e5761354d613308565b5b813561355e8482602086016134f7565b91505092915050565b6000806000806080858703121561358157613580612f5a565b5b600061358f87828801613209565b94505060206135a087828801613209565b93505060406135b187828801613154565b925050606085013567ffffffffffffffff8111156135d2576135d1612f5f565b5b6135de87828801613539565b91505092959194509250565b6000806040838503121561360157613600612f5a565b5b600061360f85828601613209565b925050602061362085828601613209565b9150509250929050565b7f4f776e61626c653a2063616c6c6572206973206e6f7420746865206f776e6572600082015250565b6000613660602083613083565b915061366b8261362a565b602082019050919050565b6000602082019050818103600083015261368f81613653565b9050919050565b7f4e487b7100000000000000000000000000000000000000000000000000000000600052602260045260246000fd5b600060028204905060018216806136dd57607f821691505b602082108114156136f1576136f0613696565b5b50919050565b7f4552433732313a20617070726f76656420717565727920666f72206e6f6e657860008201527f697374656e7420746f6b656e0000000000000000000000000000000000000000602082015250565b6000613753602c83613083565b915061375e826136f7565b604082019050919050565b6000602082019050818103600083015261378281613746565b9050919050565b7f4552433732313a20617070726f76616c20746f2063757272656e74206f776e6560008201527f7200000000000000000000000000000000000000000000000000000000000000602082015250565b60006137e5602183613083565b91506137f082613789565b604082019050919050565b60006020820190508181036000830152613814816137d8565b9050919050565b7f4552433732313a20617070726f76652063616c6c6572206973206e6f74206f7760008201527f6e6572206e6f7220617070726f76656420666f7220616c6c0000000000000000602082015250565b6000613877603883613083565b91506138828261381b565b604082019050919050565b600060208201905081810360008301526138a68161386a565b9050919050565b7f4552433732313a207472616e736665722063616c6c6572206973206e6f74206f60008201527f776e6572206e6f7220617070726f766564000000000000000000000000000000602082015250565b6000613909603183613083565b9150613914826138ad565b604082019050919050565b60006020820190508181036000830152613938816138fc565b9050919050565b7f455243373231456e756d657261626c653a206f776e657220696e646578206f7560008201527f74206f6620626f756e6473000000000000000000000000000000000000000000602082015250565b600061399b602b83613083565b91506139a68261393f565b604082019050919050565b600060208201905081810360008301526139ca8161398e565b9050919050565b7f455243373231456e756d657261626c653a20676c6f62616c20696e646578206f60008201527f7574206f6620626f756e64730000000000000000000000000000000000000000602082015250565b6000613a2d602c83613083565b9150613a38826139d1565b604082019050919050565b60006020820190508181036000830152613a5c81613a20565b9050919050565b7f4e487b7100000000000000000000000000000000000000000000000000000000600052603260045260246000fd5b7f4552433732313a206f776e657220717565727920666f72206e6f6e657869737460008201527f656e7420746f6b656e0000000000000000000000000000000000000000000000602082015250565b6000613aee602983613083565b9150613af982613a92565b604082019050919050565b60006020820190508181036000830152613b1d81613ae1565b9050919050565b7f4552433732313a2062616c616e636520717565727920666f7220746865207a6560008201527f726f206164647265737300000000000000000000000000000000000000000000602082015250565b6000613b80602a83613083565b9150613b8b82613b24565b604082019050919050565b60006020820190508181036000830152613baf81613b73565b9050919050565b600081905092915050565b6000613bcc82613078565b613bd68185613bb6565b9350613be6818560208601613094565b80840191505092915050565b6000613bfe8284613bc1565b915081905092915050565b7f4e487b7100000000000000000000000000000000000000000000000000000000600052601160045260246000fd5b6000613c4382613133565b9150613c4e83613133565b9250827fffffffffffffffffffffffffffffffffffffffffffffffffffffffffffffffff03821115613c8357613c82613c09565b5b828201905092915050565b7f4552433732314d657461646174613a2055524920717565727920666f72206e6f60008201527f6e6578697374656e7420746f6b656e0000000000000000000000000000000000602082015250565b6000613cea602f83613083565b9150613cf582613c8e565b604082019050919050565b60006020820190508181036000830152613d1981613cdd565b9050919050565b60008190508160005260206000209050919050565b60008154613d42816136c5565b613d4c8186613bb6565b94506001821660008114613d675760018114613d7857613dab565b60ff19831686528186019350613dab565b613d8185613d20565b60005b83811015613da357815481890152600182019150602081019050613d84565b838801955050505b50505092915050565b6000613dc08286613bc1565b9150613dcc8285613bc1565b9150613dd88284613d35565b9150819050949350505050565b7f4f776e61626c653a206e6577206f776e657220697320746865207a65726f206160008201527f6464726573730000000000000000000000000000000000000000000000000000602082015250565b6000613e41602683613083565b9150613e4c82613de5565b604082019050919050565b60006020820190508181036000830152613e7081613e34565b9050919050565b7f4552433732313a206f70657261746f7220717565727920666f72206e6f6e657860008201527f697374656e7420746f6b656e0000000000000000000000000000000000000000602082015250565b6000613ed3602c83613083565b9150613ede82613e77565b604082019050919050565b60006020820190508181036000830152613f0281613ec6565b9050919050565b7f4552433732313a207472616e73666572206f6620746f6b656e2074686174206960008201527f73206e6f74206f776e0000000000000000000000000000000000000000000000602082015250565b6000613f65602983613083565b9150613f7082613f09565b604082019050919050565b60006020820190508181036000830152613f9481613f58565b9050919050565b7f4552433732313a207472616e7366657220746f20746865207a65726f2061646460008201527f7265737300000000000000000000000000000000000000000000000000000000602082015250565b6000613ff7602483613083565b915061400282613f9b565b604082019050919050565b6000602082019050818103600083015261402681613fea565b9050919050565b600061403882613133565b915061404383613133565b92508282101561405657614055613c09565b5b828203905092915050565b7f4552433732314d657461646174613a2055524920736574206f66206e6f6e657860008201527f697374656e7420746f6b656e0000000000000000000000000000000000000000602082015250565b60006140bd602c83613083565b91506140c882614061565b604082019050919050565b600060208201905081810360008301526140ec816140b0565b9050919050565b7f4552433732313a20617070726f766520746f2063616c6c657200000000000000600082015250565b6000614129601983613083565b9150614134826140f3565b602082019050919050565b600060208201905081810360008301526141588161411c565b9050919050565b7f4552433732313a207472616e7366657220746f206e6f6e20455243373231526560008201527f63656976657220696d706c656d656e7465720000000000000000000000000000602082015250565b60006141bb603283613083565b91506141c68261415f565b604082019050919050565b600060208201905081810360008301526141ea816141ae565b9050919050565b60006141fc82613133565b91507fffffffffffffffffffffffffffffffffffffffffffffffffffffffffffffffff82141561422f5761422e613c09565b5b600182019050919050565b7f4e487b7100000000000000000000000000000000000000000000000000000000600052601260045260246000fd5b600061427482613133565b915061427f83613133565b92508261428f5761428e61423a565b5b828204905092915050565b60006142a582613133565b91506142b083613133565b9250826142c0576142bf61423a565b5b828206905092915050565b600081519050919050565b600082825260208201905092915050565b60006142f2826142cb565b6142fc81856142d6565b935061430c818560208601613094565b614315816130c7565b840191505092915050565b600060808201905061433560008301876131c8565b61434260208301866131c8565b61434f604083018561325e565b818103606083015261436181846142e7565b905095945050505050565b60008151905061437b81612f90565b92915050565b60006020828403121561439757614396612f5a565b5b60006143a58482850161436c565b91505092915050565b7f4e487b7100000000000000000000000000000000000000000000000000000000600052603160045260246000fd5b7f4552433732313a206d696e7420746f20746865207a65726f2061646472657373600082015250565b6000614413602083613083565b915061441e826143dd565b602082019050919050565b6000602082019050818103600083015261444281614406565b9050919050565b7f4552433732313a20746f6b656e20616c7265616479206d696e74656400000000600082015250565b600061447f601c83613083565b915061448a82614449565b602082019050919050565b600060208201905081810360008301526144ae81614472565b905091905056fea264697066735822122043db00a16ab046aaf99f39a7fd8f8f22fff926ab517247c5cfca0d5b50df9b0264736f6c634300080b0033",
  "immutableReferences": {},
  "source": "// SPDX-License-Identifier: MIT\r\npragma solidity >=0.5.0 <0.9.0;\r\n\r\n// import ERC721 interface\r\n// import \"@openzeppelin/contracts/token/ERC721/ERC721.sol\";\r\nimport \"@openzeppelin/contracts/access/Ownable.sol\";\r\nimport \"@openzeppelin/contracts/token/ERC721/extensions/ERC721Enumerable.sol\";\r\nimport \"@openzeppelin/contracts/utils/Strings.sol\";\r\nimport \"@openzeppelin/contracts/utils/math/SafeMath.sol\";\r\n\r\n// Cake smart contract inherits ERC721 Interface\r\ncontract Cake is Ownable, ERC721Enumerable {\r\n    using SafeMath for uint256;\r\n    using Strings for uint256;\r\n\r\n    uint256 public cakeCounter;\r\n    string private _baseURIextended = \"\";\r\n    string public baseExtension = \".json\";\r\n    string public notRevealedUri;\r\n    bool public revealed = false;\r\n    uint256 public maxSupply = 100;\r\n    bool public paused = false;\r\n    uint256 public cost = 0.02 ether;\r\n\r\n    // whitelisted addresses\r\n    mapping(address => bool) public whitelisted;\r\n\r\n    // Optional mapping for token URIs\r\n    mapping(uint256 => string) private _tokenURIs;\r\n    // check if token name exists\r\n    mapping(string => bool) public tokenNameExists;\r\n    // check if token URI exists\r\n    mapping(string => bool) public tokenURIExists;\r\n\r\n    // initialize contract while deployment with contract's collection name and token\r\n     constructor(\r\n    // string memory _initBaseURI,\r\n    // string memory _initNotRevealedUri\r\n    ) ERC721('CAKE TOKEN', 'CKT') {\r\n    // setBaseURI(_initBaseURI);\r\n    // setNotRevealedURI(_initNotRevealedUri);\r\n    whitelisted[0xba9D5f1D5390FA3E5fFC65F9C7332ffC40464D23] = true;\r\n    whitelisted[0x4009247cD0D3d893FFc9546953ac77981022b0B0] = true;\r\n    whitelisted[0x31cd872b26a7ae352e2F22C6180E03b34D81cf73] = true;\r\n    whitelisted[0xb221C202cF15E088B5DF9C60e7C919A193830806] = true;\r\n    whitelisted[0xb62bd6ad9774392A0714BA8Cb047d6E113eC5B9E] = true;\r\n    whitelisted[0x5028693249155F45bDeD0232Abb9b7D59FB7F896] = true;\r\n    whitelisted[0x448BB0d5E556Ee57dDDb627185Cb0DF045829c32] = true;\r\n    whitelisted[0xD0548f1003009c1E081C24a1e7aa06c6d89c9C20] = true;\r\n    whitelisted[0x4e8b414C61b366370a5ffB720d82A8bA8b08c65B] = true;\r\n\r\n    }\r\n\r\n    // Minting a new cake function\r\n    function mintCake(\r\n        string memory _tokenURI\r\n    ) public payable\r\n    {\r\n        uint256 supply = totalSupply();\r\n        require(!paused);\r\n        require(msg.sender != address(0));\r\n\r\n        // Checking for requirements\r\n        require(!tokenURIExists[_tokenURI]);\r\n\r\n        if(whitelisted[msg.sender] == true) {\r\n          require(msg.value == 0);\r\n        } else {\r\n          require(msg.value >= cost);    \r\n        }\r\n\r\n        uint256 _tokenId = supply + 1; \r\n        // Mint the token here\r\n        _safeMint(msg.sender, _tokenId);\r\n\r\n        // set token URI (bind token id with the passed in token URI)\r\n        _setTokenURI(_tokenId, _tokenURI);\r\n        // make passed token URI as exists\r\n        tokenURIExists[_tokenURI] = true;\r\n    }\r\n\r\n\r\n    function setBaseURI(string memory baseURI_) public onlyOwner {\r\n        _baseURIextended = baseURI_;\r\n    }\r\n\r\n    //Set TokenURI \r\n    function _setTokenURI(uint256 tokenId, string memory _tokenURI)\r\n        internal\r\n        virtual\r\n    {\r\n        require(\r\n            _exists(tokenId),\r\n            \"ERC721Metadata: URI set of nonexistent token\"\r\n        );\r\n        _tokenURIs[tokenId] = _tokenURI;\r\n    }\r\n\r\n    // Get TOKEN URI\r\n    function _baseURI() internal view virtual override returns (string memory) {\r\n        return _baseURIextended;\r\n    }\r\n\r\n      function tokenURI(uint256 tokenId)\r\n    public\r\n    view\r\n    virtual\r\n    override\r\n    returns (string memory)\r\n    {\r\n    require(\r\n      _exists(tokenId),\r\n      \"ERC721Metadata: URI query for nonexistent token\"\r\n    );\r\n    \r\n    if(revealed == false) {\r\n        return notRevealedUri;\r\n    }\r\n\r\n    string memory currentBaseURI = _baseURI();\r\n    return bytes(currentBaseURI).length > 0\r\n        ? string(abi.encodePacked(currentBaseURI, tokenId.toString(), baseExtension))\r\n        : \"\";\r\n    }\r\n\r\n\r\n    //ONLY OWNER FUNCTIONS BELOW\r\n    // reveal function\r\n    function reveal(bool _state) public onlyOwner {\r\n        revealed = _state;\r\n    }\r\n\r\n    // Set  not revealed URI\r\n    function setNotRevealedURI(string memory _notRevealedURI) public {\r\n        notRevealedUri = _notRevealedURI;\r\n    }\r\n\r\n    // Set price function function setCost(uint256 _newCost) public onlyOwner {\r\n    function setCost(uint256 _newCost) public onlyOwner {\r\n    cost = _newCost;\r\n    }\r\n\r\n    // Pause smart contract\r\n    function pause(bool _state) public onlyOwner {\r\n    paused = _state;\r\n    }\r\n\r\n    // Add and remove whitelist users\r\n    function addWhitelistUser(address _user) public onlyOwner {\r\n    whitelisted[_user] = true;\r\n    }\r\n \r\n    function removeWhitelistUser(address _user) public onlyOwner {\r\n    whitelisted[_user] = false;\r\n    }\r\n \r\n\r\n    // Get owner of the token\r\n    function getTokenOwner(uint256 _tokenId) public view returns (address) {\r\n        address _tokenOwner = ownerOf(_tokenId);\r\n        return _tokenOwner;\r\n    }\r\n\r\n    // Get Metadata of the token\r\n    function getTokenMetaData(uint256 _tokenId)\r\n        public\r\n        view\r\n        returns (string memory)\r\n    {\r\n        string memory tokenMetaData = tokenURI(_tokenId);\r\n        return tokenMetaData;\r\n    }\r\n\r\n    // Get total number of tokens minted\r\n    function getNumberOfTokensMinted() public view returns (uint256) {\r\n        uint256 totalNumberOfTokensMinted = totalSupply();\r\n        return totalNumberOfTokensMinted;\r\n    }\r\n\r\n    // get total number of tokens owned by an address\r\n    function getTotalNumberOfTokensOwnedByAnAddress(address _owner)\r\n        public\r\n        view\r\n        returns (uint256)\r\n    {\r\n        uint256 totalNumberOfTokensOwned = balanceOf(_owner);\r\n        return totalNumberOfTokensOwned;\r\n    }\r\n\r\n}",
  "sourcePath": "D:\\Shah Faisal\\Projects\\cake-project-nft\\contracts\\Cake.sol",
  "compiler": {
    "name": "solc",
    "version": "0.8.11+commit.d7f03943.Emscripten.clang"
  },
  "schemaVersion": "3.4.4",
  "updatedAt": "2022-02-02T06:51:02.225Z",
  "networkType": "ethereum",
  "devdoc": {
    "kind": "dev",
    "methods": {
      "approve(address,uint256)": {
        "details": "See {IERC721-approve}."
      },
      "balanceOf(address)": {
        "details": "See {IERC721-balanceOf}."
      },
      "getApproved(uint256)": {
        "details": "See {IERC721-getApproved}."
      },
      "isApprovedForAll(address,address)": {
        "details": "See {IERC721-isApprovedForAll}."
      },
      "name()": {
        "details": "See {IERC721Metadata-name}."
      },
      "owner()": {
        "details": "Returns the address of the current owner."
      },
      "ownerOf(uint256)": {
        "details": "See {IERC721-ownerOf}."
      },
      "renounceOwnership()": {
        "details": "Leaves the contract without owner. It will not be possible to call `onlyOwner` functions anymore. Can only be called by the current owner. NOTE: Renouncing ownership will leave the contract without an owner, thereby removing any functionality that is only available to the owner."
      },
      "safeTransferFrom(address,address,uint256)": {
        "details": "See {IERC721-safeTransferFrom}."
      },
      "safeTransferFrom(address,address,uint256,bytes)": {
        "details": "See {IERC721-safeTransferFrom}."
      },
      "setApprovalForAll(address,bool)": {
        "details": "See {IERC721-setApprovalForAll}."
      },
      "supportsInterface(bytes4)": {
        "details": "See {IERC165-supportsInterface}."
      },
      "symbol()": {
        "details": "See {IERC721Metadata-symbol}."
      },
      "tokenByIndex(uint256)": {
        "details": "See {IERC721Enumerable-tokenByIndex}."
      },
      "tokenOfOwnerByIndex(address,uint256)": {
        "details": "See {IERC721Enumerable-tokenOfOwnerByIndex}."
      },
      "tokenURI(uint256)": {
        "details": "See {IERC721Metadata-tokenURI}."
      },
      "totalSupply()": {
        "details": "See {IERC721Enumerable-totalSupply}."
      },
      "transferFrom(address,address,uint256)": {
        "details": "See {IERC721-transferFrom}."
      },
      "transferOwnership(address)": {
        "details": "Transfers ownership of the contract to a new account (`newOwner`). Can only be called by the current owner."
      }
    },
    "version": 1
  },
  "userdoc": {
    "kind": "user",
    "methods": {},
    "version": 1
  }
}