{
  "contractName": "ERC721",
  "abi": [
    {
      "inputs": [
        {
          "internalType": "string",
          "name": "name_",
          "type": "string"
        },
        {
          "internalType": "string",
          "name": "symbol_",
          "type": "string"
        }
      ],
      "stateMutability": "nonpayable",
      "type": "constructor"
    },
    {
      "anonymous": false,
      "inputs": [
        {
          "indexed": true,
          "internalType": "address",
          "name": "owner",
          "type": "address"
        },
        {
          "indexed": true,
          "internalType": "address",
          "name": "approved",
          "type": "address"
        },
        {
          "indexed": true,
          "internalType": "uint256",
          "name": "tokenId",
          "type": "uint256"
        }
      ],
      "name": "Approval",
      "type": "event"
    },
    {
      "anonymous": false,
      "inputs": [
        {
          "indexed": true,
          "internalType": "address",
          "name": "owner",
          "type": "address"
        },
        {
          "indexed": true,
          "internalType": "address",
          "name": "operator",
          "type": "address"
        },
        {
          "indexed": false,
          "internalType": "bool",
          "name": "approved",
          "type": "bool"
        }
      ],
      "name": "ApprovalForAll",
      "type": "event"
    },
    {
      "anonymous": false,
      "inputs": [
        {
          "indexed": true,
          "internalType": "address",
          "name": "from",
          "type": "address"
        },
        {
          "indexed": true,
          "internalType": "address",
          "name": "to",
          "type": "address"
        },
        {
          "indexed": true,
          "internalType": "uint256",
          "name": "tokenId",
          "type": "uint256"
        }
      ],
      "name": "Transfer",
      "type": "event"
    },
    {
      "inputs": [
        {
          "internalType": "bytes4",
          "name": "interfaceId",
          "type": "bytes4"
        }
      ],
      "name": "supportsInterface",
      "outputs": [
        {
          "internalType": "bool",
          "name": "",
          "type": "bool"
        }
      ],
      "stateMutability": "view",
      "type": "function"
    },
    {
      "inputs": [
        {
          "internalType": "address",
          "name": "owner",
          "type": "address"
        }
      ],
      "name": "balanceOf",
      "outputs": [
        {
          "internalType": "uint256",
          "name": "",
          "type": "uint256"
        }
      ],
      "stateMutability": "view",
      "type": "function"
    },
    {
      "inputs": [
        {
          "internalType": "uint256",
          "name": "tokenId",
          "type": "uint256"
        }
      ],
      "name": "ownerOf",
      "outputs": [
        {
          "internalType": "address",
          "name": "",
          "type": "address"
        }
      ],
      "stateMutability": "view",
      "type": "function"
    },
    {
      "inputs": [],
      "name": "name",
      "outputs": [
        {
          "internalType": "string",
          "name": "",
          "type": "string"
        }
      ],
      "stateMutability": "view",
      "type": "function"
    },
    {
      "inputs": [],
      "name": "symbol",
      "outputs": [
        {
          "internalType": "string",
          "name": "",
          "type": "string"
        }
      ],
      "stateMutability": "view",
      "type": "function"
    },
    {
      "inputs": [
        {
          "internalType": "uint256",
          "name": "tokenId",
          "type": "uint256"
        }
      ],
      "name": "tokenURI",
      "outputs": [
        {
          "internalType": "string",
          "name": "",
          "type": "string"
        }
      ],
      "stateMutability": "view",
      "type": "function"
    },
    {
      "inputs": [],
      "name": "baseURI",
      "outputs": [
        {
          "internalType": "string",
          "name": "",
          "type": "string"
        }
      ],
      "stateMutability": "view",
      "type": "function"
    },
    {
      "inputs": [
        {
          "internalType": "address",
          "name": "owner",
          "type": "address"
        },
        {
          "internalType": "uint256",
          "name": "index",
          "type": "uint256"
        }
      ],
      "name": "tokenOfOwnerByIndex",
      "outputs": [
        {
          "internalType": "uint256",
          "name": "",
          "type": "uint256"
        }
      ],
      "stateMutability": "view",
      "type": "function"
    },
    {
      "inputs": [],
      "name": "totalSupply",
      "outputs": [
        {
          "internalType": "uint256",
          "name": "",
          "type": "uint256"
        }
      ],
      "stateMutability": "view",
      "type": "function"
    },
    {
      "inputs": [
        {
          "internalType": "uint256",
          "name": "index",
          "type": "uint256"
        }
      ],
      "name": "tokenByIndex",
      "outputs": [
        {
          "internalType": "uint256",
          "name": "",
          "type": "uint256"
        }
      ],
      "stateMutability": "view",
      "type": "function"
    },
    {
      "inputs": [
        {
          "internalType": "address",
          "name": "to",
          "type": "address"
        },
        {
          "internalType": "uint256",
          "name": "tokenId",
          "type": "uint256"
        }
      ],
      "name": "approve",
      "outputs": [],
      "stateMutability": "nonpayable",
      "type": "function"
    },
    {
      "inputs": [
        {
          "internalType": "uint256",
          "name": "tokenId",
          "type": "uint256"
        }
      ],
      "name": "getApproved",
      "outputs": [
        {
          "internalType": "address",
          "name": "",
          "type": "address"
        }
      ],
      "stateMutability": "view",
      "type": "function"
    },
    {
      "inputs": [
        {
          "internalType": "address",
          "name": "operator",
          "type": "address"
        },
        {
          "internalType": "bool",
          "name": "approved",
          "type": "bool"
        }
      ],
      "name": "setApprovalForAll",
      "outputs": [],
      "stateMutability": "nonpayable",
      "type": "function"
    },
    {
      "inputs": [
        {
          "internalType": "address",
          "name": "owner",
          "type": "address"
        },
        {
          "internalType": "address",
          "name": "operator",
          "type": "address"
        }
      ],
      "name": "isApprovedForAll",
      "outputs": [
        {
          "internalType": "bool",
          "name": "",
          "type": "bool"
        }
      ],
      "stateMutability": "view",
      "type": "function"
    },
    {
      "inputs": [
        {
          "internalType": "address",
          "name": "from",
          "type": "address"
        },
        {
          "internalType": "address",
          "name": "to",
          "type": "address"
        },
        {
          "internalType": "uint256",
          "name": "tokenId",
          "type": "uint256"
        }
      ],
      "name": "transferFrom",
      "outputs": [],
      "stateMutability": "nonpayable",
      "type": "function"
    },
    {
      "inputs": [
        {
          "internalType": "address",
          "name": "from",
          "type": "address"
        },
        {
          "internalType": "address",
          "name": "to",
          "type": "address"
        },
        {
          "internalType": "uint256",
          "name": "tokenId",
          "type": "uint256"
        }
      ],
      "name": "safeTransferFrom",
      "outputs": [],
      "stateMutability": "nonpayable",
      "type": "function"
    },
    {
      "inputs": [
        {
          "internalType": "address",
          "name": "from",
          "type": "address"
        },
        {
          "internalType": "address",
          "name": "to",
          "type": "address"
        },
        {
          "internalType": "uint256",
          "name": "tokenId",
          "type": "uint256"
        },
        {
          "internalType": "bytes",
          "name": "_data",
          "type": "bytes"
        }
      ],
      "name": "safeTransferFrom",
      "outputs": [],
      "stateMutability": "nonpayable",
      "type": "function"
    }
  ],
  "bytecode": "0x60806040523480156200001157600080fd5b5060405162003439380380620034398339818101604052810190620000379190620002cb565b6200004f6301ffc9a760e01b620000d160201b60201c565b816006908051906020019062000067929190620001a9565b50806007908051906020019062000080929190620001a9565b50620000996380ac58cd60e01b620000d160201b60201c565b620000b1635b5e139f60e01b620000d160201b60201c565b620000c963780e9d6360e01b620000d160201b60201c565b505062000531565b63ffffffff60e01b817bffffffffffffffffffffffffffffffffffffffffffffffffffffffff191614156200013d576040517f08c379a0000000000000000000000000000000000000000000000000000000008152600401620001349062000365565b60405180910390fd5b6001600080837bffffffffffffffffffffffffffffffffffffffffffffffffffffffff19167bffffffffffffffffffffffffffffffffffffffffffffffffffffffff1916815260200190815260200160002060006101000a81548160ff02191690831515021790555050565b828054620001b7906200042d565b90600052602060002090601f016020900481019282620001db576000855562000227565b82601f10620001f657805160ff191683800117855562000227565b8280016001018555821562000227579182015b828111156200022657825182559160200191906001019062000209565b5b5090506200023691906200023a565b5090565b5b80821115620002555760008160009055506001016200023b565b5090565b6000620002706200026a84620003b0565b62000387565b9050828152602081018484840111156200028957600080fd5b62000296848285620003f7565b509392505050565b600082601f830112620002b057600080fd5b8151620002c284826020860162000259565b91505092915050565b60008060408385031215620002df57600080fd5b600083015167ffffffffffffffff811115620002fa57600080fd5b62000308858286016200029e565b925050602083015167ffffffffffffffff8111156200032657600080fd5b62000334858286016200029e565b9150509250929050565b60006200034d601c83620003e6565b91506200035a8262000508565b602082019050919050565b6000602082019050818103600083015262000380816200033e565b9050919050565b600062000393620003a6565b9050620003a1828262000463565b919050565b6000604051905090565b600067ffffffffffffffff821115620003ce57620003cd620004c8565b5b620003d982620004f7565b9050602081019050919050565b600082825260208201905092915050565b60005b8381101562000417578082015181840152602081019050620003fa565b8381111562000427576000848401525b50505050565b600060028204905060018216806200044657607f821691505b602082108114156200045d576200045c62000499565b5b50919050565b6200046e82620004f7565b810181811067ffffffffffffffff8211171562000490576200048f620004c8565b5b80604052505050565b7f4e487b7100000000000000000000000000000000000000000000000000000000600052602260045260246000fd5b7f4e487b7100000000000000000000000000000000000000000000000000000000600052604160045260246000fd5b6000601f19601f8301169050919050565b7f4552433136353a20696e76616c696420696e7465726661636520696400000000600082015250565b612ef880620005416000396000f3fe608060405234801561001057600080fd5b506004361061010b5760003560e01c80634f6ccce7116100a257806395d89b411161007157806395d89b41146102de578063a22cb465146102fc578063b88d4fde14610318578063c87b56dd14610334578063e985e9c5146103645761010b565b80634f6ccce7146102305780636352211e146102605780636c0360eb1461029057806370a08231146102ae5761010b565b806318160ddd116100de57806318160ddd146101aa57806323b872dd146101c85780632f745c59146101e457806342842e0e146102145761010b565b806301ffc9a71461011057806306fdde0314610140578063081812fc1461015e578063095ea7b31461018e575b600080fd5b61012a60048036038101906101259190611f49565b610394565b6040516101379190612383565b60405180910390f35b6101486103fb565b604051610155919061239e565b60405180910390f35b61017860048036038101906101739190611f9b565b61048d565b604051610185919061231c565b60405180910390f35b6101a860048036038101906101a39190611f0d565b610512565b005b6101b261062a565b6040516101bf91906125a0565b60405180910390f35b6101e260048036038101906101dd9190611e07565b61063b565b005b6101fe60048036038101906101f99190611f0d565b61069b565b60405161020b91906125a0565b60405180910390f35b61022e60048036038101906102299190611e07565b6106f6565b005b61024a60048036038101906102459190611f9b565b610716565b60405161025791906125a0565b60405180910390f35b61027a60048036038101906102759190611f9b565b610739565b604051610287919061231c565b60405180910390f35b610298610770565b6040516102a5919061239e565b60405180910390f35b6102c860048036038101906102c39190611da2565b610802565b6040516102d591906125a0565b60405180910390f35b6102e66108c1565b6040516102f3919061239e565b60405180910390f35b61031660048036038101906103119190611ed1565b610953565b005b610332600480360381019061032d9190611e56565b610ad4565b005b61034e60048036038101906103499190611f9b565b610b36565b60405161035b919061239e565b60405180910390f35b61037e60048036038101906103799190611dcb565b610ca9565b60405161038b9190612383565b60405180910390f35b6000806000837bffffffffffffffffffffffffffffffffffffffffffffffffffffffff19167bffffffffffffffffffffffffffffffffffffffffffffffffffffffff1916815260200190815260200160002060009054906101000a900460ff169050919050565b60606006805461040a9061280c565b80601f01602080910402602001604051908101604052809291908181526020018280546104369061280c565b80156104835780601f1061045857610100808354040283529160200191610483565b820191906000526020600020905b81548152906001019060200180831161046657829003601f168201915b5050505050905090565b600061049882610d3d565b6104d7576040517f08c379a00000000000000000000000000000000000000000000000000000000081526004016104ce906124e0565b60405180910390fd5b6004600083815260200190815260200160002060009054906101000a900473ffffffffffffffffffffffffffffffffffffffff169050919050565b600061051d82610739565b90508073ffffffffffffffffffffffffffffffffffffffff168373ffffffffffffffffffffffffffffffffffffffff16141561058e576040517f08c379a000000000000000000000000000000000000000000000000000000000815260040161058590612540565b60405180910390fd5b8073ffffffffffffffffffffffffffffffffffffffff166105ad610d5a565b73ffffffffffffffffffffffffffffffffffffffff1614806105dc57506105db816105d6610d5a565b610ca9565b5b61061b576040517f08c379a000000000000000000000000000000000000000000000000000000000815260040161061290612480565b60405180910390fd5b6106258383610d62565b505050565b60006106366002610e1b565b905090565b61064c610646610d5a565b82610e30565b61068b576040517f08c379a000000000000000000000000000000000000000000000000000000000815260040161068290612560565b60405180910390fd5b610696838383610f0e565b505050565b60006106ee82600160008673ffffffffffffffffffffffffffffffffffffffff1673ffffffffffffffffffffffffffffffffffffffff16815260200190815260200160002061112590919063ffffffff16565b905092915050565b61071183838360405180602001604052806000815250610ad4565b505050565b60008061072d83600261113f90919063ffffffff16565b50905080915050919050565b600061076982604051806060016040528060298152602001612e9a60299139600261116b9092919063ffffffff16565b9050919050565b60606009805461077f9061280c565b80601f01602080910402602001604051908101604052809291908181526020018280546107ab9061280c565b80156107f85780601f106107cd576101008083540402835291602001916107f8565b820191906000526020600020905b8154815290600101906020018083116107db57829003601f168201915b5050505050905090565b60008073ffffffffffffffffffffffffffffffffffffffff168273ffffffffffffffffffffffffffffffffffffffff161415610873576040517f08c379a000000000000000000000000000000000000000000000000000000000815260040161086a906124a0565b60405180910390fd5b6108ba600160008473ffffffffffffffffffffffffffffffffffffffff1673ffffffffffffffffffffffffffffffffffffffff16815260200190815260200160002061118a565b9050919050565b6060600780546108d09061280c565b80601f01602080910402602001604051908101604052809291908181526020018280546108fc9061280c565b80156109495780601f1061091e57610100808354040283529160200191610949565b820191906000526020600020905b81548152906001019060200180831161092c57829003601f168201915b5050505050905090565b61095b610d5a565b73ffffffffffffffffffffffffffffffffffffffff168273ffffffffffffffffffffffffffffffffffffffff1614156109c9576040517f08c379a00000000000000000000000000000000000000000000000000000000081526004016109c090612420565b60405180910390fd5b80600560006109d6610d5a565b73ffffffffffffffffffffffffffffffffffffffff1673ffffffffffffffffffffffffffffffffffffffff16815260200190815260200160002060008473ffffffffffffffffffffffffffffffffffffffff1673ffffffffffffffffffffffffffffffffffffffff16815260200190815260200160002060006101000a81548160ff0219169083151502179055508173ffffffffffffffffffffffffffffffffffffffff16610a83610d5a565b73ffffffffffffffffffffffffffffffffffffffff167f17307eab39ab6107e8899845ad3d59bd9653f200f220920489ca2b5937696c3183604051610ac89190612383565b60405180910390a35050565b610ae5610adf610d5a565b83610e30565b610b24576040517f08c379a0000000000000000000000000000000000000000000000000000000008152600401610b1b90612560565b60405180910390fd5b610b308484848461119f565b50505050565b6060610b4182610d3d565b610b80576040517f08c379a0000000000000000000000000000000000000000000000000000000008152600401610b7790612520565b60405180910390fd5b6000600860008481526020019081526020016000208054610ba09061280c565b80601f0160208091040260200160405190810160405280929190818152602001828054610bcc9061280c565b8015610c195780601f10610bee57610100808354040283529160200191610c19565b820191906000526020600020905b815481529060010190602001808311610bfc57829003601f168201915b505050505090506000610c2a610770565b9050600081511415610c40578192505050610ca4565b600082511115610c75578082604051602001610c5d9291906122f8565b60405160208183030381529060405292505050610ca4565b80610c7f856111fb565b604051602001610c909291906122f8565b604051602081830303815290604052925050505b919050565b6000600560008473ffffffffffffffffffffffffffffffffffffffff1673ffffffffffffffffffffffffffffffffffffffff16815260200190815260200160002060008373ffffffffffffffffffffffffffffffffffffffff1673ffffffffffffffffffffffffffffffffffffffff16815260200190815260200160002060009054906101000a900460ff16905092915050565b6000610d538260026113ba90919063ffffffff16565b9050919050565b600033905090565b816004600083815260200190815260200160002060006101000a81548173ffffffffffffffffffffffffffffffffffffffff021916908373ffffffffffffffffffffffffffffffffffffffff160217905550808273ffffffffffffffffffffffffffffffffffffffff16610dd583610739565b73ffffffffffffffffffffffffffffffffffffffff167f8c5be1e5ebec7d5bd14f71427d1e84f3dd0314c0f7b2291e5b200ac8c7c3b92560405160405180910390a45050565b6000610e29826000016113d4565b9050919050565b6000610e3b82610d3d565b610e7a576040517f08c379a0000000000000000000000000000000000000000000000000000000008152600401610e7190612460565b60405180910390fd5b6000610e8583610739565b90508073ffffffffffffffffffffffffffffffffffffffff168473ffffffffffffffffffffffffffffffffffffffff161480610ef457508373ffffffffffffffffffffffffffffffffffffffff16610edc8461048d565b73ffffffffffffffffffffffffffffffffffffffff16145b80610f055750610f048185610ca9565b5b91505092915050565b8273ffffffffffffffffffffffffffffffffffffffff16610f2e82610739565b73ffffffffffffffffffffffffffffffffffffffff1614610f84576040517f08c379a0000000000000000000000000000000000000000000000000000000008152600401610f7b90612500565b60405180910390fd5b600073ffffffffffffffffffffffffffffffffffffffff168273ffffffffffffffffffffffffffffffffffffffff161415610ff4576040517f08c379a0000000000000000000000000000000000000000000000000000000008152600401610feb90612400565b60405180910390fd5b610fff8383836113e5565b61100a600082610d62565b61105b81600160008673ffffffffffffffffffffffffffffffffffffffff1673ffffffffffffffffffffffffffffffffffffffff1681526020019081526020016000206113ea90919063ffffffff16565b506110ad81600160008573ffffffffffffffffffffffffffffffffffffffff1673ffffffffffffffffffffffffffffffffffffffff16815260200190815260200160002061140490919063ffffffff16565b506110c48183600261141e9092919063ffffffff16565b50808273ffffffffffffffffffffffffffffffffffffffff168473ffffffffffffffffffffffffffffffffffffffff167fddf252ad1be2c89b69c2b068fc378daa952ba7f163c4a11628f55a4df523b3ef60405160405180910390a4505050565b60006111348360000183611453565b60001c905092915050565b60008060008061115286600001866114ed565b915091508160001c8160001c9350935050509250929050565b600061117e846000018460001b8461159d565b60001c90509392505050565b600061119882600001611664565b9050919050565b6111aa848484610f0e565b6111b684848484611675565b6111f5576040517f08c379a00000000000000000000000000000000000000000000000000000000081526004016111ec906123e0565b60405180910390fd5b50505050565b60606000821415611243576040518060400160405280600181526020017f300000000000000000000000000000000000000000000000000000000000000081525090506113b5565b600082905060005b6000821461127557808061125e9061286f565b915050600a8261126e91906126b5565b915061124b565b60008167ffffffffffffffff8111156112b7577f4e487b7100000000000000000000000000000000000000000000000000000000600052604160045260246000fd5b6040519080825280601f01601f1916602001820160405280156112e95781602001600182028036833780820191505090505b50905060006001836112fb91906126e6565b90508593505b600084146113ad57600a8461131691906128b8565b6030611322919061265f565b60f81b828280611331906127e2565b93508151811061136a577f4e487b7100000000000000000000000000000000000000000000000000000000600052603260045260246000fd5b60200101907effffffffffffffffffffffffffffffffffffffffffffffffffffffffffffff1916908160001a905350600a846113a691906126b5565b9350611301565b819450505050505b919050565b60006113cc836000018360001b6117d9565b905092915050565b600081600001805490509050919050565b505050565b60006113fc836000018360001b6117fc565b905092915050565b6000611416836000018360001b611986565b905092915050565b600061144a846000018460001b8473ffffffffffffffffffffffffffffffffffffffff1660001b6119f6565b90509392505050565b60008183600001805490501161149e576040517f08c379a0000000000000000000000000000000000000000000000000000000008152600401611495906123c0565b60405180910390fd5b8260000182815481106114da577f4e487b7100000000000000000000000000000000000000000000000000000000600052603260045260246000fd5b9060005260206000200154905092915050565b60008082846000018054905011611539576040517f08c379a0000000000000000000000000000000000000000000000000000000008152600401611530906124c0565b60405180910390fd5b6000846000018481548110611577577f4e487b7100000000000000000000000000000000000000000000000000000000600052603260045260246000fd5b906000526020600020906002020190508060000154816001015492509250509250929050565b600080846001016000858152602001908152602001600020549050600081141583906115ff576040517f08c379a00000000000000000000000000000000000000000000000000000000081526004016115f6919061239e565b60405180910390fd5b508460000160018261161191906126e6565b81548110611648577f4e487b7100000000000000000000000000000000000000000000000000000000600052603260045260246000fd5b9060005260206000209060020201600101549150509392505050565b600081600001805490509050919050565b60006116968473ffffffffffffffffffffffffffffffffffffffff16611b08565b6116a357600190506117d1565b600061176a63150b7a0260e01b6116b8610d5a565b8887876040516024016116ce9493929190612337565b604051602081830303815290604052907bffffffffffffffffffffffffffffffffffffffffffffffffffffffff19166020820180517bffffffffffffffffffffffffffffffffffffffffffffffffffffffff8381831617835250505050604051806060016040528060328152602001612e68603291398773ffffffffffffffffffffffffffffffffffffffff16611b1b9092919063ffffffff16565b90506000818060200190518101906117829190611f72565b905063150b7a0260e01b7bffffffffffffffffffffffffffffffffffffffffffffffffffffffff1916817bffffffffffffffffffffffffffffffffffffffffffffffffffffffff191614925050505b949350505050565b600080836001016000848152602001908152602001600020541415905092915050565b6000808360010160008481526020019081526020016000205490506000811461197a57600060018261182e91906126e6565b905060006001866000018054905061184691906126e6565b90506000866000018281548110611886577f4e487b7100000000000000000000000000000000000000000000000000000000600052603260045260246000fd5b90600052602060002001549050808760000184815481106118d0577f4e487b7100000000000000000000000000000000000000000000000000000000600052603260045260246000fd5b90600052602060002001819055506001836118eb919061265f565b876001016000838152602001908152602001600020819055508660000180548061193e577f4e487b7100000000000000000000000000000000000000000000000000000000600052603160045260246000fd5b60019003818190600052602060002001600090559055866001016000878152602001908152602001600020600090556001945050505050611980565b60009150505b92915050565b60006119928383611b33565b6119eb5782600001829080600181540180825580915050600190039060005260206000200160009091909190915055826000018054905083600101600084815260200190815260200160002081905550600190506119f0565b600090505b92915050565b6000808460010160008581526020019081526020016000205490506000811415611a9d57846000016040518060400160405280868152602001858152509080600181540180825580915050600190039060005260206000209060020201600090919091909150600082015181600001556020820151816001015550508460000180549050856001016000868152602001908152602001600020819055506001915050611b01565b8285600001600183611aaf91906126e6565b81548110611ae6577f4e487b7100000000000000000000000000000000000000000000000000000000600052603260045260246000fd5b90600052602060002090600202016001018190555060009150505b9392505050565b600080823b905060008111915050919050565b6060611b2a8484600085611b56565b90509392505050565b600080836001016000848152602001908152602001600020541415905092915050565b606082471015611b9b576040517f08c379a0000000000000000000000000000000000000000000000000000000008152600401611b9290612440565b60405180910390fd5b611ba485611b08565b611be3576040517f08c379a0000000000000000000000000000000000000000000000000000000008152600401611bda90612580565b60405180910390fd5b6000808673ffffffffffffffffffffffffffffffffffffffff168587604051611c0c91906122e1565b60006040518083038185875af1925050503d8060008114611c49576040519150601f19603f3d011682016040523d82523d6000602084013e611c4e565b606091505b5091509150611c5e828286611c6a565b92505050949350505050565b60608315611c7a57829050611cca565b600083511115611c8d5782518084602001fd5b816040517f08c379a0000000000000000000000000000000000000000000000000000000008152600401611cc1919061239e565b60405180910390fd5b9392505050565b6000611ce4611cdf846125e0565b6125bb565b905082815260208101848484011115611cfc57600080fd5b611d078482856127a0565b509392505050565b600081359050611d1e81612e0b565b92915050565b600081359050611d3381612e22565b92915050565b600081359050611d4881612e39565b92915050565b600081519050611d5d81612e39565b92915050565b600082601f830112611d7457600080fd5b8135611d84848260208601611cd1565b91505092915050565b600081359050611d9c81612e50565b92915050565b600060208284031215611db457600080fd5b6000611dc284828501611d0f565b91505092915050565b60008060408385031215611dde57600080fd5b6000611dec85828601611d0f565b9250506020611dfd85828601611d0f565b9150509250929050565b600080600060608486031215611e1c57600080fd5b6000611e2a86828701611d0f565b9350506020611e3b86828701611d0f565b9250506040611e4c86828701611d8d565b9150509250925092565b60008060008060808587031215611e6c57600080fd5b6000611e7a87828801611d0f565b9450506020611e8b87828801611d0f565b9350506040611e9c87828801611d8d565b925050606085013567ffffffffffffffff811115611eb957600080fd5b611ec587828801611d63565b91505092959194509250565b60008060408385031215611ee457600080fd5b6000611ef285828601611d0f565b9250506020611f0385828601611d24565b9150509250929050565b60008060408385031215611f2057600080fd5b6000611f2e85828601611d0f565b9250506020611f3f85828601611d8d565b9150509250929050565b600060208284031215611f5b57600080fd5b6000611f6984828501611d39565b91505092915050565b600060208284031215611f8457600080fd5b6000611f9284828501611d4e565b91505092915050565b600060208284031215611fad57600080fd5b6000611fbb84828501611d8d565b91505092915050565b611fcd8161272c565b82525050565b611fdc8161271a565b82525050565b611feb8161273e565b82525050565b6000611ffc82612611565b6120068185612627565b93506120168185602086016127af565b61201f816129a5565b840191505092915050565b600061203582612611565b61203f8185612638565b935061204f8185602086016127af565b80840191505092915050565b60006120668261261c565b6120708185612643565b93506120808185602086016127af565b612089816129a5565b840191505092915050565b600061209f8261261c565b6120a98185612654565b93506120b98185602086016127af565b80840191505092915050565b60006120d2602283612643565b91506120dd826129b6565b604082019050919050565b60006120f5603283612643565b915061210082612a05565b604082019050919050565b6000612118602483612643565b915061212382612a54565b604082019050919050565b600061213b601983612643565b915061214682612aa3565b602082019050919050565b600061215e602683612643565b915061216982612acc565b604082019050919050565b6000612181602c83612643565b915061218c82612b1b565b604082019050919050565b60006121a4603883612643565b91506121af82612b6a565b604082019050919050565b60006121c7602a83612643565b91506121d282612bb9565b604082019050919050565b60006121ea602283612643565b91506121f582612c08565b604082019050919050565b600061220d602c83612643565b915061221882612c57565b604082019050919050565b6000612230602983612643565b915061223b82612ca6565b604082019050919050565b6000612253602f83612643565b915061225e82612cf5565b604082019050919050565b6000612276602183612643565b915061228182612d44565b604082019050919050565b6000612299603183612643565b91506122a482612d93565b604082019050919050565b60006122bc601d83612643565b91506122c782612de2565b602082019050919050565b6122db81612796565b82525050565b60006122ed828461202a565b915081905092915050565b60006123048285612094565b91506123108284612094565b91508190509392505050565b60006020820190506123316000830184611fd3565b92915050565b600060808201905061234c6000830187611fc4565b6123596020830186611fd3565b61236660408301856122d2565b81810360608301526123788184611ff1565b905095945050505050565b60006020820190506123986000830184611fe2565b92915050565b600060208201905081810360008301526123b8818461205b565b905092915050565b600060208201905081810360008301526123d9816120c5565b9050919050565b600060208201905081810360008301526123f9816120e8565b9050919050565b600060208201905081810360008301526124198161210b565b9050919050565b600060208201905081810360008301526124398161212e565b9050919050565b6000602082019050818103600083015261245981612151565b9050919050565b6000602082019050818103600083015261247981612174565b9050919050565b6000602082019050818103600083015261249981612197565b9050919050565b600060208201905081810360008301526124b9816121ba565b9050919050565b600060208201905081810360008301526124d9816121dd565b9050919050565b600060208201905081810360008301526124f981612200565b9050919050565b6000602082019050818103600083015261251981612223565b9050919050565b6000602082019050818103600083015261253981612246565b9050919050565b6000602082019050818103600083015261255981612269565b9050919050565b600060208201905081810360008301526125798161228c565b9050919050565b60006020820190508181036000830152612599816122af565b9050919050565b60006020820190506125b560008301846122d2565b92915050565b60006125c56125d6565b90506125d1828261283e565b919050565b6000604051905090565b600067ffffffffffffffff8211156125fb576125fa612976565b5b612604826129a5565b9050602081019050919050565b600081519050919050565b600081519050919050565b600082825260208201905092915050565b600081905092915050565b600082825260208201905092915050565b600081905092915050565b600061266a82612796565b915061267583612796565b9250827fffffffffffffffffffffffffffffffffffffffffffffffffffffffffffffffff038211156126aa576126a96128e9565b5b828201905092915050565b60006126c082612796565b91506126cb83612796565b9250826126db576126da612918565b5b828204905092915050565b60006126f182612796565b91506126fc83612796565b92508282101561270f5761270e6128e9565b5b828203905092915050565b600061272582612776565b9050919050565b600061273782612776565b9050919050565b60008115159050919050565b60007fffffffff0000000000000000000000000000000000000000000000000000000082169050919050565b600073ffffffffffffffffffffffffffffffffffffffff82169050919050565b6000819050919050565b82818337600083830152505050565b60005b838110156127cd5780820151818401526020810190506127b2565b838111156127dc576000848401525b50505050565b60006127ed82612796565b91506000821415612801576128006128e9565b5b600182039050919050565b6000600282049050600182168061282457607f821691505b6020821081141561283857612837612947565b5b50919050565b612847826129a5565b810181811067ffffffffffffffff8211171561286657612865612976565b5b80604052505050565b600061287a82612796565b91507fffffffffffffffffffffffffffffffffffffffffffffffffffffffffffffffff8214156128ad576128ac6128e9565b5b600182019050919050565b60006128c382612796565b91506128ce83612796565b9250826128de576128dd612918565b5b828206905092915050565b7f4e487b7100000000000000000000000000000000000000000000000000000000600052601160045260246000fd5b7f4e487b7100000000000000000000000000000000000000000000000000000000600052601260045260246000fd5b7f4e487b7100000000000000000000000000000000000000000000000000000000600052602260045260246000fd5b7f4e487b7100000000000000000000000000000000000000000000000000000000600052604160045260246000fd5b6000601f19601f8301169050919050565b7f456e756d657261626c655365743a20696e646578206f7574206f6620626f756e60008201527f6473000000000000000000000000000000000000000000000000000000000000602082015250565b7f4552433732313a207472616e7366657220746f206e6f6e20455243373231526560008201527f63656976657220696d706c656d656e7465720000000000000000000000000000602082015250565b7f4552433732313a207472616e7366657220746f20746865207a65726f2061646460008201527f7265737300000000000000000000000000000000000000000000000000000000602082015250565b7f4552433732313a20617070726f766520746f2063616c6c657200000000000000600082015250565b7f416464726573733a20696e73756666696369656e742062616c616e636520666f60008201527f722063616c6c0000000000000000000000000000000000000000000000000000602082015250565b7f4552433732313a206f70657261746f7220717565727920666f72206e6f6e657860008201527f697374656e7420746f6b656e0000000000000000000000000000000000000000602082015250565b7f4552433732313a20617070726f76652063616c6c6572206973206e6f74206f7760008201527f6e6572206e6f7220617070726f76656420666f7220616c6c0000000000000000602082015250565b7f4552433732313a2062616c616e636520717565727920666f7220746865207a6560008201527f726f206164647265737300000000000000000000000000000000000000000000602082015250565b7f456e756d657261626c654d61703a20696e646578206f7574206f6620626f756e60008201527f6473000000000000000000000000000000000000000000000000000000000000602082015250565b7f4552433732313a20617070726f76656420717565727920666f72206e6f6e657860008201527f697374656e7420746f6b656e0000000000000000000000000000000000000000602082015250565b7f4552433732313a207472616e73666572206f6620746f6b656e2074686174206960008201527f73206e6f74206f776e0000000000000000000000000000000000000000000000602082015250565b7f4552433732314d657461646174613a2055524920717565727920666f72206e6f60008201527f6e6578697374656e7420746f6b656e0000000000000000000000000000000000602082015250565b7f4552433732313a20617070726f76616c20746f2063757272656e74206f776e6560008201527f7200000000000000000000000000000000000000000000000000000000000000602082015250565b7f4552433732313a207472616e736665722063616c6c6572206973206e6f74206f60008201527f776e6572206e6f7220617070726f766564000000000000000000000000000000602082015250565b7f416464726573733a2063616c6c20746f206e6f6e2d636f6e7472616374000000600082015250565b612e148161271a565b8114612e1f57600080fd5b50565b612e2b8161273e565b8114612e3657600080fd5b50565b612e428161274a565b8114612e4d57600080fd5b50565b612e5981612796565b8114612e6457600080fd5b5056fe4552433732313a207472616e7366657220746f206e6f6e20455243373231526563656976657220696d706c656d656e7465724552433732313a206f776e657220717565727920666f72206e6f6e6578697374656e7420746f6b656ea2646970667358221220875a2192cb7e776f35443003c799adfb5deb78b21b920df4510fbbbb72100a2f64736f6c63430008030033",
  "immutableReferences": {},
  "source": "// SPDX-License-Identifier: MIT\r\n\r\n// File: @openzeppelin/contracts/utils/Context.sol\r\npragma solidity >=0.4.22 <0.9.0;\r\n\r\n/*\r\n * @dev Provides information about the current execution context, including the\r\n * sender of the transaction and its data. While these are generally available\r\n * via msg.sender and msg.data, they should not be accessed in such a direct\r\n * manner, since when dealing with GSN meta-transactions the account sending and\r\n * paying for execution may not be the actual sender (as far as an application\r\n * is concerned).\r\n *\r\n * This contract is only required for intermediate, library-like contracts.\r\n */\r\nabstract contract Context {\r\n    function _msgSender() internal view virtual returns (address payable) {\r\n        return payable(msg.sender);\r\n    }\r\n\r\n    function _msgData() internal view virtual returns (bytes memory) {\r\n        this; // silence state mutability warning without generating bytecode - see https://github.com/ethereum/solidity/issues/2691\r\n        return msg.data;\r\n    }\r\n}\r\n\r\n// File: @openzeppelin/contracts/introspection/IERC165.sol\r\n\r\npragma solidity >=0.4.22 <0.9.0;\r\n\r\n/**\r\n * @dev Interface of the ERC165 standard, as defined in the\r\n * https://eips.ethereum.org/EIPS/eip-165[EIP].\r\n *\r\n * Implementers can declare support of contract interfaces, which can then be\r\n * queried by others ({ERC165Checker}).\r\n *\r\n * For an implementation, see {ERC165}.\r\n */\r\ninterface IERC165 {\r\n    /**\r\n     * @dev Returns true if this contract implements the interface defined by\r\n     * `interfaceId`. See the corresponding\r\n     * https://eips.ethereum.org/EIPS/eip-165#how-interfaces-are-identified[EIP section]\r\n     * to learn more about how these ids are created.\r\n     *\r\n     * This function call must use less than 30 000 gas.\r\n     */\r\n    function supportsInterface(bytes4 interfaceId) external view returns (bool);\r\n}\r\n\r\n// File: @openzeppelin/contracts/token/ERC721/IERC721.sol\r\npragma solidity >=0.4.22 <0.9.0;\r\n\r\n\r\n/**\r\n * @dev Required interface of an ERC721 compliant contract.\r\n */\r\ninterface IERC721 is IERC165 {\r\n    /**\r\n     * @dev Emitted when `tokenId` token is transferred from `from` to `to`.\r\n     */\r\n    event Transfer(address indexed from, address indexed to, uint256 indexed tokenId);\r\n\r\n    /**\r\n     * @dev Emitted when `owner` enables `approved` to manage the `tokenId` token.\r\n     */\r\n    event Approval(address indexed owner, address indexed approved, uint256 indexed tokenId);\r\n\r\n    /**\r\n     * @dev Emitted when `owner` enables or disables (`approved`) `operator` to manage all of its assets.\r\n     */\r\n    event ApprovalForAll(address indexed owner, address indexed operator, bool approved);\r\n\r\n    /**\r\n     * @dev Returns the number of tokens in ``owner``'s account.\r\n     */\r\n    function balanceOf(address owner) external view returns (uint256 balance);\r\n\r\n    /**\r\n     * @dev Returns the owner of the `tokenId` token.\r\n     *\r\n     * Requirements:\r\n     *\r\n     * - `tokenId` must exist.\r\n     */\r\n    function ownerOf(uint256 tokenId) external view returns (address owner);\r\n\r\n    /**\r\n     * @dev Safely transfers `tokenId` token from `from` to `to`, checking first that contract recipients\r\n     * are aware of the ERC721 protocol to prevent tokens from being forever locked.\r\n     *\r\n     * Requirements:\r\n     *\r\n     * - `from` cannot be the zero address.\r\n     * - `to` cannot be the zero address.\r\n     * - `tokenId` token must exist and be owned by `from`.\r\n     * - If the caller is not `from`, it must be have been allowed to move this token by either {approve} or {setApprovalForAll}.\r\n     * - If `to` refers to a smart contract, it must implement {IERC721Receiver-onERC721Received}, which is called upon a safe transfer.\r\n     *\r\n     * Emits a {Transfer} event.\r\n     */\r\n    function safeTransferFrom(address from, address to, uint256 tokenId) external;\r\n\r\n    /**\r\n     * @dev Transfers `tokenId` token from `from` to `to`.\r\n     *\r\n     * WARNING: Usage of this method is discouraged, use {safeTransferFrom} whenever possible.\r\n     *\r\n     * Requirements:\r\n     *\r\n     * - `from` cannot be the zero address.\r\n     * - `to` cannot be the zero address.\r\n     * - `tokenId` token must be owned by `from`.\r\n     * - If the caller is not `from`, it must be approved to move this token by either {approve} or {setApprovalForAll}.\r\n     *\r\n     * Emits a {Transfer} event.\r\n     */\r\n    function transferFrom(address from, address to, uint256 tokenId) external;\r\n\r\n    /**\r\n     * @dev Gives permission to `to` to transfer `tokenId` token to another account.\r\n     * The approval is cleared when the token is transferred.\r\n     *\r\n     * Only a single account can be approved at a time, so approving the zero address clears previous approvals.\r\n     *\r\n     * Requirements:\r\n     *\r\n     * - The caller must own the token or be an approved operator.\r\n     * - `tokenId` must exist.\r\n     *\r\n     * Emits an {Approval} event.\r\n     */\r\n    function approve(address to, uint256 tokenId) external;\r\n\r\n    /**\r\n     * @dev Returns the account approved for `tokenId` token.\r\n     *\r\n     * Requirements:\r\n     *\r\n     * - `tokenId` must exist.\r\n     */\r\n    function getApproved(uint256 tokenId) external view returns (address operator);\r\n\r\n    /**\r\n     * @dev Approve or remove `operator` as an operator for the caller.\r\n     * Operators can call {transferFrom} or {safeTransferFrom} for any token owned by the caller.\r\n     *\r\n     * Requirements:\r\n     *\r\n     * - The `operator` cannot be the caller.\r\n     *\r\n     * Emits an {ApprovalForAll} event.\r\n     */\r\n    function setApprovalForAll(address operator, bool _approved) external;\r\n\r\n    /**\r\n     * @dev Returns if the `operator` is allowed to manage all of the assets of `owner`.\r\n     *\r\n     * See {setApprovalForAll}\r\n     */\r\n    function isApprovedForAll(address owner, address operator) external view returns (bool);\r\n\r\n    /**\r\n      * @dev Safely transfers `tokenId` token from `from` to `to`.\r\n      *\r\n      * Requirements:\r\n      *\r\n      * - `from` cannot be the zero address.\r\n      * - `to` cannot be the zero address.\r\n      * - `tokenId` token must exist and be owned by `from`.\r\n      * - If the caller is not `from`, it must be approved to move this token by either {approve} or {setApprovalForAll}.\r\n      * - If `to` refers to a smart contract, it must implement {IERC721Receiver-onERC721Received}, which is called upon a safe transfer.\r\n      *\r\n      * Emits a {Transfer} event.\r\n      */\r\n    function safeTransferFrom(address from, address to, uint256 tokenId, bytes calldata data) external;\r\n}\r\n\r\n// File: @openzeppelin/contracts/token/ERC721/IERC721Metadata.sol\r\npragma solidity >=0.4.22 <0.9.0;\r\n\r\n\r\n/**\r\n * @title ERC-721 Non-Fungible Token Standard, optional metadata extension\r\n * @dev See https://eips.ethereum.org/EIPS/eip-721\r\n */\r\ninterface IERC721Metadata is IERC721 {\r\n\r\n    /**\r\n     * @dev Returns the token collection name.\r\n     */\r\n    function name() external view returns (string memory);\r\n\r\n    /**\r\n     * @dev Returns the token collection symbol.\r\n     */\r\n    function symbol() external view returns (string memory);\r\n\r\n    /**\r\n     * @dev Returns the Uniform Resource Identifier (URI) for `tokenId` token.\r\n     */\r\n    function tokenURI(uint256 tokenId) external view returns (string memory);\r\n}\r\n\r\n// File: @openzeppelin/contracts/token/ERC721/IERC721Enumerable.sol\r\n\r\n\r\npragma solidity >=0.4.22 <0.9.0;\r\n\r\n\r\n/**\r\n * @title ERC-721 Non-Fungible Token Standard, optional enumeration extension\r\n * @dev See https://eips.ethereum.org/EIPS/eip-721\r\n */\r\ninterface IERC721Enumerable is IERC721 {\r\n\r\n    /**\r\n     * @dev Returns the total amount of tokens stored by the contract.\r\n     */\r\n    function totalSupply() external view returns (uint256);\r\n\r\n    /**\r\n     * @dev Returns a token ID owned by `owner` at a given `index` of its token list.\r\n     * Use along with {balanceOf} to enumerate all of ``owner``'s tokens.\r\n     */\r\n    function tokenOfOwnerByIndex(address owner, uint256 index) external view returns (uint256 tokenId);\r\n\r\n    /**\r\n     * @dev Returns a token ID at a given `index` of all the tokens stored by the contract.\r\n     * Use along with {totalSupply} to enumerate all tokens.\r\n     */\r\n    function tokenByIndex(uint256 index) external view returns (uint256);\r\n}\r\n\r\n// File: @openzeppelin/contracts/token/ERC721/IERC721Receiver.sol\r\n\r\n\r\npragma solidity >=0.4.22 <0.9.0;\r\n\r\n/**\r\n * @title ERC721 token receiver interface\r\n * @dev Interface for any contract that wants to support safeTransfers\r\n * from ERC721 asset contracts.\r\n */\r\ninterface IERC721Receiver {\r\n    /**\r\n     * @dev Whenever an {IERC721} `tokenId` token is transferred to this contract via {IERC721-safeTransferFrom}\r\n     * by `operator` from `from`, this function is called.\r\n     *\r\n     * It must return its Solidity selector to confirm the token transfer.\r\n     * If any other value is returned or the interface is not implemented by the recipient, the transfer will be reverted.\r\n     *\r\n     * The selector can be obtained in Solidity with `IERC721.onERC721Received.selector`.\r\n     */\r\n    function onERC721Received(address operator, address from, uint256 tokenId, bytes calldata data) external returns (bytes4);\r\n}\r\n\r\n// File: @openzeppelin/contracts/introspection/ERC165.sol\r\npragma solidity >=0.4.22 <0.9.0;\r\n\r\n\r\n/**\r\n * @dev Implementation of the {IERC165} interface.\r\n *\r\n * Contracts may inherit from this and call {_registerInterface} to declare\r\n * their support of an interface.\r\n */\r\nabstract contract ERC165 is IERC165 {\r\n    /*\r\n     * bytes4(keccak256('supportsInterface(bytes4)')) == 0x01ffc9a7\r\n     */\r\n    bytes4 private constant _INTERFACE_ID_ERC165 = 0x01ffc9a7;\r\n\r\n    /**\r\n     * @dev Mapping of interface ids to whether or not it's supported.\r\n     */\r\n    mapping(bytes4 => bool) private _supportedInterfaces;\r\n\r\n    constructor () {\r\n        // Derived contracts need only register support for their own interfaces,\r\n        // we register support for ERC165 itself here\r\n        _registerInterface(_INTERFACE_ID_ERC165);\r\n    }\r\n\r\n    /**\r\n     * @dev See {IERC165-supportsInterface}.\r\n     *\r\n     * Time complexity O(1), guaranteed to always use less than 30 000 gas.\r\n     */\r\n    function supportsInterface(bytes4 interfaceId) public view virtual override returns (bool) {\r\n        return _supportedInterfaces[interfaceId];\r\n    }\r\n\r\n    /**\r\n     * @dev Registers the contract as an implementer of the interface defined by\r\n     * `interfaceId`. Support of the actual ERC165 interface is automatic and\r\n     * registering its interface id is not required.\r\n     *\r\n     * See {IERC165-supportsInterface}.\r\n     *\r\n     * Requirements:\r\n     *\r\n     * - `interfaceId` cannot be the ERC165 invalid interface (`0xffffffff`).\r\n     */\r\n    function _registerInterface(bytes4 interfaceId) internal virtual {\r\n        require(interfaceId != 0xffffffff, \"ERC165: invalid interface id\");\r\n        _supportedInterfaces[interfaceId] = true;\r\n    }\r\n}\r\n\r\n// File: @openzeppelin/contracts/math/SafeMath.sol\r\npragma solidity >=0.4.22 <0.9.0;\r\n\r\n/**\r\n * @dev Wrappers over Solidity's arithmetic operations with added overflow\r\n * checks.\r\n *\r\n * Arithmetic operations in Solidity wrap on overflow. This can easily result\r\n * in bugs, because programmers usually assume that an overflow raises an\r\n * error, which is the standard behavior in high level programming languages.\r\n * `SafeMath` restores this intuition by reverting the transaction when an\r\n * operation overflows.\r\n *\r\n * Using this library instead of the unchecked operations eliminates an entire\r\n * class of bugs, so it's recommended to use it always.\r\n */\r\nlibrary SafeMath {\r\n    /**\r\n     * @dev Returns the addition of two unsigned integers, with an overflow flag.\r\n     *\r\n     * _Available since v3.4._\r\n     */\r\n    function tryAdd(uint256 a, uint256 b) internal pure returns (bool, uint256) {\r\n        uint256 c = a + b;\r\n        if (c < a) return (false, 0);\r\n        return (true, c);\r\n    }\r\n\r\n    /**\r\n     * @dev Returns the substraction of two unsigned integers, with an overflow flag.\r\n     *\r\n     * _Available since v3.4._\r\n     */\r\n    function trySub(uint256 a, uint256 b) internal pure returns (bool, uint256) {\r\n        if (b > a) return (false, 0);\r\n        return (true, a - b);\r\n    }\r\n\r\n    /**\r\n     * @dev Returns the multiplication of two unsigned integers, with an overflow flag.\r\n     *\r\n     * _Available since v3.4._\r\n     */\r\n    function tryMul(uint256 a, uint256 b) internal pure returns (bool, uint256) {\r\n        // Gas optimization: this is cheaper than requiring 'a' not being zero, but the\r\n        // benefit is lost if 'b' is also tested.\r\n        // See: https://github.com/OpenZeppelin/openzeppelin-contracts/pull/522\r\n        if (a == 0) return (true, 0);\r\n        uint256 c = a * b;\r\n        if (c / a != b) return (false, 0);\r\n        return (true, c);\r\n    }\r\n\r\n    /**\r\n     * @dev Returns the division of two unsigned integers, with a division by zero flag.\r\n     *\r\n     * _Available since v3.4._\r\n     */\r\n    function tryDiv(uint256 a, uint256 b) internal pure returns (bool, uint256) {\r\n        if (b == 0) return (false, 0);\r\n        return (true, a / b);\r\n    }\r\n\r\n    /**\r\n     * @dev Returns the remainder of dividing two unsigned integers, with a division by zero flag.\r\n     *\r\n     * _Available since v3.4._\r\n     */\r\n    function tryMod(uint256 a, uint256 b) internal pure returns (bool, uint256) {\r\n        if (b == 0) return (false, 0);\r\n        return (true, a % b);\r\n    }\r\n\r\n    /**\r\n     * @dev Returns the addition of two unsigned integers, reverting on\r\n     * overflow.\r\n     *\r\n     * Counterpart to Solidity's `+` operator.\r\n     *\r\n     * Requirements:\r\n     *\r\n     * - Addition cannot overflow.\r\n     */\r\n    function add(uint256 a, uint256 b) internal pure returns (uint256) {\r\n        uint256 c = a + b;\r\n        require(c >= a, \"SafeMath: addition overflow\");\r\n        return c;\r\n    }\r\n\r\n    /**\r\n     * @dev Returns the subtraction of two unsigned integers, reverting on\r\n     * overflow (when the result is negative).\r\n     *\r\n     * Counterpart to Solidity's `-` operator.\r\n     *\r\n     * Requirements:\r\n     *\r\n     * - Subtraction cannot overflow.\r\n     */\r\n    function sub(uint256 a, uint256 b) internal pure returns (uint256) {\r\n        require(b <= a, \"SafeMath: subtraction overflow\");\r\n        return a - b;\r\n    }\r\n\r\n    /**\r\n     * @dev Returns the multiplication of two unsigned integers, reverting on\r\n     * overflow.\r\n     *\r\n     * Counterpart to Solidity's `*` operator.\r\n     *\r\n     * Requirements:\r\n     *\r\n     * - Multiplication cannot overflow.\r\n     */\r\n    function mul(uint256 a, uint256 b) internal pure returns (uint256) {\r\n        if (a == 0) return 0;\r\n        uint256 c = a * b;\r\n        require(c / a == b, \"SafeMath: multiplication overflow\");\r\n        return c;\r\n    }\r\n\r\n    /**\r\n     * @dev Returns the integer division of two unsigned integers, reverting on\r\n     * division by zero. The result is rounded towards zero.\r\n     *\r\n     * Counterpart to Solidity's `/` operator. Note: this function uses a\r\n     * `revert` opcode (which leaves remaining gas untouched) while Solidity\r\n     * uses an invalid opcode to revert (consuming all remaining gas).\r\n     *\r\n     * Requirements:\r\n     *\r\n     * - The divisor cannot be zero.\r\n     */\r\n    function div(uint256 a, uint256 b) internal pure returns (uint256) {\r\n        require(b > 0, \"SafeMath: division by zero\");\r\n        return a / b;\r\n    }\r\n\r\n    /**\r\n     * @dev Returns the remainder of dividing two unsigned integers. (unsigned integer modulo),\r\n     * reverting when dividing by zero.\r\n     *\r\n     * Counterpart to Solidity's `%` operator. This function uses a `revert`\r\n     * opcode (which leaves remaining gas untouched) while Solidity uses an\r\n     * invalid opcode to revert (consuming all remaining gas).\r\n     *\r\n     * Requirements:\r\n     *\r\n     * - The divisor cannot be zero.\r\n     */\r\n    function mod(uint256 a, uint256 b) internal pure returns (uint256) {\r\n        require(b > 0, \"SafeMath: modulo by zero\");\r\n        return a % b;\r\n    }\r\n\r\n    /**\r\n     * @dev Returns the subtraction of two unsigned integers, reverting with custom message on\r\n     * overflow (when the result is negative).\r\n     *\r\n     * CAUTION: This function is deprecated because it requires allocating memory for the error\r\n     * message unnecessarily. For custom revert reasons use {trySub}.\r\n     *\r\n     * Counterpart to Solidity's `-` operator.\r\n     *\r\n     * Requirements:\r\n     *\r\n     * - Subtraction cannot overflow.\r\n     */\r\n    function sub(uint256 a, uint256 b, string memory errorMessage) internal pure returns (uint256) {\r\n        require(b <= a, errorMessage);\r\n        return a - b;\r\n    }\r\n\r\n    /**\r\n     * @dev Returns the integer division of two unsigned integers, reverting with custom message on\r\n     * division by zero. The result is rounded towards zero.\r\n     *\r\n     * CAUTION: This function is deprecated because it requires allocating memory for the error\r\n     * message unnecessarily. For custom revert reasons use {tryDiv}.\r\n     *\r\n     * Counterpart to Solidity's `/` operator. Note: this function uses a\r\n     * `revert` opcode (which leaves remaining gas untouched) while Solidity\r\n     * uses an invalid opcode to revert (consuming all remaining gas).\r\n     *\r\n     * Requirements:\r\n     *\r\n     * - The divisor cannot be zero.\r\n     */\r\n    function div(uint256 a, uint256 b, string memory errorMessage) internal pure returns (uint256) {\r\n        require(b > 0, errorMessage);\r\n        return a / b;\r\n    }\r\n\r\n    /**\r\n     * @dev Returns the remainder of dividing two unsigned integers. (unsigned integer modulo),\r\n     * reverting with custom message when dividing by zero.\r\n     *\r\n     * CAUTION: This function is deprecated because it requires allocating memory for the error\r\n     * message unnecessarily. For custom revert reasons use {tryMod}.\r\n     *\r\n     * Counterpart to Solidity's `%` operator. This function uses a `revert`\r\n     * opcode (which leaves remaining gas untouched) while Solidity uses an\r\n     * invalid opcode to revert (consuming all remaining gas).\r\n     *\r\n     * Requirements:\r\n     *\r\n     * - The divisor cannot be zero.\r\n     */\r\n    function mod(uint256 a, uint256 b, string memory errorMessage) internal pure returns (uint256) {\r\n        require(b > 0, errorMessage);\r\n        return a % b;\r\n    }\r\n}\r\n\r\n// File: @openzeppelin/contracts/utils/Address.sol\r\npragma solidity >=0.4.22 <0.9.0;\r\n\r\n/**\r\n * @dev Collection of functions related to the address type\r\n */\r\nlibrary Address {\r\n    /**\r\n     * @dev Returns true if `account` is a contract.\r\n     *\r\n     * [IMPORTANT]\r\n     * ====\r\n     * It is unsafe to assume that an address for which this function returns\r\n     * false is an externally-owned account (EOA) and not a contract.\r\n     *\r\n     * Among others, `isContract` will return false for the following\r\n     * types of addresses:\r\n     *\r\n     *  - an externally-owned account\r\n     *  - a contract in construction\r\n     *  - an address where a contract will be created\r\n     *  - an address where a contract lived, but was destroyed\r\n     * ====\r\n     */\r\n    function isContract(address account) internal view returns (bool) {\r\n        // This method relies on extcodesize, which returns 0 for contracts in\r\n        // construction, since the code is only stored at the end of the\r\n        // constructor execution.\r\n\r\n        uint256 size;\r\n        // solhint-disable-next-line no-inline-assembly\r\n        assembly { size := extcodesize(account) }\r\n        return size > 0;\r\n    }\r\n\r\n    /**\r\n     * @dev Replacement for Solidity's `transfer`: sends `amount` wei to\r\n     * `recipient`, forwarding all available gas and reverting on errors.\r\n     *\r\n     * https://eips.ethereum.org/EIPS/eip-1884[EIP1884] increases the gas cost\r\n     * of certain opcodes, possibly making contracts go over the 2300 gas limit\r\n     * imposed by `transfer`, making them unable to receive funds via\r\n     * `transfer`. {sendValue} removes this limitation.\r\n     *\r\n     * https://diligence.consensys.net/posts/2019/09/stop-using-soliditys-transfer-now/[Learn more].\r\n     *\r\n     * IMPORTANT: because control is transferred to `recipient`, care must be\r\n     * taken to not create reentrancy vulnerabilities. Consider using\r\n     * {ReentrancyGuard} or the\r\n     * https://solidity.readthedocs.io/en/v0.5.11/security-considerations.html#use-the-checks-effects-interactions-pattern[checks-effects-interactions pattern].\r\n     */\r\n    function sendValue(address payable recipient, uint256 amount) internal {\r\n        require(address(this).balance >= amount, \"Address: insufficient balance\");\r\n\r\n        // solhint-disable-next-line avoid-low-level-calls, avoid-call-value\r\n        (bool success, ) = recipient.call{ value: amount }(\"\");\r\n        require(success, \"Address: unable to send value, recipient may have reverted\");\r\n    }\r\n\r\n    /**\r\n     * @dev Performs a Solidity function call using a low level `call`. A\r\n     * plain`call` is an unsafe replacement for a function call: use this\r\n     * function instead.\r\n     *\r\n     * If `target` reverts with a revert reason, it is bubbled up by this\r\n     * function (like regular Solidity function calls).\r\n     *\r\n     * Returns the raw returned data. To convert to the expected return value,\r\n     * use https://solidity.readthedocs.io/en/latest/units-and-global-variables.html?highlight=abi.decode#abi-encoding-and-decoding-functions[`abi.decode`].\r\n     *\r\n     * Requirements:\r\n     *\r\n     * - `target` must be a contract.\r\n     * - calling `target` with `data` must not revert.\r\n     *\r\n     * _Available since v3.1._\r\n     */\r\n    function functionCall(address target, bytes memory data) internal returns (bytes memory) {\r\n      return functionCall(target, data, \"Address: low-level call failed\");\r\n    }\r\n\r\n    /**\r\n     * @dev Same as {xref-Address-functionCall-address-bytes-}[`functionCall`], but with\r\n     * `errorMessage` as a fallback revert reason when `target` reverts.\r\n     *\r\n     * _Available since v3.1._\r\n     */\r\n    function functionCall(address target, bytes memory data, string memory errorMessage) internal returns (bytes memory) {\r\n        return functionCallWithValue(target, data, 0, errorMessage);\r\n    }\r\n\r\n    /**\r\n     * @dev Same as {xref-Address-functionCall-address-bytes-}[`functionCall`],\r\n     * but also transferring `value` wei to `target`.\r\n     *\r\n     * Requirements:\r\n     *\r\n     * - the calling contract must have an ETH balance of at least `value`.\r\n     * - the called Solidity function must be `payable`.\r\n     *\r\n     * _Available since v3.1._\r\n     */\r\n    function functionCallWithValue(address target, bytes memory data, uint256 value) internal returns (bytes memory) {\r\n        return functionCallWithValue(target, data, value, \"Address: low-level call with value failed\");\r\n    }\r\n\r\n    /**\r\n     * @dev Same as {xref-Address-functionCallWithValue-address-bytes-uint256-}[`functionCallWithValue`], but\r\n     * with `errorMessage` as a fallback revert reason when `target` reverts.\r\n     *\r\n     * _Available since v3.1._\r\n     */\r\n    function functionCallWithValue(address target, bytes memory data, uint256 value, string memory errorMessage) internal returns (bytes memory) {\r\n        require(address(this).balance >= value, \"Address: insufficient balance for call\");\r\n        require(isContract(target), \"Address: call to non-contract\");\r\n\r\n        // solhint-disable-next-line avoid-low-level-calls\r\n        (bool success, bytes memory returndata) = target.call{ value: value }(data);\r\n        return _verifyCallResult(success, returndata, errorMessage);\r\n    }\r\n\r\n    /**\r\n     * @dev Same as {xref-Address-functionCall-address-bytes-}[`functionCall`],\r\n     * but performing a static call.\r\n     *\r\n     * _Available since v3.3._\r\n     */\r\n    function functionStaticCall(address target, bytes memory data) internal view returns (bytes memory) {\r\n        return functionStaticCall(target, data, \"Address: low-level static call failed\");\r\n    }\r\n\r\n    /**\r\n     * @dev Same as {xref-Address-functionCall-address-bytes-string-}[`functionCall`],\r\n     * but performing a static call.\r\n     *\r\n     * _Available since v3.3._\r\n     */\r\n    function functionStaticCall(address target, bytes memory data, string memory errorMessage) internal view returns (bytes memory) {\r\n        require(isContract(target), \"Address: static call to non-contract\");\r\n\r\n        // solhint-disable-next-line avoid-low-level-calls\r\n        (bool success, bytes memory returndata) = target.staticcall(data);\r\n        return _verifyCallResult(success, returndata, errorMessage);\r\n    }\r\n\r\n    /**\r\n     * @dev Same as {xref-Address-functionCall-address-bytes-}[`functionCall`],\r\n     * but performing a delegate call.\r\n     *\r\n     * _Available since v3.4._\r\n     */\r\n    function functionDelegateCall(address target, bytes memory data) internal returns (bytes memory) {\r\n        return functionDelegateCall(target, data, \"Address: low-level delegate call failed\");\r\n    }\r\n\r\n    /**\r\n     * @dev Same as {xref-Address-functionCall-address-bytes-string-}[`functionCall`],\r\n     * but performing a delegate call.\r\n     *\r\n     * _Available since v3.4._\r\n     */\r\n    function functionDelegateCall(address target, bytes memory data, string memory errorMessage) internal returns (bytes memory) {\r\n        require(isContract(target), \"Address: delegate call to non-contract\");\r\n\r\n        // solhint-disable-next-line avoid-low-level-calls\r\n        (bool success, bytes memory returndata) = target.delegatecall(data);\r\n        return _verifyCallResult(success, returndata, errorMessage);\r\n    }\r\n\r\n    function _verifyCallResult(bool success, bytes memory returndata, string memory errorMessage) private pure returns(bytes memory) {\r\n        if (success) {\r\n            return returndata;\r\n        } else {\r\n            // Look for revert reason and bubble it up if present\r\n            if (returndata.length > 0) {\r\n                // The easiest way to bubble the revert reason is using memory via assembly\r\n\r\n                // solhint-disable-next-line no-inline-assembly\r\n                assembly {\r\n                    let returndata_size := mload(returndata)\r\n                    revert(add(32, returndata), returndata_size)\r\n                }\r\n            } else {\r\n                revert(errorMessage);\r\n            }\r\n        }\r\n    }\r\n}\r\n\r\n// File: @openzeppelin/contracts/utils/EnumerableSet.sol\r\npragma solidity >=0.4.22 <0.9.0;\r\n\r\n/**\r\n * @dev Library for managing\r\n * https://en.wikipedia.org/wiki/Set_(abstract_data_type)[sets] of primitive\r\n * types.\r\n *\r\n * Sets have the following properties:\r\n *\r\n * - Elements are added, removed, and checked for existence in constant time\r\n * (O(1)).\r\n * - Elements are enumerated in O(n). No guarantees are made on the ordering.\r\n *\r\n * ```\r\n * contract Example {\r\n *     // Add the library methods\r\n *     using EnumerableSet for EnumerableSet.AddressSet;\r\n *\r\n *     // Declare a set state variable\r\n *     EnumerableSet.AddressSet private mySet;\r\n * }\r\n * ```\r\n *\r\n * As of v3.3.0, sets of type `bytes32` (`Bytes32Set`), `address` (`AddressSet`)\r\n * and `uint256` (`UintSet`) are supported.\r\n */\r\nlibrary EnumerableSet {\r\n    // To implement this library for multiple types with as little code\r\n    // repetition as possible, we write it in terms of a generic Set type with\r\n    // bytes32 values.\r\n    // The Set implementation uses private functions, and user-facing\r\n    // implementations (such as AddressSet) are just wrappers around the\r\n    // underlying Set.\r\n    // This means that we can only create new EnumerableSets for types that fit\r\n    // in bytes32.\r\n\r\n    struct Set {\r\n        // Storage of set values\r\n        bytes32[] _values;\r\n\r\n        // Position of the value in the `values` array, plus 1 because index 0\r\n        // means a value is not in the set.\r\n        mapping (bytes32 => uint256) _indexes;\r\n    }\r\n\r\n    /**\r\n     * @dev Add a value to a set. O(1).\r\n     *\r\n     * Returns true if the value was added to the set, that is if it was not\r\n     * already present.\r\n     */\r\n    function _add(Set storage set, bytes32 value) private returns (bool) {\r\n        if (!_contains(set, value)) {\r\n            set._values.push(value);\r\n            // The value is stored at length-1, but we add 1 to all indexes\r\n            // and use 0 as a sentinel value\r\n            set._indexes[value] = set._values.length;\r\n            return true;\r\n        } else {\r\n            return false;\r\n        }\r\n    }\r\n\r\n    /**\r\n     * @dev Removes a value from a set. O(1).\r\n     *\r\n     * Returns true if the value was removed from the set, that is if it was\r\n     * present.\r\n     */\r\n    function _remove(Set storage set, bytes32 value) private returns (bool) {\r\n        // We read and store the value's index to prevent multiple reads from the same storage slot\r\n        uint256 valueIndex = set._indexes[value];\r\n\r\n        if (valueIndex != 0) { // Equivalent to contains(set, value)\r\n            // To delete an element from the _values array in O(1), we swap the element to delete with the last one in\r\n            // the array, and then remove the last element (sometimes called as 'swap and pop').\r\n            // This modifies the order of the array, as noted in {at}.\r\n\r\n            uint256 toDeleteIndex = valueIndex - 1;\r\n            uint256 lastIndex = set._values.length - 1;\r\n\r\n            // When the value to delete is the last one, the swap operation is unnecessary. However, since this occurs\r\n            // so rarely, we still do the swap anyway to avoid the gas cost of adding an 'if' statement.\r\n\r\n            bytes32 lastvalue = set._values[lastIndex];\r\n\r\n            // Move the last value to the index where the value to delete is\r\n            set._values[toDeleteIndex] = lastvalue;\r\n            // Update the index for the moved value\r\n            set._indexes[lastvalue] = toDeleteIndex + 1; // All indexes are 1-based\r\n\r\n            // Delete the slot where the moved value was stored\r\n            set._values.pop();\r\n\r\n            // Delete the index for the deleted slot\r\n            delete set._indexes[value];\r\n\r\n            return true;\r\n        } else {\r\n            return false;\r\n        }\r\n    }\r\n\r\n    /**\r\n     * @dev Returns true if the value is in the set. O(1).\r\n     */\r\n    function _contains(Set storage set, bytes32 value) private view returns (bool) {\r\n        return set._indexes[value] != 0;\r\n    }\r\n\r\n    /**\r\n     * @dev Returns the number of values on the set. O(1).\r\n     */\r\n    function _length(Set storage set) private view returns (uint256) {\r\n        return set._values.length;\r\n    }\r\n\r\n   /**\r\n    * @dev Returns the value stored at position `index` in the set. O(1).\r\n    *\r\n    * Note that there are no guarantees on the ordering of values inside the\r\n    * array, and it may change when more values are added or removed.\r\n    *\r\n    * Requirements:\r\n    *\r\n    * - `index` must be strictly less than {length}.\r\n    */\r\n    function _at(Set storage set, uint256 index) private view returns (bytes32) {\r\n        require(set._values.length > index, \"EnumerableSet: index out of bounds\");\r\n        return set._values[index];\r\n    }\r\n\r\n    // Bytes32Set\r\n\r\n    struct Bytes32Set {\r\n        Set _inner;\r\n    }\r\n\r\n    /**\r\n     * @dev Add a value to a set. O(1).\r\n     *\r\n     * Returns true if the value was added to the set, that is if it was not\r\n     * already present.\r\n     */\r\n    function add(Bytes32Set storage set, bytes32 value) internal returns (bool) {\r\n        return _add(set._inner, value);\r\n    }\r\n\r\n    /**\r\n     * @dev Removes a value from a set. O(1).\r\n     *\r\n     * Returns true if the value was removed from the set, that is if it was\r\n     * present.\r\n     */\r\n    function remove(Bytes32Set storage set, bytes32 value) internal returns (bool) {\r\n        return _remove(set._inner, value);\r\n    }\r\n\r\n    /**\r\n     * @dev Returns true if the value is in the set. O(1).\r\n     */\r\n    function contains(Bytes32Set storage set, bytes32 value) internal view returns (bool) {\r\n        return _contains(set._inner, value);\r\n    }\r\n\r\n    /**\r\n     * @dev Returns the number of values in the set. O(1).\r\n     */\r\n    function length(Bytes32Set storage set) internal view returns (uint256) {\r\n        return _length(set._inner);\r\n    }\r\n\r\n   /**\r\n    * @dev Returns the value stored at position `index` in the set. O(1).\r\n    *\r\n    * Note that there are no guarantees on the ordering of values inside the\r\n    * array, and it may change when more values are added or removed.\r\n    *\r\n    * Requirements:\r\n    *\r\n    * - `index` must be strictly less than {length}.\r\n    */\r\n    function at(Bytes32Set storage set, uint256 index) internal view returns (bytes32) {\r\n        return _at(set._inner, index);\r\n    }\r\n\r\n    // AddressSet\r\n\r\n    struct AddressSet {\r\n        Set _inner;\r\n    }\r\n\r\n    /**\r\n     * @dev Add a value to a set. O(1).\r\n     *\r\n     * Returns true if the value was added to the set, that is if it was not\r\n     * already present.\r\n     */\r\n    function add(AddressSet storage set, address value) internal returns (bool) {\r\n        return _add(set._inner, bytes32(uint256(uint160(value))));\r\n    }\r\n\r\n    /**\r\n     * @dev Removes a value from a set. O(1).\r\n     *\r\n     * Returns true if the value was removed from the set, that is if it was\r\n     * present.\r\n     */\r\n    function remove(AddressSet storage set, address value) internal returns (bool) {\r\n        return _remove(set._inner, bytes32(uint256(uint160(value))));\r\n    }\r\n\r\n    /**\r\n     * @dev Returns true if the value is in the set. O(1).\r\n     */\r\n    function contains(AddressSet storage set, address value) internal view returns (bool) {\r\n        return _contains(set._inner, bytes32(uint256(uint160(value))));\r\n    }\r\n\r\n    /**\r\n     * @dev Returns the number of values in the set. O(1).\r\n     */\r\n    function length(AddressSet storage set) internal view returns (uint256) {\r\n        return _length(set._inner);\r\n    }\r\n\r\n   /**\r\n    * @dev Returns the value stored at position `index` in the set. O(1).\r\n    *\r\n    * Note that there are no guarantees on the ordering of values inside the\r\n    * array, and it may change when more values are added or removed.\r\n    *\r\n    * Requirements:\r\n    *\r\n    * - `index` must be strictly less than {length}.\r\n    */\r\n    function at(AddressSet storage set, uint256 index) internal view returns (address) {\r\n        return address(uint160(uint256(_at(set._inner, index))));\r\n    }\r\n\r\n\r\n    // UintSet\r\n\r\n    struct UintSet {\r\n        Set _inner;\r\n    }\r\n\r\n    /**\r\n     * @dev Add a value to a set. O(1).\r\n     *\r\n     * Returns true if the value was added to the set, that is if it was not\r\n     * already present.\r\n     */\r\n    function add(UintSet storage set, uint256 value) internal returns (bool) {\r\n        return _add(set._inner, bytes32(value));\r\n    }\r\n\r\n    /**\r\n     * @dev Removes a value from a set. O(1).\r\n     *\r\n     * Returns true if the value was removed from the set, that is if it was\r\n     * present.\r\n     */\r\n    function remove(UintSet storage set, uint256 value) internal returns (bool) {\r\n        return _remove(set._inner, bytes32(value));\r\n    }\r\n\r\n    /**\r\n     * @dev Returns true if the value is in the set. O(1).\r\n     */\r\n    function contains(UintSet storage set, uint256 value) internal view returns (bool) {\r\n        return _contains(set._inner, bytes32(value));\r\n    }\r\n\r\n    /**\r\n     * @dev Returns the number of values on the set. O(1).\r\n     */\r\n    function length(UintSet storage set) internal view returns (uint256) {\r\n        return _length(set._inner);\r\n    }\r\n\r\n   /**\r\n    * @dev Returns the value stored at position `index` in the set. O(1).\r\n    *\r\n    * Note that there are no guarantees on the ordering of values inside the\r\n    * array, and it may change when more values are added or removed.\r\n    *\r\n    * Requirements:\r\n    *\r\n    * - `index` must be strictly less than {length}.\r\n    */\r\n    function at(UintSet storage set, uint256 index) internal view returns (uint256) {\r\n        return uint256(_at(set._inner, index));\r\n    }\r\n}\r\n\r\n// File: @openzeppelin/contracts/utils/EnumerableMap.sol\r\npragma solidity >=0.4.22 <0.9.0;\r\n\r\n/**\r\n * @dev Library for managing an enumerable variant of Solidity's\r\n * https://solidity.readthedocs.io/en/latest/types.html#mapping-types[`mapping`]\r\n * type.\r\n *\r\n * Maps have the following properties:\r\n *\r\n * - Entries are added, removed, and checked for existence in constant time\r\n * (O(1)).\r\n * - Entries are enumerated in O(n). No guarantees are made on the ordering.\r\n *\r\n * ```\r\n * contract Example {\r\n *     // Add the library methods\r\n *     using EnumerableMap for EnumerableMap.UintToAddressMap;\r\n *\r\n *     // Declare a set state variable\r\n *     EnumerableMap.UintToAddressMap private myMap;\r\n * }\r\n * ```\r\n *\r\n * As of v3.0.0, only maps of type `uint256 -> address` (`UintToAddressMap`) are\r\n * supported.\r\n */\r\nlibrary EnumerableMap {\r\n    // To implement this library for multiple types with as little code\r\n    // repetition as possible, we write it in terms of a generic Map type with\r\n    // bytes32 keys and values.\r\n    // The Map implementation uses private functions, and user-facing\r\n    // implementations (such as Uint256ToAddressMap) are just wrappers around\r\n    // the underlying Map.\r\n    // This means that we can only create new EnumerableMaps for types that fit\r\n    // in bytes32.\r\n\r\n    struct MapEntry {\r\n        bytes32 _key;\r\n        bytes32 _value;\r\n    }\r\n\r\n    struct Map {\r\n        // Storage of map keys and values\r\n        MapEntry[] _entries;\r\n\r\n        // Position of the entry defined by a key in the `entries` array, plus 1\r\n        // because index 0 means a key is not in the map.\r\n        mapping (bytes32 => uint256) _indexes;\r\n    }\r\n\r\n    /**\r\n     * @dev Adds a key-value pair to a map, or updates the value for an existing\r\n     * key. O(1).\r\n     *\r\n     * Returns true if the key was added to the map, that is if it was not\r\n     * already present.\r\n     */\r\n    function _set(Map storage map, bytes32 key, bytes32 value) private returns (bool) {\r\n        // We read and store the key's index to prevent multiple reads from the same storage slot\r\n        uint256 keyIndex = map._indexes[key];\r\n\r\n        if (keyIndex == 0) { // Equivalent to !contains(map, key)\r\n            map._entries.push(MapEntry({ _key: key, _value: value }));\r\n            // The entry is stored at length-1, but we add 1 to all indexes\r\n            // and use 0 as a sentinel value\r\n            map._indexes[key] = map._entries.length;\r\n            return true;\r\n        } else {\r\n            map._entries[keyIndex - 1]._value = value;\r\n            return false;\r\n        }\r\n    }\r\n\r\n    /**\r\n     * @dev Removes a key-value pair from a map. O(1).\r\n     *\r\n     * Returns true if the key was removed from the map, that is if it was present.\r\n     */\r\n    function _remove(Map storage map, bytes32 key) private returns (bool) {\r\n        // We read and store the key's index to prevent multiple reads from the same storage slot\r\n        uint256 keyIndex = map._indexes[key];\r\n\r\n        if (keyIndex != 0) { // Equivalent to contains(map, key)\r\n            // To delete a key-value pair from the _entries array in O(1), we swap the entry to delete with the last one\r\n            // in the array, and then remove the last entry (sometimes called as 'swap and pop').\r\n            // This modifies the order of the array, as noted in {at}.\r\n\r\n            uint256 toDeleteIndex = keyIndex - 1;\r\n            uint256 lastIndex = map._entries.length - 1;\r\n\r\n            // When the entry to delete is the last one, the swap operation is unnecessary. However, since this occurs\r\n            // so rarely, we still do the swap anyway to avoid the gas cost of adding an 'if' statement.\r\n\r\n            MapEntry storage lastEntry = map._entries[lastIndex];\r\n\r\n            // Move the last entry to the index where the entry to delete is\r\n            map._entries[toDeleteIndex] = lastEntry;\r\n            // Update the index for the moved entry\r\n            map._indexes[lastEntry._key] = toDeleteIndex + 1; // All indexes are 1-based\r\n\r\n            // Delete the slot where the moved entry was stored\r\n            map._entries.pop();\r\n\r\n            // Delete the index for the deleted slot\r\n            delete map._indexes[key];\r\n\r\n            return true;\r\n        } else {\r\n            return false;\r\n        }\r\n    }\r\n\r\n    /**\r\n     * @dev Returns true if the key is in the map. O(1).\r\n     */\r\n    function _contains(Map storage map, bytes32 key) private view returns (bool) {\r\n        return map._indexes[key] != 0;\r\n    }\r\n\r\n    /**\r\n     * @dev Returns the number of key-value pairs in the map. O(1).\r\n     */\r\n    function _length(Map storage map) private view returns (uint256) {\r\n        return map._entries.length;\r\n    }\r\n\r\n   /**\r\n    * @dev Returns the key-value pair stored at position `index` in the map. O(1).\r\n    *\r\n    * Note that there are no guarantees on the ordering of entries inside the\r\n    * array, and it may change when more entries are added or removed.\r\n    *\r\n    * Requirements:\r\n    *\r\n    * - `index` must be strictly less than {length}.\r\n    */\r\n    function _at(Map storage map, uint256 index) private view returns (bytes32, bytes32) {\r\n        require(map._entries.length > index, \"EnumerableMap: index out of bounds\");\r\n\r\n        MapEntry storage entry = map._entries[index];\r\n        return (entry._key, entry._value);\r\n    }\r\n\r\n    /**\r\n     * @dev Tries to returns the value associated with `key`.  O(1).\r\n     * Does not revert if `key` is not in the map.\r\n     */\r\n    function _tryGet(Map storage map, bytes32 key) private view returns (bool, bytes32) {\r\n        uint256 keyIndex = map._indexes[key];\r\n        if (keyIndex == 0) return (false, 0); // Equivalent to contains(map, key)\r\n        return (true, map._entries[keyIndex - 1]._value); // All indexes are 1-based\r\n    }\r\n\r\n    /**\r\n     * @dev Returns the value associated with `key`.  O(1).\r\n     *\r\n     * Requirements:\r\n     *\r\n     * - `key` must be in the map.\r\n     */\r\n    function _get(Map storage map, bytes32 key) private view returns (bytes32) {\r\n        uint256 keyIndex = map._indexes[key];\r\n        require(keyIndex != 0, \"EnumerableMap: nonexistent key\"); // Equivalent to contains(map, key)\r\n        return map._entries[keyIndex - 1]._value; // All indexes are 1-based\r\n    }\r\n\r\n    /**\r\n     * @dev Same as {_get}, with a custom error message when `key` is not in the map.\r\n     *\r\n     * CAUTION: This function is deprecated because it requires allocating memory for the error\r\n     * message unnecessarily. For custom revert reasons use {_tryGet}.\r\n     */\r\n    function _get(Map storage map, bytes32 key, string memory errorMessage) private view returns (bytes32) {\r\n        uint256 keyIndex = map._indexes[key];\r\n        require(keyIndex != 0, errorMessage); // Equivalent to contains(map, key)\r\n        return map._entries[keyIndex - 1]._value; // All indexes are 1-based\r\n    }\r\n\r\n    // UintToAddressMap\r\n\r\n    struct UintToAddressMap {\r\n        Map _inner;\r\n    }\r\n\r\n    /**\r\n     * @dev Adds a key-value pair to a map, or updates the value for an existing\r\n     * key. O(1).\r\n     *\r\n     * Returns true if the key was added to the map, that is if it was not\r\n     * already present.\r\n     */\r\n    function set(UintToAddressMap storage map, uint256 key, address value) internal returns (bool) {\r\n        return _set(map._inner, bytes32(key), bytes32(uint256(uint160(value))));\r\n    }\r\n\r\n    /**\r\n     * @dev Removes a value from a set. O(1).\r\n     *\r\n     * Returns true if the key was removed from the map, that is if it was present.\r\n     */\r\n    function remove(UintToAddressMap storage map, uint256 key) internal returns (bool) {\r\n        return _remove(map._inner, bytes32(key));\r\n    }\r\n\r\n    /**\r\n     * @dev Returns true if the key is in the map. O(1).\r\n     */\r\n    function contains(UintToAddressMap storage map, uint256 key) internal view returns (bool) {\r\n        return _contains(map._inner, bytes32(key));\r\n    }\r\n\r\n    /**\r\n     * @dev Returns the number of elements in the map. O(1).\r\n     */\r\n    function length(UintToAddressMap storage map) internal view returns (uint256) {\r\n        return _length(map._inner);\r\n    }\r\n\r\n   /**\r\n    * @dev Returns the element stored at position `index` in the set. O(1).\r\n    * Note that there are no guarantees on the ordering of values inside the\r\n    * array, and it may change when more values are added or removed.\r\n    *\r\n    * Requirements:\r\n    *\r\n    * - `index` must be strictly less than {length}.\r\n    */\r\n    function at(UintToAddressMap storage map, uint256 index) internal view returns (uint256, address) {\r\n        (bytes32 key, bytes32 value) = _at(map._inner, index);\r\n        return (uint256(key), address(uint160(uint256(value))));\r\n    }\r\n\r\n    /**\r\n     * @dev Tries to returns the value associated with `key`.  O(1).\r\n     * Does not revert if `key` is not in the map.\r\n     *\r\n     * _Available since v3.4._\r\n     */\r\n    function tryGet(UintToAddressMap storage map, uint256 key) internal view returns (bool, address) {\r\n        (bool success, bytes32 value) = _tryGet(map._inner, bytes32(key));\r\n        return (success, address(uint160(uint256(value))));\r\n    }\r\n\r\n    /**\r\n     * @dev Returns the value associated with `key`.  O(1).\r\n     *\r\n     * Requirements:\r\n     *\r\n     * - `key` must be in the map.\r\n     */\r\n    function get(UintToAddressMap storage map, uint256 key) internal view returns (address) {\r\n        return address(uint160(uint256(_get(map._inner, bytes32(key)))));\r\n    }\r\n\r\n    /**\r\n     * @dev Same as {get}, with a custom error message when `key` is not in the map.\r\n     *\r\n     * CAUTION: This function is deprecated because it requires allocating memory for the error\r\n     * message unnecessarily. For custom revert reasons use {tryGet}.\r\n     */\r\n    function get(UintToAddressMap storage map, uint256 key, string memory errorMessage) internal view returns (address) {\r\n        return address(uint160(uint256(_get(map._inner, bytes32(key), errorMessage))));\r\n    }\r\n}\r\n\r\n// File: @openzeppelin/contracts/utils/Strings.sol\r\npragma solidity >=0.4.22 <0.9.0;\r\n\r\n/**\r\n * @dev String operations.\r\n */\r\nlibrary Strings {\r\n    /**\r\n     * @dev Converts a `uint256` to its ASCII `string` representation.\r\n     */\r\n    function toString(uint256 value) internal pure returns (string memory) {\r\n        // Inspired by OraclizeAPI's implementation - MIT licence\r\n        // https://github.com/oraclize/ethereum-api/blob/b42146b063c7d6ee1358846c198246239e9360e8/oraclizeAPI_0.4.25.sol\r\n\r\n        if (value == 0) {\r\n            return \"0\";\r\n        }\r\n        uint256 temp = value;\r\n        uint256 digits;\r\n        while (temp != 0) {\r\n            digits++;\r\n            temp /= 10;\r\n        }\r\n        bytes memory buffer = new bytes(digits);\r\n        uint256 index = digits - 1;\r\n        temp = value;\r\n        while (temp != 0) {\r\n            buffer[index--] = bytes1(uint8(48 + temp % 10));\r\n            temp /= 10;\r\n        }\r\n        return string(buffer);\r\n    }\r\n}\r\n\r\n// File: @openzeppelin/contracts/token/ERC721/ERC721.sol\r\npragma solidity >=0.4.22 <0.9.0;\r\n\r\n/**\r\n * @title ERC721 Non-Fungible Token Standard basic implementation\r\n * @dev see https://eips.ethereum.org/EIPS/eip-721\r\n */\r\ncontract ERC721 is Context, ERC165, IERC721, IERC721Metadata, IERC721Enumerable {\r\n    using SafeMath for uint256;\r\n    using Address for address;\r\n    using EnumerableSet for EnumerableSet.UintSet;\r\n    using EnumerableMap for EnumerableMap.UintToAddressMap;\r\n    using Strings for uint256;\r\n\r\n    // Equals to `bytes4(keccak256(\"onERC721Received(address,address,uint256,bytes)\"))`\r\n    // which can be also obtained as `IERC721Receiver(0).onERC721Received.selector`\r\n    bytes4 private constant _ERC721_RECEIVED = 0x150b7a02;\r\n\r\n    // Mapping from holder address to their (enumerable) set of owned tokens\r\n    mapping (address => EnumerableSet.UintSet) private _holderTokens;\r\n\r\n    // Enumerable mapping from token ids to their owners\r\n    EnumerableMap.UintToAddressMap private _tokenOwners;\r\n\r\n    // Mapping from token ID to approved address\r\n    mapping (uint256 => address) private _tokenApprovals;\r\n\r\n    // Mapping from owner to operator approvals\r\n    mapping (address => mapping (address => bool)) private _operatorApprovals;\r\n\r\n    // Token name\r\n    string private _name;\r\n\r\n    // Token symbol\r\n    string private _symbol;\r\n\r\n    // Optional mapping for token URIs\r\n    mapping (uint256 => string) private _tokenURIs;\r\n\r\n    // Base URI\r\n    string private _baseURI;\r\n\r\n    /*\r\n     *     bytes4(keccak256('balanceOf(address)')) == 0x70a08231\r\n     *     bytes4(keccak256('ownerOf(uint256)')) == 0x6352211e\r\n     *     bytes4(keccak256('approve(address,uint256)')) == 0x095ea7b3\r\n     *     bytes4(keccak256('getApproved(uint256)')) == 0x081812fc\r\n     *     bytes4(keccak256('setApprovalForAll(address,bool)')) == 0xa22cb465\r\n     *     bytes4(keccak256('isApprovedForAll(address,address)')) == 0xe985e9c5\r\n     *     bytes4(keccak256('transferFrom(address,address,uint256)')) == 0x23b872dd\r\n     *     bytes4(keccak256('safeTransferFrom(address,address,uint256)')) == 0x42842e0e\r\n     *     bytes4(keccak256('safeTransferFrom(address,address,uint256,bytes)')) == 0xb88d4fde\r\n     *\r\n     *     => 0x70a08231 ^ 0x6352211e ^ 0x095ea7b3 ^ 0x081812fc ^\r\n     *        0xa22cb465 ^ 0xe985e9c5 ^ 0x23b872dd ^ 0x42842e0e ^ 0xb88d4fde == 0x80ac58cd\r\n     */\r\n    bytes4 private constant _INTERFACE_ID_ERC721 = 0x80ac58cd;\r\n\r\n    /*\r\n     *     bytes4(keccak256('name()')) == 0x06fdde03\r\n     *     bytes4(keccak256('symbol()')) == 0x95d89b41\r\n     *     bytes4(keccak256('tokenURI(uint256)')) == 0xc87b56dd\r\n     *\r\n     *     => 0x06fdde03 ^ 0x95d89b41 ^ 0xc87b56dd == 0x5b5e139f\r\n     */\r\n    bytes4 private constant _INTERFACE_ID_ERC721_METADATA = 0x5b5e139f;\r\n\r\n    /*\r\n     *     bytes4(keccak256('totalSupply()')) == 0x18160ddd\r\n     *     bytes4(keccak256('tokenOfOwnerByIndex(address,uint256)')) == 0x2f745c59\r\n     *     bytes4(keccak256('tokenByIndex(uint256)')) == 0x4f6ccce7\r\n     *\r\n     *     => 0x18160ddd ^ 0x2f745c59 ^ 0x4f6ccce7 == 0x780e9d63\r\n     */\r\n    bytes4 private constant _INTERFACE_ID_ERC721_ENUMERABLE = 0x780e9d63;\r\n\r\n    /**\r\n     * @dev Initializes the contract by setting a `name` and a `symbol` to the token collection.\r\n     */\r\n    constructor (string memory name_, string memory symbol_) {\r\n        _name = name_;\r\n        _symbol = symbol_;\r\n\r\n        // register the supported interfaces to conform to ERC721 via ERC165\r\n        _registerInterface(_INTERFACE_ID_ERC721);\r\n        _registerInterface(_INTERFACE_ID_ERC721_METADATA);\r\n        _registerInterface(_INTERFACE_ID_ERC721_ENUMERABLE);\r\n    }\r\n\r\n    /**\r\n     * @dev See {IERC721-balanceOf}.\r\n     */\r\n    function balanceOf(address owner) public view virtual override returns (uint256) {\r\n        require(owner != address(0), \"ERC721: balance query for the zero address\");\r\n        return _holderTokens[owner].length();\r\n    }\r\n\r\n    /**\r\n     * @dev See {IERC721-ownerOf}.\r\n     */\r\n    function ownerOf(uint256 tokenId) public view virtual override returns (address) {\r\n        return _tokenOwners.get(tokenId, \"ERC721: owner query for nonexistent token\");\r\n    }\r\n\r\n    /**\r\n     * @dev See {IERC721Metadata-name}.\r\n     */\r\n    function name() public view virtual override returns (string memory) {\r\n        return _name;\r\n    }\r\n\r\n    /**\r\n     * @dev See {IERC721Metadata-symbol}.\r\n     */\r\n    function symbol() public view virtual override returns (string memory) {\r\n        return _symbol;\r\n    }\r\n\r\n    /**\r\n     * @dev See {IERC721Metadata-tokenURI}.\r\n     */\r\n    function tokenURI(uint256 tokenId) public view virtual override returns (string memory) {\r\n        require(_exists(tokenId), \"ERC721Metadata: URI query for nonexistent token\");\r\n\r\n        string memory _tokenURI = _tokenURIs[tokenId];\r\n        string memory base = baseURI();\r\n\r\n        // If there is no base URI, return the token URI.\r\n        if (bytes(base).length == 0) {\r\n            return _tokenURI;\r\n        }\r\n        // If both are set, concatenate the baseURI and tokenURI (via abi.encodePacked).\r\n        if (bytes(_tokenURI).length > 0) {\r\n            return string(abi.encodePacked(base, _tokenURI));\r\n        }\r\n        // If there is a baseURI but no tokenURI, concatenate the tokenID to the baseURI.\r\n        return string(abi.encodePacked(base, tokenId.toString()));\r\n    }\r\n\r\n    /**\r\n    * @dev Returns the base URI set via {_setBaseURI}. This will be\r\n    * automatically added as a prefix in {tokenURI} to each token's URI, or\r\n    * to the token ID if no specific URI is set for that token ID.\r\n    */\r\n    function baseURI() public view virtual returns (string memory) {\r\n        return _baseURI;\r\n    }\r\n\r\n    /**\r\n     * @dev See {IERC721Enumerable-tokenOfOwnerByIndex}.\r\n     */\r\n    function tokenOfOwnerByIndex(address owner, uint256 index) public view virtual override returns (uint256) {\r\n        return _holderTokens[owner].at(index);\r\n    }\r\n\r\n    /**\r\n     * @dev See {IERC721Enumerable-totalSupply}.\r\n     */\r\n    function totalSupply() public view virtual override returns (uint256) {\r\n        // _tokenOwners are indexed by tokenIds, so .length() returns the number of tokenIds\r\n        return _tokenOwners.length();\r\n    }\r\n\r\n    /**\r\n     * @dev See {IERC721Enumerable-tokenByIndex}.\r\n     */\r\n    function tokenByIndex(uint256 index) public view virtual override returns (uint256) {\r\n        (uint256 tokenId, ) = _tokenOwners.at(index);\r\n        return tokenId;\r\n    }\r\n\r\n    /**\r\n     * @dev See {IERC721-approve}.\r\n     */\r\n    function approve(address to, uint256 tokenId) public virtual override {\r\n        address owner = ERC721.ownerOf(tokenId);\r\n        require(to != owner, \"ERC721: approval to current owner\");\r\n\r\n        require(_msgSender() == owner || ERC721.isApprovedForAll(owner, _msgSender()),\r\n            \"ERC721: approve caller is not owner nor approved for all\"\r\n        );\r\n\r\n        _approve(to, tokenId);\r\n    }\r\n\r\n    /**\r\n     * @dev See {IERC721-getApproved}.\r\n     */\r\n    function getApproved(uint256 tokenId) public view virtual override returns (address) {\r\n        require(_exists(tokenId), \"ERC721: approved query for nonexistent token\");\r\n\r\n        return _tokenApprovals[tokenId];\r\n    }\r\n\r\n    /**\r\n     * @dev See {IERC721-setApprovalForAll}.\r\n     */\r\n    function setApprovalForAll(address operator, bool approved) public virtual override {\r\n        require(operator != _msgSender(), \"ERC721: approve to caller\");\r\n\r\n        _operatorApprovals[_msgSender()][operator] = approved;\r\n        emit ApprovalForAll(_msgSender(), operator, approved);\r\n    }\r\n\r\n    /**\r\n     * @dev See {IERC721-isApprovedForAll}.\r\n     */\r\n    function isApprovedForAll(address owner, address operator) public view virtual override returns (bool) {\r\n        return _operatorApprovals[owner][operator];\r\n    }\r\n\r\n    /**\r\n     * @dev See {IERC721-transferFrom}.\r\n     */\r\n    function transferFrom(address from, address to, uint256 tokenId) public virtual override {\r\n        //solhint-disable-next-line max-line-length\r\n        require(_isApprovedOrOwner(_msgSender(), tokenId), \"ERC721: transfer caller is not owner nor approved\");\r\n\r\n        _transfer(from, to, tokenId);\r\n    }\r\n\r\n    /**\r\n     * @dev See {IERC721-safeTransferFrom}.\r\n     */\r\n    function safeTransferFrom(address from, address to, uint256 tokenId) public virtual override {\r\n        safeTransferFrom(from, to, tokenId, \"\");\r\n    }\r\n\r\n    /**\r\n     * @dev See {IERC721-safeTransferFrom}.\r\n     */\r\n    function safeTransferFrom(address from, address to, uint256 tokenId, bytes memory _data) public virtual override {\r\n        require(_isApprovedOrOwner(_msgSender(), tokenId), \"ERC721: transfer caller is not owner nor approved\");\r\n        _safeTransfer(from, to, tokenId, _data);\r\n    }\r\n\r\n    /**\r\n     * @dev Safely transfers `tokenId` token from `from` to `to`, checking first that contract recipients\r\n     * are aware of the ERC721 protocol to prevent tokens from being forever locked.\r\n     *\r\n     * `_data` is additional data, it has no specified format and it is sent in call to `to`.\r\n     *\r\n     * This internal function is equivalent to {safeTransferFrom}, and can be used to e.g.\r\n     * implement alternative mechanisms to perform token transfer, such as signature-based.\r\n     *\r\n     * Requirements:\r\n     *\r\n     * - `from` cannot be the zero address.\r\n     * - `to` cannot be the zero address.\r\n     * - `tokenId` token must exist and be owned by `from`.\r\n     * - If `to` refers to a smart contract, it must implement {IERC721Receiver-onERC721Received}, which is called upon a safe transfer.\r\n     *\r\n     * Emits a {Transfer} event.\r\n     */\r\n    function _safeTransfer(address from, address to, uint256 tokenId, bytes memory _data) internal virtual {\r\n        _transfer(from, to, tokenId);\r\n        require(_checkOnERC721Received(from, to, tokenId, _data), \"ERC721: transfer to non ERC721Receiver implementer\");\r\n    }\r\n\r\n    /**\r\n     * @dev Returns whether `tokenId` exists.\r\n     *\r\n     * Tokens can be managed by their owner or approved accounts via {approve} or {setApprovalForAll}.\r\n     *\r\n     * Tokens start existing when they are minted (`_mint`),\r\n     * and stop existing when they are burned (`_burn`).\r\n     */\r\n    function _exists(uint256 tokenId) internal view virtual returns (bool) {\r\n        return _tokenOwners.contains(tokenId);\r\n    }\r\n\r\n    /**\r\n     * @dev Returns whether `spender` is allowed to manage `tokenId`.\r\n     *\r\n     * Requirements:\r\n     *\r\n     * - `tokenId` must exist.\r\n     */\r\n    function _isApprovedOrOwner(address spender, uint256 tokenId) internal view virtual returns (bool) {\r\n        require(_exists(tokenId), \"ERC721: operator query for nonexistent token\");\r\n        address owner = ERC721.ownerOf(tokenId);\r\n        return (spender == owner || getApproved(tokenId) == spender || ERC721.isApprovedForAll(owner, spender));\r\n    }\r\n\r\n    /**\r\n     * @dev Safely mints `tokenId` and transfers it to `to`.\r\n     *\r\n     * Requirements:\r\n     d*\r\n     * - `tokenId` must not exist.\r\n     * - If `to` refers to a smart contract, it must implement {IERC721Receiver-onERC721Received}, which is called upon a safe transfer.\r\n     *\r\n     * Emits a {Transfer} event.\r\n     */\r\n    function _safeMint(address to, uint256 tokenId) internal virtual {\r\n        _safeMint(to, tokenId, \"\");\r\n    }\r\n\r\n    /**\r\n     * @dev Same as {xref-ERC721-_safeMint-address-uint256-}[`_safeMint`], with an additional `data` parameter which is\r\n     * forwarded in {IERC721Receiver-onERC721Received} to contract recipients.\r\n     */\r\n    function _safeMint(address to, uint256 tokenId, bytes memory _data) internal virtual {\r\n        _mint(to, tokenId);\r\n        require(_checkOnERC721Received(address(0), to, tokenId, _data), \"ERC721: transfer to non ERC721Receiver implementer\");\r\n    }\r\n\r\n    /**\r\n     * @dev Mints `tokenId` and transfers it to `to`.\r\n     *\r\n     * WARNING: Usage of this method is discouraged, use {_safeMint} whenever possible\r\n     *\r\n     * Requirements:\r\n     *\r\n     * - `tokenId` must not exist.\r\n     * - `to` cannot be the zero address.\r\n     *\r\n     * Emits a {Transfer} event.\r\n     */\r\n    function _mint(address to, uint256 tokenId) internal virtual {\r\n        require(to != address(0), \"ERC721: mint to the zero address\");\r\n        require(!_exists(tokenId), \"ERC721: token already minted\");\r\n\r\n        _beforeTokenTransfer(address(0), to, tokenId);\r\n\r\n        _holderTokens[to].add(tokenId);\r\n\r\n        _tokenOwners.set(tokenId, to);\r\n\r\n        emit Transfer(address(0), to, tokenId);\r\n    }\r\n\r\n    /**\r\n     * @dev Destroys `tokenId`.\r\n     * The approval is cleared when the token is burned.\r\n     *\r\n     * Requirements:\r\n     *\r\n     * - `tokenId` must exist.\r\n     *\r\n     * Emits a {Transfer} event.\r\n     */\r\n    function _burn(uint256 tokenId) internal virtual {\r\n        address owner = ERC721.ownerOf(tokenId); // internal owner\r\n\r\n        _beforeTokenTransfer(owner, address(0), tokenId);\r\n\r\n        // Clear approvals\r\n        _approve(address(0), tokenId);\r\n\r\n        // Clear metadata (if any)\r\n        if (bytes(_tokenURIs[tokenId]).length != 0) {\r\n            delete _tokenURIs[tokenId];\r\n        }\r\n\r\n        _holderTokens[owner].remove(tokenId);\r\n\r\n        _tokenOwners.remove(tokenId);\r\n\r\n        emit Transfer(owner, address(0), tokenId);\r\n    }\r\n\r\n    /**\r\n     * @dev Transfers `tokenId` from `from` to `to`.\r\n     *  As opposed to {transferFrom}, this imposes no restrictions on msg.sender.\r\n     *\r\n     * Requirements:\r\n     *\r\n     * - `to` cannot be the zero address.\r\n     * - `tokenId` token must be owned by `from`.\r\n     *\r\n     * Emits a {Transfer} event.\r\n     */\r\n    function _transfer(address from, address to, uint256 tokenId) internal virtual {\r\n        require(ERC721.ownerOf(tokenId) == from, \"ERC721: transfer of token that is not own\"); // internal owner\r\n        require(to != address(0), \"ERC721: transfer to the zero address\");\r\n\r\n        _beforeTokenTransfer(from, to, tokenId);\r\n\r\n        // Clear approvals from the previous owner\r\n        _approve(address(0), tokenId);\r\n\r\n        _holderTokens[from].remove(tokenId);\r\n        _holderTokens[to].add(tokenId);\r\n\r\n        _tokenOwners.set(tokenId, to);\r\n\r\n        emit Transfer(from, to, tokenId);\r\n    }\r\n\r\n    /**\r\n     * @dev Sets `_tokenURI` as the tokenURI of `tokenId`.\r\n     *\r\n     * Requirements:\r\n     *\r\n     * - `tokenId` must exist.\r\n     */\r\n    function _setTokenURI(uint256 tokenId, string memory _tokenURI) internal virtual {\r\n        require(_exists(tokenId), \"ERC721Metadata: URI set of nonexistent token\");\r\n        _tokenURIs[tokenId] = _tokenURI;\r\n    }\r\n\r\n    /**\r\n     * @dev Internal function to set the base URI for all token IDs. It is\r\n     * automatically added as a prefix to the value returned in {tokenURI},\r\n     * or to the token ID if {tokenURI} is empty.\r\n     */\r\n    function _setBaseURI(string memory baseURI_) internal virtual {\r\n        _baseURI = baseURI_;\r\n    }\r\n\r\n    /**\r\n     * @dev Internal function to invoke {IERC721Receiver-onERC721Received} on a target address.\r\n     * The call is not executed if the target address is not a contract.\r\n     *\r\n     * @param from address representing the previous owner of the given token ID\r\n     * @param to target address that will receive the tokens\r\n     * @param tokenId uint256 ID of the token to be transferred\r\n     * @param _data bytes optional data to send along with the call\r\n     * @return bool whether the call correctly returned the expected magic value\r\n     */\r\n    function _checkOnERC721Received(address from, address to, uint256 tokenId, bytes memory _data)\r\n        private returns (bool)\r\n    {\r\n        if (!to.isContract()) {\r\n            return true;\r\n        }\r\n        bytes memory returndata = to.functionCall(abi.encodeWithSelector(\r\n            IERC721Receiver(to).onERC721Received.selector,\r\n            _msgSender(),\r\n            from,\r\n            tokenId,\r\n            _data\r\n        ), \"ERC721: transfer to non ERC721Receiver implementer\");\r\n        bytes4 retval = abi.decode(returndata, (bytes4));\r\n        return (retval == _ERC721_RECEIVED);\r\n    }\r\n\r\n    /**\r\n     * @dev Approve `to` to operate on `tokenId`\r\n     *\r\n     * Emits an {Approval} event.\r\n     */\r\n    function _approve(address to, uint256 tokenId) internal virtual {\r\n        _tokenApprovals[tokenId] = to;\r\n        emit Approval(ERC721.ownerOf(tokenId), to, tokenId); // internal owner\r\n    }\r\n\r\n    /**\r\n     * @dev Hook that is called before any token transfer. This includes minting\r\n     * and burning.\r\n     *\r\n     * Calling conditions:\r\n     *\r\n     * - When `from` and `to` are both non-zero, ``from``'s `tokenId` will be\r\n     * transferred to `to`.\r\n     * - When `from` is zero, `tokenId` will be minted for `to`.\r\n     * - When `to` is zero, ``from``'s `tokenId` will be burned.\r\n     * - `from` cannot be the zero address.\r\n     * - `to` cannot be the zero address.\r\n     *\r\n     * To learn more about hooks, head to xref:ROOT:extending-contracts.adoc#using-hooks[Using Hooks].\r\n     */\r\n    function _beforeTokenTransfer(address from, address to, uint256 tokenId) internal virtual { }\r\n}\r\n",
  "sourcePath": "D:\\Shah Faisal\\Projects\\nft-marketplace-p2\\contracts\\ERC721.sol",
  "compiler": {
    "name": "solc",
    "version": "0.8.3+commit.8d00100c.Emscripten.clang"
  },
  "schemaVersion": "3.4.3",
  "updatedAt": "2022-01-10T11:12:00.083Z",
  "devdoc": {
    "details": "see https://eips.ethereum.org/EIPS/eip-721",
    "kind": "dev",
    "methods": {
      "approve(address,uint256)": {
        "details": "See {IERC721-approve}."
      },
      "balanceOf(address)": {
        "details": "See {IERC721-balanceOf}."
      },
      "baseURI()": {
        "details": "Returns the base URI set via {_setBaseURI}. This will be automatically added as a prefix in {tokenURI} to each token's URI, or to the token ID if no specific URI is set for that token ID."
      },
      "constructor": {
        "details": "Initializes the contract by setting a `name` and a `symbol` to the token collection."
      },
      "getApproved(uint256)": {
        "details": "See {IERC721-getApproved}."
      },
      "isApprovedForAll(address,address)": {
        "details": "See {IERC721-isApprovedForAll}."
      },
      "name()": {
        "details": "See {IERC721Metadata-name}."
      },
      "ownerOf(uint256)": {
        "details": "See {IERC721-ownerOf}."
      },
      "safeTransferFrom(address,address,uint256)": {
        "details": "See {IERC721-safeTransferFrom}."
      },
      "safeTransferFrom(address,address,uint256,bytes)": {
        "details": "See {IERC721-safeTransferFrom}."
      },
      "setApprovalForAll(address,bool)": {
        "details": "See {IERC721-setApprovalForAll}."
      },
      "supportsInterface(bytes4)": {
        "details": "See {IERC165-supportsInterface}. Time complexity O(1), guaranteed to always use less than 30 000 gas."
      },
      "symbol()": {
        "details": "See {IERC721Metadata-symbol}."
      },
      "tokenByIndex(uint256)": {
        "details": "See {IERC721Enumerable-tokenByIndex}."
      },
      "tokenOfOwnerByIndex(address,uint256)": {
        "details": "See {IERC721Enumerable-tokenOfOwnerByIndex}."
      },
      "tokenURI(uint256)": {
        "details": "See {IERC721Metadata-tokenURI}."
      },
      "totalSupply()": {
        "details": "See {IERC721Enumerable-totalSupply}."
      },
      "transferFrom(address,address,uint256)": {
        "details": "See {IERC721-transferFrom}."
      }
    },
    "title": "ERC721 Non-Fungible Token Standard basic implementation",
    "version": 1
  },
  "userdoc": {
    "kind": "user",
    "methods": {},
    "version": 1
  }
}